:020000040000fa
:080000000002040000000000f2
:020000040000fa
:04000800be04000032
:020000040000fa
:04000c00be0300002f
:020000040000fa
:04001000d003000019
:020000040000fa
:04001400c60300001f
:020000040000fa
:04001800d803000009
:020000040000fa
:04001c00be0400001e
:020000040000fa
:04002000be0400001a
:020000040000fa
:04002400be04000016
:020000040000fa
:04002800be04000012
:020000040000fa
:04002c00be0400000e
:020000040000fa
:04003000be0400000a
:020000040000fa
:04003400e0030000e5
:020000040000fa
:04003800be04000002
:020000040000fa
:04003c00be040000fe
:020000040000fa
:04004000be040000fa
:020000040000fa
:04004400be040000f6
:020000040000fa
:04004800be040000f2
:020000040000fa
:04004c00be040000ee
:020000040000fa
:04005000be040000ea
:020000040000fa
:040054006003000045
:020000040000fa
:040058000803000099
:020000040000fa
:04005c00be040000de
:020000040000fa
:04006000be040000da
:020000040000fa
:04006400be040000d6
:020000040000fa
:04006800be040000d2
:020000040000fa
:04006c00be040000ce
:020000040000fa
:04007000be040000ca
:020000040000fa
:04007400be040000c6
:020000040000fa
:04007800be040000c2
:020000040000fa
:04007c00be040000be
:020000040000fa
:04008000be040000ba
:020000040000fa
:04008400be040000b6
:020000040000fa
:04008800be040000b2
:020000040000fa
:04008c00be040000ae
:020000040000fa
:04009000be040000aa
:020000040000fa
:04009400be040000a6
:020000040000fa
:04009800be040000a2
:020000040000fa
:04009c00be0400009e
:020000040000fa
:0400a00060040000f8
:020000040000fa
:0400a400080400004c
:020000040000fa
:0400a800be04000092
:020000040000fa
:0400ac00be0400008e
:020000040000fa
:0400b000be0400008a
:020000040000fa
:0400b400be04000086
:020000040000fa
:0400b800be04000082
:020000040000fa
:0400bc00be0400007e
:020000040000fa
:0400c000be0400007a
:020000040000fa
:0400c400be04000076
:020000040000fa
:0400c800be04000072
:020000040000fa
:0400cc00be0400006e
:020000040000fa
:0400d000be0400006a
:020000040000fa
:0400d400be04000066
:020000040000fa
:0400d800be04000062
:020000040000fa
:0400dc00be0400005e
:020000040000fa
:0400e000be0400005a
:020000040000fa
:0400e400be04000056
:020000040000fa
:0400e800be04000052
:020000040000fa
:0400ec00be0400004e
:020000040000fa
:0400f000be0400004a
:020000040000fa
:0400f400be04000046
:020000040000fa
:0400f800be04000042
:020000040000fa
:0400fc00be0400003e
:020000040000fa
:04010000be04000039
:020000040000fa
:04010400be04000035
:020000040000fa
:04010800be04000031
:020000040000fa
:04010c00be0400002d
:020000040000fa
:04011000be04000029
:020000040000fa
:04011400be04000025
:020000040000fa
:04011800be04000021
:020000040000fa
:04011c00be0400001d
:020000040000fa
:04012000be04000019
:020000040000fa
:04012400be04000015
:020000040000fa
:04012800be04000011
:020000040000fa
:04012c00a803000024
:020000040000fa
:04013000a80400001f
:020000040000fa
:04013400be04000005
:020000040000fa
:04013800be04000001
:020000040000fa
:04013c00be040000fd
:020000040000fa
:04014000be040000f9
:020000040000fa
:04014400be040000f5
:020000040000fa
:04014800be040000f1
:020000040000fa
:04014c00be040000ed
:020000040000fa
:04015000be040000e9
:020000040000fa
:04015400be040000e5
:020000040000fa
:04015800be040000e1
:020000040000fa
:04015c00be040000dd
:020000040000fa
:04016000be040000d9
:020000040000fa
:04016400be040000d5
:020000040000fa
:04016800be040000d1
:020000040000fa
:04016c00be040000cd
:020000040000fa
:04017000be040000c9
:020000040000fa
:04017400be040000c5
:020000040000fa
:04017800be040000c1
:020000040000fa
:04017c00be040000bd
:020000040000fa
:04018000be040000b9
:020000040000fa
:04018400be040000b5
:020000040000fa
:04018800be040000b1
:020000040000fa
:04018c00be040000ad
:020000040000fa
:04019000be040000a9
:020000040000fa
:04019400be040000a5
:020000040000fa
:04019800be040000a1
:020000040000fa
:04019c00be0400009d
:020000040000fa
:0401a000be04000099
:020000040000fa
:0401a400be04000095
:020000040000fa
:0401a800be04000091
:020000040000fa
:0401ac00be0400008d
:020000040000fa
:0401b000be04000089
:020000040000fa
:0401b400be04000085
:020000040000fa
:0401b800be04000081
:020000040000fa
:0401bc00be0400007d
:020000040000fa
:0401c000be04000079
:020000040000fa
:0401c400be04000075
:020000040000fa
:0401c800be04000071
:020000040000fa
:0401cc00be0400006d
:020000040000fa
:0401d000be04000069
:020000040000fa
:0401d400be04000065
:020000040000fa
:0401d800be04000061
:020000040000fa
:0401dc00be0400005d
:020000040000fa
:0401e000be04000059
:020000040000fa
:0401e400be04000055
:020000040000fa
:0401e800be04000051
:020000040000fa
:0401ec00be0400004d
:020000040000fa
:0401f000be04000049
:020000040000fa
:0401f400be04000045
:020000040000fa
:0401f800be04000041
:020000040000fa
:0401fc00be0400003d
:020000040000fa
:04020800be04000030
:020000040000fa
:04020c00be0400002c
:020000040000fa
:04021000be04000028
:020000040000fa
:04021400be04000024
:020000040000fa
:04021800be04000020
:020000040000fa
:04021c00be0400001c
:020000040000fa
:04022000be04000018
:020000040000fa
:04022400be04000014
:020000040000fa
:04022800be04000010
:020000040000fa
:04022c00be0400000c
:020000040000fa
:04023000be04000008
:020000040000fa
:04023400be04000004
:020000040000fa
:04023800be04000000
:020000040000fa
:04023c00be040000fc
:020000040000fa
:04024000be040000f8
:020000040000fa
:04024400be040000f4
:020000040000fa
:04024800be040000f0
:020000040000fa
:04024c00be040000ec
:020000040000fa
:04025000be040000e8
:020000040000fa
:04025400be040000e4
:020000040000fa
:04025800be040000e0
:020000040000fa
:04025c00be040000dc
:020000040000fa
:04026000be040000d8
:020000040000fa
:04026400be040000d4
:020000040000fa
:04026800be040000d0
:020000040000fa
:04026c00be040000cc
:020000040000fa
:04027000be040000c8
:020000040000fa
:04027400be040000c4
:020000040000fa
:04027800be040000c0
:020000040000fa
:04027c00be040000bc
:020000040000fa
:04028000be040000b8
:020000040000fa
:04028400be040000b4
:020000040000fa
:04028800be040000b0
:020000040000fa
:04028c00be040000ac
:020000040000fa
:04029000be040000a8
:020000040000fa
:04029400be040000a4
:020000040000fa
:04029800be040000a0
:020000040000fa
:04029c00be0400009c
:020000040000fa
:0402a000be04000098
:020000040000fa
:0402a400be04000094
:020000040000fa
:0402a800be04000090
:020000040000fa
:0402ac00be0400008c
:020000040000fa
:0402b000be04000088
:020000040000fa
:0402b400be04000084
:020000040000fa
:0402b800be04000080
:020000040000fa
:0402bc00be0400007c
:020000040000fa
:0402c000be04000078
:020000040000fa
:0402c400be04000074
:020000040000fa
:0402c800be04000070
:020000040000fa
:0402cc00be0400006c
:020000040000fa
:0402d000be04000068
:020000040000fa
:0402d400be04000064
:020000040000fa
:0402d800be04000060
:020000040000fa
:0402dc00be0400005c
:020000040000fa
:0402e000be04000058
:020000040000fa
:0402e400be04000054
:020000040000fa
:0402e800be04000050
:020000040000fa
:0402ec00be0400004c
:020000040000fa
:0402f000be04000048
:020000040000fa
:0402f400be04000044
:020000040000fa
:0402f800be04000040
:020000040000fa
:0402fc00be0400003c
:020000040000fa
:04030000be04000037
:020000040000fa
:04030400be04000033
:020000040000fa
:04030800be0400002f
:020000040000fa
:04030c00be0400002b
:020000040000fa
:04031000be04000027
:020000040000fa
:04031400be04000023
:020000040000fa
:04031800be0400001f
:020000040000fa
:04031c00be0400001b
:020000040000fa
:04032000be04000017
:020000040000fa
:04032400be04000013
:020000040000fa
:04032800be0400000f
:020000040000fa
:04032c00be0400000b
:020000040000fa
:04033000be04000007
:020000040000fa
:04033400be04000003
:020000040000fa
:04033800be040000ff
:020000040000fa
:04033c00be040000fb
:020000040000fa
:04034000be040000f7
:020000040000fa
:04034400be040000f3
:020000040000fa
:04034800be040000ef
:020000040000fa
:04034c00be040000eb
:020000040000fa
:04035000be040000e7
:020000040000fa
:04035400be040000e3
:020000040000fa
:04035800be040000df
:020000040000fa
:04035c00be040000db
:020000040000fa
:04036000be040000d7
:020000040000fa
:04036400be040000d3
:020000040000fa
:04036800be040000cf
:020000040000fa
:04036c00be040000cb
:020000040000fa
:04037000be040000c7
:020000040000fa
:04037400be040000c3
:020000040000fa
:04037800be040000bf
:020000040000fa
:04037c00be040000bb
:020000040000fa
:04038000be040000b7
:020000040000fa
:04038400be040000b3
:020000040000fa
:04038800be040000af
:020000040000fa
:04038c00be040000ab
:020000040000fa
:04039000be040000a7
:020000040000fa
:04039400be040000a3
:020000040000fa
:04039800be0400009f
:020000040000fa
:04039c00be0400009b
:020000040000fa
:0403a000be04000097
:020000040000fa
:0403a400be04000093
:020000040000fa
:0403a800be0400008f
:020000040000fa
:0403ac00be0400008b
:020000040000fa
:0403b000be04000087
:020000040000fa
:0403b400be04000083
:020000040000fa
:0403b800be0400007f
:020000040000fa
:0403bc00be0400007b
:020000040000fa
:0403c000be04000077
:020000040000fa
:0403c400be04000073
:020000040000fa
:0403c800be0400006f
:020000040000fa
:0403cc00be0400006b
:020000040000fa
:0403d000be04000067
:020000040000fa
:0403d400be04000063
:020000040000fa
:0403d800be0400005f
:020000040000fa
:0403dc00be0400005b
:020000040000fa
:0403e000be04000057
:020000040000fa
:0403e400be04000053
:020000040000fa
:0403e800be0400004f
:020000040000fa
:0403ec00be0400004b
:020000040000fa
:0403f000be04000047
:020000040000fa
:0403f400be04000043
:020000040000fa
:0403f800be0400003f
:020000040000fa
:0403fc00be0400003b
:020000040000fa
:100400006ff420000e7f22000e0188000000000023
:10041000000020000000e000020032000001200087
:100420002002880014000700560107000000e000c9
:1004300003003a00e03722000100200002003700ec
:100440000000200001002000810f70000100320038
:1004500014000700000020000000e000020032004d
:1004600000000200000000005a2602000000000008
:100470000040da000000fe004440a9004052200085
:100480000000e000030032000020200090018800fe
:100490004440a800000006008a1f78008b1f7800e7
:1004a00000000600a1028800800478000000eb0034
:1004b0001f003700e284440054a0b4009905ba003c
:1004c000e284440054a0b4009906ba00e2844400d7
:1004d00054a0b4000006eb00476fde00fd07b20039
:1004e000ae018800636ce10003003a00eaff0700f8
:1004f0000000eb000e003700606ce10008003a00dd
:10050000004deb000a05e800020039003420ec0041
:100510000af0a0008b05e900f9ff3e000400370057
:100520006168e100010032000086eb000b0007006b
:1005300019c7ba001905ba000e04e00003003a001a
:100540000a00e000dbff3a0000000600fe07b200f0
:10055000ae0288008a047800f5ff37000cd0a300b3
:10056000e20f4d001c00390089027800354dba00b9
:100570000a05e800020039003420ec000af0a0006f
:100580008b05e9000f003200254dba000a05e8008e
:10059000020039003420ec000af0a0008b05e900cd
:1005a000080032000c00e0000600320015cdba0051
:1005b0000a05e800020039003420ec000af0a0002f
:1005c0008b05e9008984e80054a0b4000b00e0002a
:1005d000e2ff3a00000006009902ba00055d7800cb
:1005e0008b05e900f7ff3200c82ade00055d7800c0
:1005f0008b05e900f3ff32000c00e000f1ff320050
:1006000019ddba00eeff37007a0504000000000093
:10061000809fbe000000fa003165800000202000ad
:10062000008060000000e000020032009580a90018
:10063000200037008580a900190037002065800060
:10064000104078000080fb00202888002065800092
:100650000000e8002065880021658000e0d02000cf
:10066000808f500002003a0080ca20002065880078
:1006700031658000f0ef2f00008060003065880059
:100680002165800010658000808f500004003a00d2
:10069000306580000090a0003065880005003700bc
:1006a0001128800000202000008060000000e00091
:1006b000e2ff32000080fa004f00be00004006005a
:1006c000809fbe000000fa0019003700f06480002f
:1006d000312880008140780001487800f064800073
:1006e0000000e800f0648800f164800040d720003a
:1006f000808f500002003a00e0d02000f0648800b3
:1007000031658000d0ff2f000080600030658800d8
:10071000f164800000658000808f500004003a0082
:10072000306580000000a0003065880004003700bc
:1007300010288000610060000000e000e3ff3a0044
:100740008560a9000080fa004f00be00004006004e
:10075000801f78000000fa0010288000620060000e
:100760000000e000010032000225a9008c20a90051
:100770000080fa004f007800004006003600f800c4
:100780008020a9000000eb003f1107003600f800b0
:10079000411107008040a900100020003a11070015
:1007a0003600f8008060a900200020003611070004
:1007b0003600f8008080a9003000200032110700c8
:1007c0003600f800809fbe00829fbe00849fbe005e
:1007d000869fbe000000fa002f10070060408000d6
:1007e0000000e8006040880010c0b3000ae8b700cd
:1007f0008460a9000080fa004f03be004f02be00d3
:100800004f01be004f00be003600f9000040060058
:10081000809fbe000000fa00e16b800000202000f5
:10082000008060000000e0000200320097e0a900b4
:100830002000370087e0a90019003700d06b800046
:10084000104078000080fb00d0288800d06b80002a
:100850000000e800d06b8800d16b800040de2000f3
:10086000808f500002003a00e0d72000d06b880053
:10087000e16b8000f0ef2f0000806000e06b8800eb
:10088000d16b8000c06b8000808f500004003a0064
:10089000e06b80000090a000e06b8800050037004e
:1008a000c128800000202000008060000000e000df
:1008b000e2ff32000080fa004f00be000040060058
:1008c000809fbe000000fa0019003700a06b800076
:1008d000e12880008140780001487800a06b80000a
:1008e0000000e800a06b8800a16b8000a0e420005d
:1008f000808f500002003a0040de2000a06b88008c
:10090000e16b8000d0ff2f0000806000e06b88006a
:10091000a16b8000b06b8000808f500004003a0013
:10092000e06b80000000a000e06b8800040037004e
:10093000c0288000610060000000e000e3ff3a0092
:1009400087c0a9000080fa004f00be0000400600ea
:10095000801f78000000fa00c0288000620060005c
:100960000000e000010032001825a9008c40a90019
:100970000080fa004f007800004006000040da00d6
:100980000000fe0000000500800178000200370032
:10099000b15978000201e9000200e000fcff3a00d2
:1009a00000000600020037000204e0000b003200e5
:1009b000810178000002780030417800b14f510089
:1009c000f9ff32001000200014427800934f5200cb
:1009d000030031000080eb00000006000000eb0087
:1009e0000000060000017800b1417800035978004a
:1009f0000304e000fcff3a000000060080007800dd
:100a0000010178003104e000fdff3a0000005100d0
:100a1000000006000c003700b0417800b1cf510053
:100a200006003200100020009542780094cf52005a
:100a30000b0031000080eb00000006000304e00022
:100a4000060032000201e90001027800800278000d
:100a50000200e000f0ff3a00000005000000eb009b
:100a600000000600889fbe008104780019447800c9
:100a70000804e0000e00320006003700d241780082
:100a80000304e0000a003200d1cf1100fbff320066
:100a90000000e8008800fb00070007000000e000fd
:100aa000030032000901780080007800f3ff37006e
:100ab0004f04be00000006000001eb0003003700f9
:100ac0000201e8000404e000070032006103b800fe
:100ad0006112b8008601420066427a00814f5200de
:100ae000f7ff3a00010037008001eb0003007800b7
:100af00000000600881f78000204780008017800d2
:100b0000a1ff0700080040004f0478000000060025
:100b10000000fa00881f780000047800ea8157007e
:100b20003fb9970088007800a05720000700070011
:100b30000000e000020035008040eb000174780006
:100b40004f0478000080fa00000006006200fa00fe
:100b5000889fbe008a1f7800000578008104780015
:100b6000020478008300780080f92f000f00400015
:100b7000c80307009a979f00a9979f000000eb0009
:100b8000b09f9f001885fb008a04fb000a05ea005d
:100b90004f55de0050022000808f54000d003200bf
:100ba000e10f55000b003a000a0178008800780038
:100bb0002f9097009f91970003000100a0979f003e
:100bc0000000e0008e0032003f9897000000e8002f
:100bd000b09f9f000a04440050022000808f540000
:100be000040032000900e000e6ff3a003f98970059
:100bf000840037000000eb00909f9f00809f9f00c3
:100c0000f0979f00e0979f00d0979f00c0979f00ac
:100c10000700370001f420000100500000004000f0
:100c200041f3200061007800df9897000100700018
:100c3000d09f9f0088047800090478003845780028
:100c40008a00fb0000f420009bff07000000e0008a
:100c5000f0ff3a00a1c2b300814f55000e003a00e8
:100c6000cf8897000180e900c08f9f0010007800b6
:100c7000c09f9f000000e00005003d000000ea006a
:100c8000c09f9f005f9897000020a000d09f9f000a
:100c90000904e8000f003700c09f9f000000eb0030
:100ca00005003700f2ff2700820f500002003200db
:100cb0006a01b900028040000904780088047800c5
:100cc000b900fb000103b100e98f5000f5ff3600c9
:100cd000c09f9f00e0c2b300984f10000200320096
:100ce0000080eb0019003700a0c2b300d84f1000fd
:100cf00007003a00cf8897000180e900c08f9f006d
:100d000010007800a09f9f000804e8001000370042
:100d10000000eb00a09f9f008800780005003700ce
:100d2000f3ff2700830f5000020032006a02b9006f
:100d30000400410001047800880078003101fb00c4
:100d40000203b100e90f5100f5ff3600a09f9f009c
:100d5000984478008900fb00c0f2200056ff07008d
:100d60000000e000020032000804e8000100370043
:100d70008044eb00c97f9f0080c6b30080cf540041
:100d800004003a0098cf14000a003a006640500070
:100d900006003700c0c6b30080cf540005003a00fb
:100da00098cf140003003a0065404000c07f9f00c8
:100db0000804e8001801fb00e3fb2f008f814100cd
:100dc00081f92f008f804000a0f92f000f00400014
:100dd000100007000000e00009003a00e1fb2f00ce
:100de0008f804000a0f92f000f0040006d02070027
:100df0000000e000020035000804e80061ff370051
:100e00000080eb004f0578004f04be000080fa0020
:100e100000000600889fbe008a1f7800000478004a
:100e2000e0c6b300804f5100c100320015003c0005
:100e30006b405000804f5100240032000a003c00fb
:100e400070405000804f5100fa0032006540400071
:100e5000804f51006800320050c2b300804f5100f3
:100e60000b013a000701370040c6b300804f510024
:100e70001b00320065404000804f510004013a00e1
:100e80001700370030c7b300804f5100e90032002f
:100e900007003c0064405000804f51005600320073
:100ea0000040e800804f5100f9003a00d3003700bd
:100eb00050c7b300804f51004f00320063404000e4
:100ec000804f5100f2003a004b0037001181e900d9
:100ed000820878007800900012417800ea0037001c
:100ee00028609000c4c6b300844f500007003a0049
:100ef0001102780064005200800878001002be00e1
:100f00004fabde00860378001100370014c7b30032
:100f1000844f500003003200a4c6b300844f500039
:100f200006003a001102780068005200800878003c
:100f30003002be002003be00050037001180e9002a
:100f40008008780010027800cfa2de00612bb90083
:100f5000049cbe000694be002860900081c6b300c9
:100f6000814f50000d00320021c6b300814f500068
:100f700004003a000402fb00cfa2de00612bb9009e
:100f80000800370041c7b300814f50000300320012
:100f9000e6c04000814f500004003a00cfa2de00be
:100fa000612bb900049cbe000694be003802be004e
:100fb0002803be0078009000d1c2b300e00f5200b9
:100fc000e08f5a00e00f5b00e08f5b000800350007
:100fd000881090000118a30002003200b1c2b300d3
:100fe000030037000108a3004c00320001c2b30027
:100ff000817178004700370028609000c4c6b300b4
:10100000844f500006003a0011027800640052003c
:10101000800878001002be006033b800110037006d
:1010200014c7b300844f500003003200a4c6b300bd
:10103000844f500006003a00110278006800520008
:10104000800878003002be002003be000500370093
:101050001180e90080087800100278008002eb001f
:101060006033b800049cbe000694be002860900067
:1010700081c6b300814f50000d00320021c6b3007d
:10108000814f500004003a000482fb008002eb0014
:101090006033b8000800370041c7b300814f5000eb
:1010a00003003200e6c04000814f500004003a00c7
:1010b0008002eb006033b800049cbe000694be00c2
:1010c000081090000038a300140032003802be005f
:1010d0002803be00e00f5200e08f5a00e00f5b00d3
:1010e000e08f5b000d00320080c7b300804f5100dd
:1010f0000300320080c5b300804f510007003a0062
:101100007800900001c3b300817178000000e8000e
:10111000827178000000e800700498007800900068
:101120008081410063049800824078003e003700cf
:1011300028619000c3c6b3001180e900834f5100bd
:10114000220032000a003c00e4c15100834f5100ec
:101150002500320083c1e800834f510013003200a4
:10116000e8c15100834f51001e003a000a003700c9
:1011700043c7b300834f51001b003200e6c141005a
:10118000834f510018003200e9c15100834f5100d4
:1011900014003a000500370080087800100078003d
:1011a000485c9000084878004100370080087800cb
:1011b00010007800680a9000cfa2de00612bb90011
:1011c0000498be000690be00390037008008780001
:1011d0001000780068099000cf91de000288be0000
:1011e000330037001180e900800878001000780093
:1011f000680c9000080878002d0037001180e90085
:101200008008780010027800cfa2de00612bb900c0
:10121000049cbe000694be007800900080814100ce
:101220006304980081c7b300080078002e0007000f
:101230001f0037001180e900800878001005780051
:101240006a049800d80c90000900e00004003d00fa
:101250000a007800e9fd07008004780007003700e5
:10126000090178008000eb000a00780014000700f4
:101270000000e000010032008a045000190c9800c0
:101280000b0037007800900082717800060037006c
:1012900078009000808141000204e00001003a00e3
:1012a00052c2b300824978000000e8007004980040
:1012b0000000eb004f0578004f04be000000060060
:1012c00003003700b0cf1000050032000201e90032
:1012d000800178000200e000faff3a0000000500fb
:1012e0000300780000000600fc874700889fbe00ce
:1012f0008a9fbe008c9fbe008e1f7800000678007b
:1013000080c5b30080cf50000a0032007740400013
:1013100080cf50000a0032006940400080cf50006a
:101320000b003200b0ef200080bf9f00ae00200015
:101330000a003700a2ee200082bf9f00060037009f
:10134000b3ef200083bf9f008e0020000300370012
:10135000b4ef200084bf9f000e0120003c02be00bd
:101360002c03be000605be000404be0040c6b30048
:1013700080cf5000030032006540400080cf500015
:101380000b003a00e00f5200e08f5a00e00f5b00c4
:10139000e08f5b0006003d006000b8006011b800ff
:1013a00004045000858458000605590087855900bb
:1013b000e80f57000400320040002000f00f5700f3
:1013c00038003a000100370030002000e00f5400e0
:1013d000e08f5c00e00f5d00e08f5d0004003a00ec
:1013e000dc0890008d0120000100e00006003200c2
:1013f0008e00e900888060008fba9700e5c0780011
:10140000f1ef9f007d012000800078008100e9005d
:10141000050033008b05d1000a85d3008984d300f1
:101420000884d300f9ff3700089ebe000a96be006c
:10143000120037008d06e9008e00e900848060000c
:101440000fb99700e2c1780082fd2f000f01410023
:1014500003f17e00800078008100e9000500330080
:101460008783d1000683d3008582d3000482d30012
:10147000f9ff3700049ebe000696be003c02be0087
:101480002c03be00e00f5200e08f5a00e00f5b001b
:10149000e08f5b008b0034000d00e000e5ff3c00b6
:1014a000880037002c60900081c6b300814f500047
:1014b0000b00320006003c000004e000080032008f
:1014c000e6c05000814f50004e003a000400370043
:1014d000c1c6b300814f50004a003a0021003700d6
:1014e0000800e00004003a005c0890008d01200034
:1014f0000000e00006003200110009000e84d80050
:101500000fb99700e2c07800f1ef9f007d01200045
:10151000110009000e84d8000a00370011000900ec
:101520000e04d8008d06e9000e81b90002045400b3
:101530008fb8970061417c0081fd2f008f804000b3
:1015400082f07e00000478000800e0000200320013
:101550000d00e000f1ff3c00cfc4de00614db9009a
:1015600025003700e00f5400e08f5c0004003a00d3
:101570005c0890008d0120000000e00007003200b0
:101580006171b9000800be00630107008fb99700c0
:10159000e3417800f3ef9f007d0120006171b90005
:1015a0000800be004c0107000b0037006171b90054
:1015b0000800be00390107008d06e90000f1b900fe
:1015c000020454000fba9700e4427c0084fd2f000f
:1015d0000f02420005f27e000004be00e00f500042
:1015e000e08f5800020032000d00e000efff3c00e9
:1015f0004fcdde008a057800089ebe000a96be0028
:1016000030003700e00f5400e08f5c00e00f5d0019
:10161000e08f5d0004003a005c0890008d0120001e
:101620000000e000090032006172b900612bb900ce
:101630000800be000a01be00da0107000fba9700d9
:1016400064427800f4ef9f007d0120006172b900d0
:10165000612bb9000800be000a01be00ca010700e4
:101660000d0037006172b900612bb9000800be009f
:101670000a01be00cf0107008d06e90000f2b900a3
:10168000040454008fba970065427c0085fd2f004a
:101690008f82420084f27e00009ebe000296be0051
:1016a0003c04be002c05be00e00f5400e08f5c003f
:1016b000e00f5d00e08f5d00020034000d00e000ef
:1016c000e8ff3c00e80f570010003a000c109000b3
:1016d0000038a3000d003200f78f560006003e00d0
:1016e00085fd2f008f824200e5c07e0000c3b3005d
:1016f00080cf5000050032008d06e90002c3b30020
:1017000081fd2f008f80400082f07e0078811600de
:10171000120e98006c00900083fd2f008f81410015
:101720008d80410098fc07001c089000dc089000a8
:10173000810f500006003d0000805000000e980010
:101740000c1090000040a100001698000f00370018
:101750000100e0000d003d008c109000f48060005e
:10176000f08f500009003a007c099000fc009000c6
:10177000810051000c0990008280500000805000d0
:101780004240a90001003400000e98004f07780085
:101790004f06be004f05be004f04be00cf01b10092
:1017a000000006000400fa00889fbe008a9fbe0069
:1017b0008c1f78000004780001067800f80d900076
:1017c00078009000808555000808900080855500bd
:1017d00018089000808555002808900080855500e5
:1017e0003808900080855500480890008085550095
:1017f0000002220090bf9f0000032300a0bf9f00b3
:10180000081090000028a30015003a000b00e0002b
:10181000130034000b0578008a047800e20f5500ad
:101820000100360029002000c8019000090178005d
:10183000ee8057005800900003000100500498000b
:101840000000e0008c0032006808900009004000b1
:10185000600c9800090555004240a900eeff3c00cd
:10186000780190000200e0000c003400c8019000f4
:101870008c0078005800900003000100500498008c
:101880008080eb000000e0007c003200e80890005f
:101890007800900000804000600c9800880c900058
:1018a0000900e0001100340009057800e28f5400bf
:1018b000010036002a002000c80190000a017800cb
:1018c000ec8057005800900003000100500498007d
:1018d0000000e00068003200680890000a00400044
:1018e000600c98008a845400edff370018099000be
:1018f0000200e0000c003400c8019000e8009000f5
:101900005800900003000100500498008080eb0014
:101910000000e00059003200e8089000180890002c
:1019200000804000600c9800a80c90000900e000c6
:101930001100340009057800e28f540001003600e0
:101940002a002000c80190000a017800ec805700ae
:101950005800900003000100500498000000e000cf
:1019600045003200680890000a004000600c9800b2
:101970008a845400edff3700380990000200e0002f
:101980000e003400e80090001808900080804000ad
:10199000c801900058009000030001005004980016
:1019a0008080eb000000e00034003200e808900086
:1019b0003808900000804000600c9800c80c90002f
:1019c0000900e0001100340009057800e28f54009e
:1019d000010036002a002000c80190000a017800aa
:1019e000ec8057005800900003000100500498005c
:1019f0000000e00020003200680890000a0040006b
:101a0000600c98008a845400edff370008109000a5
:101a10008000eb000028a300180032000b00e0005b
:101a2000160034008b04780009057800e28f54001a
:101a3000010036002a002000c80190000a01780049
:101a4000ee805700580090000300010050049800f9
:101a50000000e00008003200680890000a00400022
:101a6000600c98008a8454004240a900eeff3c00bc
:101a70008000eb00010037008080eb00010078005f
:101a80004f0678004f05be004f04be000080fa00ec
:101a9000000006000108780000000600839f68002f
:101aa0000100e00002003d0060001000e08018002e
:101ab0000300e00002003d0060011100e081190018
:101ac000050007004f00e00002003b00600010002e
:101ad000e0801800000006006022b8000602200026
:101ae0000000d0008180d2000482d2008582d20022
:101af0000000a0000202520083825a00030031005d
:101b00000202420083824a000000a1000603e900ad
:101b1000f3ff3a0000000600efff07000400be00dc
:101b200000000600889fbe008a9fbe00300442006d
:101b3000b0844a0030054b0090854b006000b10036
:101b40000898be000a90be000440e10005c8e1000c
:101b500006d0e10007d8e100020031006800400033
:101b60001008e8004f05be004f04be00000006004c
:101b7000889fbe008a9fbe003004be002005be00c4
:101b80000418540005985c0006185d0007985d0075
:101b9000110020000440e10005c8e10006d0e1008a
:101ba00007d8e100010039008000eb001088100028
:101bb0004f05be004f04be00000006001200fa00f0
:101bc000889fbe008a9fbe008c9fbe00e0b79f002a
:101bd000f1b79f0082bf9f0093bf9f000605be0024
:101be0000404be000000eb00d0b79f00c0b79f0008
:101bf000b0b79f00a0b79f0090b79f000006eb0012
:101c00005fb19700cfb09700820141003fb09700cd
:101c10000200e00004003d00370007007e8057000e
:101c2000c0ff070003003700330007007e80570025
:101c3000cfff0700dfb697000d00e0000c00350075
:101c40006fb29700ffb297000fbb97009fbb970042
:101c500010002000010020006011b8000002720096
:101c60008182720002037300838373001b000700ec
:101c70000c06e80001042000810f5600e0ff3a0046
:101c80000d00e00004003d000802be000a03be0093
:101c90007e805700a3ff07005fa897000000e000c8
:101ca00005003a001fb29700afb297003fb397000c
:101cb000cfb39700090007006fb09700ffb09700ff
:101cc0000fb997009fb997004f06be004f05be00a1
:101cd0004f04be000080fa0000000600010007006b
:101ce00000000600a4b79f00b5b79f00c6b79f00cd
:101cf000d7b79f00000006004f09de008281710007
:101d0000b3b79f004f01de008180400082807000e9
:101d1000a1b79f008fb097004f09de000000400080
:101d20000200700090b79f007fa897004f01de006f
:101d3000818040008280700081b79f000d00070005
:101d40004f3ade000000400004007000f0af9f003a
:101d5000080007000402420085824a0006034b0087
:101d600087834b00dfff07000802be000a03be00a6
:101d7000000006002fb29700bfb297004fb3970044
:101d8000dfb3970000000600881f780018002000cd
:101d9000881f780089ff07008f87e9004f047800cb
:101da00000000600801feb0084ff07008f87e9001a
:101db00000000600889fbe008a9fbe00e00f500012
:101dc000e08f5800e00f5900e08f59000c003d00f3
:101dd0006044b8006055b8000000540081805c0089
:101de00002015d0083815d001800200015000700de
:101df00008003d00180007000004eb000500370054
:101e00000004eb000f00070002003d001200070075
:101e100018002000dcff07000800e0000600320088
:101e20006022b8006033b8000000520081805a0080
:101e300002015b0083815b004f05be004f04be00c2
:101e400000000600e00f5200e08f5a00e00f5b0038
:101e5000e08f5b00000006006044b8006055b800e9
:101e60000402540085825c0006035d0087835d00e8
:101e700000000600889fbe008a9fbe008c1f78006d
:101e8000e00f5000e08f5800e00f5900e08f59003c
:101e90000d003d006044b8006055b80000005400db
:101ea00081805c0002015d0083815d001c002000d8
:101eb0000820e10009a8e1000ab0e1000bb8e10048
:101ec0000d003d00080037000006eb00e00f520057
:101ed000e08f5a00e00f5b00e08f5b0006003d00e2
:101ee0006044b8006055b8000402540085825c006c
:101ef00006035d0087835d00aaff07000c00e00079
:101f0000060032006022b8006033b80000005200c2
:101f100081805a0002015b0083815b004f067800dc
:0c1f20004f05be004f04be00000006008c
:020000040000fa
:101f2c002b43000052450000473a000020300000cf
:101f3c002c31000000410000542b000043520000e3
:101f4c00454700003f0d00000a0000004f4b000009
:101f5c000d0a000000410000542b0000534100000a
:101f6c0050420000523d0000332c0000312c000088
:101f7c00224300006f6e0000747900007065000051
:101f8c00222c000022470000505200005322000077
:101f9c000d0a000000410000542b000053410000ca
:101fac0050420000523d0000332c0000312c000048
:101fbc0022410000504e0000222c0000222500007f
:101fcc00732200000d0a000000410000542b000099
:101fdc005341000050420000523d0000312c0000e3
:101fec00310d00000a0000002b530000415000008e
:101ffc00425200003a200000312c00003100000059
:10200c00415400002b53000041500000425200008c
:10201c003d3200002c3100000d0a00000041000090
:10202c00542b00004854000054500000494e00004e
:10203c00495400000d0a000000410000542b000020
:10204c005341000050420000523d0000302c000073
:10205c00310d00000a000000415400002b48000024
:10206c005454000050540000455200004d0d000027
:10207c000a000000415400002b480000545400009a
:10208c005044000041540000413d00002564000014
:10209c002c250000640d00000a000000444f0000d5
:1020ac00574e00004c4f000041440000002c000033
:1020bc0032580000582c000000410000542b000046
:1020cc0048540000545000004143000054490000a3
:1020dc004f4e00003d3100000a000000415400004a
:1020ec002b480000545400005052000045410000a1
:1020fc00440d00000a000000415400002b48000071
:10210c00545400005050000041520000413d00006a
:10211c002243000049440000222c0000310d000035
:10212c000a000000415400002b48000054540000e9
:10213c005050000041520000413d0000225500006b
:10214c00524c0000222c00002225000073220000bb
:10215c000d0a000000680000747400007073000029
:10216c003a2f00002f000000415400002b480000c3
:10217c005454000050530000534c00003d310000fb
:10218c000d0a000000410000542b000048540000d0
:10219c0054500000535300004c3d0000300d000023
:1021ac000a000000415400002b4800005454000069
:1021bc005050000041520000413d000022430000fd
:1021cc004f4e0000544500004e540000222c0000dd
:1021dc0022610000707000006c69000063610000f7
:1021ec00746900006f6e00002f6a0000736f0000ae
:1021fc006e2200000d0a0000000000007365000054
:10220c006e7300006f72000000730000656e0000ba
:10221c00736f000072200000636100006c690000a5
:10222c00620d00000a000000737900007374000056
:10223c00656d000000730000797300007465000088
:10224c006d200000636100006c690000620d0000ed
:10225c000a00000067700000727300000063000049
:10226c0068650000636b000020670000707200005e
:10227c00730d00000a0000006e6f0000726d00000c
:10228c00616c000000720000657400007572000043
:10229c006e200000746f0000206e00006f72000052
:1022ac006d6100006c0d00000a000000706f0000f2
:1022bc0073740000007300006d7300000073000065
:1022cc006d73000020660000696e000069730000e9
:1022dc00680000003039000030380000353800004c
:1022ec0036380000353900000077000068610000c6
:1022fc007400000079650000616800000052000065
:10230c0065730000756c0000743a00002025000015
:10231c006400000062650000676900006e20000028
:10232c00706f00007374000020680000747400006b
:10233c00702000000d0a0000006e000061760000a5
:10234c00796f00006e6500002e780000797a00002d
:10235c0000450000727200006f72000020630000e4
:10236c006f6e000066690000674700007072000025
:10237c007300000068740000747000003a2f0000b5
:10238c002f6e000061760000796f00006e65000012
:10239c002e780000797a00002f610000706900002f
:1023ac002f7600003100000061700000706c00009e
:1023bc006963000061740000696f00006e2f0000fb
:1023cc006a7300006f6e0000007b00002261000049
:1023dc0063740000696f00006e2200003a22000056
:1023ec00656d0000626500006464000065640000b7
:1023fc00222c000020220000686100006e640000a6
:10240c006c650000223a000020220000616400008c
:10241c00642200002c200000226400006174000083
:10242c00612200003a7b0000202200006e61000057
:10243c006d650000223a0000202200005465000067
:10244c006d70000065720000617400007572000010
:10245c00652200002c20000022760000616c000038
:10246c00223a000020330000322c00002022000011
:10247c00637200006561000074650000645f000019
:10248c0061740000223a000020220000323000006b
:10249c00313800002d300000392d0000313900009a
:1024ac0020310000303a0000303000003a3000009b
:1024bc00302200007d7d000000000000415400002f
:1024cc000d0a00000041000054450000300d0000d2
:1024dc000a000000415400002b430000504900004a
:1024ec004e3f00000d0a000000410000542b00007c
:1024fc00434d0000474600003d3100000d0a00002e
:10250c0000410000542b00004349000050480000db
:10251c0045410000443d0000310d00000a00000060
:10252c00415400002b43000049500000535200005e
:10253c00495000003d3100000d0a00000041000030
:10254c00542b000043530000545400003d22000063
:10255c00222c0000222200002c220000220d000060
:10256c000a000000415400002b43000049490000c0
:10257c00435200000d0a000000410000542b0000e3
:10258c004349000046530000520d00000a000000b1
:10259c00415400002b4300004950000053540000ec
:1025ac0041520000543d00000d0a000000410000a3
:1025bc00542b0000434900005053000048550000c4
:1025cc00540d00000a000000415400002b43000091
:1025dc0049500000504900004e4700003d220000c9
:1025ec0077770000772e0000676f00006f670000a0
:1025fc006c6500002e6300006f6d0000220d000062
:10260c000a0000006770000072730000206f000069
:10261c006e0d00000a00000067700000727300006d
:10262c00206900006e690000740d00000a000000b3
:10263c004f4b0000007200006561000064790000df
:10264c00207400006f2000006f6e00006c690000a9
:10265c006e6500000d0a0000006700006574000044
:10266c0020690000700d00000a000000636100008a
:10267c006e2000006e6f000074200000636f00007d
:10268c006e6e000065630000740d00000a0000000f
:10269c006f6e00006c6900006e6500002073000016
:1026ac007563000063650000737300000d0a000081
:1026bc0000670000657400002069000070200000b5
:1026cc0061670000616900006e0d00000a000000e7
:1026dc00636100006e6e00006f74000020670000e4
:1026ec006574000020690000700d00000a000000f5
:1026fc0062650000676900006e20000073650000d1
:10270c006e640000207300006d730000200d00004b
:10271c000a000000415400002b4300004d4700000c
:10272c00533d000022000000220d00000a000000b2
:10273c000d0a0000000000004f4b00000d0a0000c5
:10274c000041000054000000415400002b530000d5
:10275c0041500000425200003d3300002c3100007b
:10276c002c220000436f00006e7400007970000092
:10277c00652200002c22000047500000525300003c
:10278c0022000000415400002b5300004150000077
:10279c00425200003d3300002c3100002c2200007e
:1027ac00415000004e2200002c220000762d00002b
:1027bc00696e000074650000726e000065740000a4
:1027cc0022000000415400002b4300004741000050
:1027dc00545400003d31000000410000542b000017
:1027ec005341000050420000523d0000312c0000cb
:1027fc00310000004f4b000000410000542b000042
:10280c005341000050420000523d0000302c0000ab
:10281c0031000000415400002b48000054540000cb
:10282c00504900004e490000540000004154000083
:10283c002b48000054540000505400004552000036
:10284c004d000000415400002b480000545400007f
:10285c005050000041520000413d00002255000044
:10286c00524c0000222c0000222500007322000094
:10287c0000410000542b000048540000545000004c
:10288c0050410000524100003d220000434f000027
:10289c004e540000454e0000542200002c22000033
:1028ac0061700000706c00006963000061740000ce
:1028bc00696f00006e2f00006a7300006f6e0000dd
:1028cc0022000000415400002b480000545400002a
:1028dc005044000041540000413d000025640000bc
:1028ec002c25000064000000415400002b4800001f
:1028fc00545400005041000043540000494f000064
:10290c004e3d000031000000415400002b480000f7
:10291c00545400005041000043540000494f000043
:10292c004e3d000030000000415400002b480000d8
:10293c005454000050520000454100004400000077
:10294c002074000065730000742e00002e2e000011
:10295c002e2e00002e2e00002e2e00002e2e0000fb
:08296c00200d00000a0000002c
:020000040000fa
:102974000000fa0040262900f06088009026290013
:102984000061880000272900106188004026290082
:1029940020618800b0272900306188007028290050
:1029a400406188006029290050618800502a29006c
:1029b40060618800802b290090618800302c2900f8
:1029c400a0618800e02c2900b0618800d02d290086
:1029d400c0618800a02e2900d06188000080fa0020
:1029e400000006000200fa000068ef000000eb009f
:1029f400000f780005003700e08120001e00400031
:102a04008040eb00014878001e0fe80001c8bf00b9
:102a14000000fb009e0f5000f7ff3c000168ef0030
:102a24000080fa00000006000400fa001007980075
:102a34000040eb00004f780000c8bf000004e00035
:102a4400080032009e009000e0812000d4f70700c7
:102a54000000e00002003a0010c0b300004f78000c
:102a6400e0ff07001e4078000080fa000000060026
:102a74000000fa0006c8bf000080fa00000006004b
:102a84000400fa00100798000040eb00004f7800a3
:102a940000c8bf000004e000060032009e00900061
:102aa400e0812000cef7070010c0b300004f78008b
:102ab400ccff07001e4078000080fa0000000600ea
:102ac4000200fa00881f7800e60507000004a2004f
:102ad4000004e0001e00320016050700004f7800d5
:102ae4001e407800fb0507001e407800ea4f5000a6
:102af400030032001e407800ed4f500006003a00fb
:102b040001c8bf000004e0000300320010c0b3009d
:102b140000e8b7000e0037001e407800ff4f500059
:102b24000b003600e0c7b3009e40780080cf500011
:102b340007003e0001c8bf008000fb009e417800f2
:102b4400e281200003f178000040e80001e8b700ca
:102b540070408000e20f500056003200e20f500037
:102b640005003e000000e00008003200e10f5000c4
:102b740027003200f6003700e40f5000b0003200a6
:102b8400e40f500080003900f1003700710c800020
:102b940000022000008060000000e00003003a0012
:102ba4008ea1a8005407070010408800710c800013
:102bb40000022000008060000000e000d900320024
:102bc40011408000f0702200008440004a07070092
:102bd400800f5400040035004707070011408000af
:102be400810f5000d1003d004307070010408800ca
:102bf40010c8bf000004e000020032008030290049
:102c0400bb0507001000200070408800d00037008a
:102c14008ea1a90011408000f070220000844000c1
:102c240035070700800f5400040035003207070001
:102c340011408000810f50000f003d000828ef0074
:102c440068ff070010c8bf000004e0000200320063
:102c540020312900a6050700270707001040880037
:102c64004040800080004000e0c12000008040001f
:102c740010007800b9000700e03129006aff07005e
:102c84000004e000ab003200200020007040880007
:102c940000e224005f0707004040800080004000fd
:102ca400e0c120000080400010007800ab00070065
:102cb400a7003700e03129005bff07000004e000b3
:102cc4001400320010c8bf000004e0000600320007
:102cd4004040800080004000e0c1200000804000af
:102ce4001000780082050700404080000001400089
:102cf400e1c1200081004100910078000000e8005b
:102d0400404088000100780094000700fa0607009c
:102d14001040880040408000e70f50000c00340051
:102d240010c8bf000004e000020032001032290085
:102d34006f050700802b290088000700ee060700b6
:102d44001040880030002000704088008000370068
:102d540011408000f070220000844000e606070065
:102d6400800f540004003500e30607001140800082
:102d7400810f500071003d00df06070010408800fd
:102d84000e28ef0072003700e031290026ff07000b
:102d94000004e0000d00320010c8bf000004e00091
:102da400020032003033290051050700302c29007d
:102db4006a000700d0060700104088000428ef00ce
:102dc40040002000704088006100370011408000fe
:102dd400f07c200000844000c7060700800f5400e8
:102de40004003500c406070011408000810f500024
:102df40007003d00c0060700104088002040800006
:102e04000000e80020408800802b290053000700c0
:102e140021408000c0032000808f5000490034000e
:102e240010c8bf000004e00002003200c0332900d3
:102e34002f0507000e28ef000428ef004400370098
:102e440000c8bf000004e00016003200e08120004a
:102e540090407800a0c3b30080cf500010003c0025
:102e6400e081200090407800e0c2b30080cf5000a1
:102e74000b00340010c8bf000004e0000200320060
:102e8400e03429001a050700d6fe07009a06070059
:102e94001040880070002000704088002c0037002b
:102ea400d0fe070011408000f07c20000084400028
:102eb40091060700800f5400040035008e060700b9
:102ec40011408000810f50000c003d008a0607006d
:102ed40010408800204080000000e8002040880066
:102ee40010c8bf000004e00002003200f0352900e1
:102ef400ff040700302c2900180007002040800040
:102f0400f40f50001100340010c8bf000004e000aa
:102f140002003200e0362900f50407000e28ef0015
:102f24000b0037000000000009003700000000001b
:102f34000700370000000000050037000000000013
:102f4400030037000000000001003700000000000b
:102f54004f0478000080fa00000006000200fa0026
:102f6400000f78001e007800a3f6070080007800a8
:102f74001e007800410407000080fa0000000600eb
:102f84000400fa00000f780011079800e0372900c8
:102f9400d704070000392900f0ff07001e0078005d
:102fa400eeff0700a0392900ecff070040062000cf
:102fb400980607001e009000e8ff0700a0c1b300b8
:102fc40012040700e0392900e4ff07000080fa003a
:102fd400000006000600fa00100798002107980078
:102fe4000000eb00000f7800060037001e00780098
:102ff4009e009000008040008040eb000148780073
:103004001e0fe8002e0090009e007800808f500074
:10301400f6ff35000080fa00000006000800fa0000
:103024001007980021079800320798001e009000ae
:10303400af0407001e009000c8ff07000000eb006b
:10304400000f78000100370000000000100020008d
:10305400700607002e00900073fe07000004e000d5
:103064000200320010c0b300060037001e0fe80053
:103074003e0090009e007800808f5000f2ff3400e4
:103084000040eb000080fa00000006004800fa004f
:103094003027980010002000000f78000000eb009b
:1030a40010079800a0002000200798000b003700ac
:1030b4001e0090000000e80010079800803e2000e9
:1030c400540607009e0090002e009000808f500050
:1030d40002003a0040012000000f7800027d200029
:1030e40061f9280010fa2800ccff07000004a200b0
:1030f4000004e000040032009e0090002e009000c6
:10310400808f5000eaff3900027d2000c1fa2800b8
:1031140010fb2800c1ff07000004a2000004e00027
:103124000200320020002000000f780066004700f3
:10313400be209000811f780011fd2800811f7800b7
:1031440072f60700e487570066004700027d2000fe
:10315400c1fa2800b1ff07000004a2000004e00047
:103164000200320030002000000f78001e007800ba
:103174000080fa00000006000600fa00100020009b
:10318400000f78000000eb0010079800a00020005a
:10319400200798000f0037001e0090000000e80090
:1031a40010079800027d2000c1fa2800b0fe280014
:1031b4009aff07000004a2000004e00003003200ac
:1031c40040002000000f78000200370010002000ab
:1031d400000f7800027d2000a1ff28006000290074
:1031e4008eff07000004a2000004e0000400320087
:1031f4009e0090002e009000808f5000e6ff390062
:10320400027d2000c1fa28005001290083ff070035
:103214000004a2000004e00002003200700020005c
:10322400000f78001e0078000080fa0000000600fd
:103234000200fa0010002000000f7800027d200038
:10324400c1fa28003002290074ff07000004a2001c
:103254000004e0000200320060002000000f78004b
:10326400027d2000c1fa2800200329006bff07001b
:103274000004a2000004e00002003200c0002000ac
:10328400000f78001e0078000080fa00000006009d
:10329400aa00fa0020979800319798004297980066
:1032a4002e9090002e000700000f7800007122007d
:1032b400100798003e909000cff50700800078003a
:1032c4006400470002712200821f7800811f780089
:1032d40001042900811f78000cf60700e6875700d7
:1032e40064004700027d2000410529004bff0700d0
:1032f4000004a2000004e00002003200e00020000c
:10330400000f7800401f2000c20507003e90900087
:1033140012ff07001e00900000017800d10529006b
:10332400300629003dff07000004e00007003200da
:103334004007290009ff07004e9090004b0007004a
:1033440010002000000f780002003700d000200099
:10335400000f78001e0078000080fa0000000600cc
:103364008600fa0020879800027d2000c1fa280018
:103374002008290029ff07000004a2000004e0003f
:103384000200320080002000000f78006300470034
:10339400ae809000811f780081092900811f780088
:1033a400daf50700e487570063004700027d200038
:1033b400c1fa280019ff07000004a2000004e0007d
:1033c4000200320090002000000f780082002000ec
:1033d400ae809000100b29008df5070000f0a700c7
:1033e4000000ea000000e9004f00de0020479800da
:1033f4002e4090000004e00002003200a00b2900df
:1034040001003700900c2900027d2000c1fa280039
:1034140002ff07000004a2000004e00007003200dd
:103424002e4090000004e000020032002001200041
:103434000100370030012000000f7800027d2000d9
:10344400c1fa2800800d2900f4fe07000004a20040
:103454000004e00002003200f0002000000f7800b9
:103464001e0078000080fa00000006008200fa00c6
:1034740000879800010820000e007800d5fe0700a0
:10348400210020000e809000d2fe07000e0078007c
:103494007bfd07000004e000040032000e81900070
:1034a400010820000e007800020007000080fa00e6
:1034b400000006001200fa006007980071079800e7
:1034c400020f98000000eb00000f78000000eb00f2
:1034d400100798000e0037001e009000ee009000c8
:1034e4000080400090407800214f9800ae48900042
:1034f400b0c7b30080cf500002003a009e00900095
:10350400010f78001e0090000000e80010079800ea
:103514009e0090007e0090000000e900808f500023
:10352400030031001e0078000000e000eaff3200d2
:103534000000eb00200798007e0090000000e900e6
:10354400300798000e0037003e009000ee00900017
:103554000080400090407800314f9800be489000b1
:10356400d0c7b30080cf500002003a00be009000e4
:10357400210798003e0090000000e9003007980001
:103584003e0090000000e000030035002e00900093
:103594000000e000ecff32000000eb004007980060
:1035a400120037004e0090008e089000008040000a
:1035b400ce0090009e8040006e019000810041008a
:1035c40091407800014878004e0090000000e80027
:1035d4008e089000008040008040eb000148780095
:1035e4004e0090000000e800400798002e00900074
:1035f4001e0050008080e8004e009000808f500034
:10360400e8ff3c000080fa00000006000400fa0015
:10361400000f7800110798009e0090001e007800ab
:103624000ff507000000e0000200320010c0b300f4
:10363400010037000040eb000080fa0000000600a3
:103644000200fa00000f7800027d2000213a2900d0
:10365400703a2900df0007000004a2000004e00023
:10366400020032000040eb001c003700027d200005
:10367400213a2900a03a2900d60007000004a2003c
:103684000004e000020032000040eb0013003700a9
:10369400027d2000213a2900803c2900cd0007004a
:1036a4000004a2000004e000020032000040eb002d
:1036b4000a003700027d2000213a2900803e2900bb
:1036c400c40007000004a2000004e000020032006d
:1036d4000040eb000100370010c0b3000080fa0086
:1036e400000006000400fa001cc8bf000004e0004b
:1036f400020032000040eb0012003700303f290086
:10370400000f78001e00780014fe0700cd000700ab
:1037140010079800014029001e009000bbff07001d
:103724000004e0000400320010c0b3001ce8b7003d
:1037340010c0b30003003700c05d2000b5040700cb
:103744000040eb000080fa00000006000400fa00cc
:103754001cc8bf000004a2000004e0000200320004
:103764000040eb000f00370030402900000f7800c4
:103774001e007800f9fd0700b2000700100798004a
:10378400014029001e009000a0ff07000004e00093
:10379400030032001c68ef0010c0b30001003700c2
:1037a4000040eb000080fa00000006000400fa006c
:1037b4001dc8bf000004e000020032000040eb001e
:1037c4001000370000412900000f78001e00780027
:1037d400e2fd07009b000700100798000140290044
:1037e4001e00900089ff07000004e000040032007e
:1037f40010c0b3001de8b70010c0b30001003700cb
:103804000040eb000080fa00000006000200fa000d
:10381400c0412900d1fd07008a000700000f78008d
:10382400014029001e00780078ff07000004e00032
:10383400030032001d68ef0010c0b3000100370020
:103844000040eb000080fa00000006008200fa004d
:10385400008798008e809000811f780080422900a4
:10386400801f78000e007800a8f40700e487570052
:10387400027d2000213a29000e007800550007003f
:103884000004a2000004e000020032000040eb004b
:103894000100370010c0b3000080fa0000000600e9
:1038a4002801fa0020179900311799006400470095
:1038b400be109100811f7800f1432900811f780018
:1038c40092f40700e487570064004700027d20005b
:1038d400213a29003f0007000004a2000004e00090
:1038e400020032000040eb001d003700007122008e
:1038f400000f78002e1091003ff40700800078003c
:10390400400820000e00400002712200821f78004f
:10391400811f780081462900811f78007bf407000d
:10392400e6875700400820000e004000027d20007a
:10393400213a2900270007000004a2000004e00047
:10394400020032000040eb00050037002e10910009
:1039540082fd07003b0007001007980010c0b30069
:103964000080fa00000006000200fa00a0472900c7
:103974007afd070033000700000f7800014029009a
:103984001e00780021ff07000004e000020032005e
:103994002c000700000f780010c0b3000080fa006c
:1039a400000006000200fa00a04829006bfd070091
:1039b40024000700000f7800a049290067fd0700d4
:1039c40020000700000f78001e0078000080fa0035
:1039d400000006000800fa0010079800210798006c
:1039e400320798001e0090005cfd07001e00900046
:1039f4003f0207000000eb00000f780001003700d1
:103a04000000000010002000020407002e009000b7
:103a140005fc07000004e0000200320010c0b300ff
:103a2400060037001e0fe8003e0090009e0078005c
:103a3400808f5000f2ff34000040eb000080fa0059
:103a440000000600a000fa000e0078000cfc07003d
:103a54000e0078000080fa00000006000000fa0062
:103a640080002000002888000225ef00f0052000d7
:103a7400402888000a25ef000c25ef000e25ef00f2
:103a84001025ef001225ef001425ef009560a80023
:103a940001e5a8000345a80080ca2000206588002d
:103aa40080ca200010658800e0d0200000658800ee
:103ab400e0d02000f0648800306580000010a00091
:103ac40030658800306580000090a0003065880073
:103ad40031658000f0ef2f000080600030658800c1
:103ae40031658000e0ff2f000080600030658800b1
:103af4000080fa00000006000200fa000040eb001b
:103b0400004f780000658000104f78000065800049
:103b14000000e800006588000165800040d72000af
:103b2400808f500002003a00e0d020000065880039
:103b340001658000f0648000808f500003003a002b
:103b4400306580000010a000306588003165800079
:103b5400e0ff2f0000806000306588001e40780080
:103b64000080fa00000006000600fa00881f7800b2
:103b740010079800210798000000eb00000f780060
:103b84000900370030658000620060000000e0003a
:103b94000a003a001e0090001e044000d6ff0700f1
:103ba400004c78001e0fe8002e0090009e00780064
:103bb400808f5000f3ff390001003700000000003f
:103bc4001e0078004f0478000080fa000000060010
:103bd4000200fa00004f78009580a900106580006b
:103be4001e487800106580000000e8001065880019
:103bf40011658000e0d02000808f500002003a0060
:103c040080ca20001065880031658000f0df2f0035
:103c140000806000306588002165800010658000a8
:103c2400808f500003003a00306580000080a000bf
:103c3400306588009580a8000080fa000000060026
:103c44000600fa0010079800210798000000eb0016
:103c5400000f78000a003700316580000010200052
:103c6400008060000000e0000a003a001e0090009e
:103c74001e004000104078001e0fe800d4ff07002b
:103c84002e0090009e007800808f5000f2ff3900d3
:103c940001003700000000001e0078000080fa00d8
:103ca400000006000200fa000000eb00000f78009c
:103cb4003165800000102000008060000000e000fa
:103cc400010032001e30a000316580000020200079
:103cd400008060000000e000010032001e40a000ef
:103ce40030658000610060000000e00001003200e7
:103cf4001e00a00030658000620060000000e0004b
:103d0400020032001e20a000010037001e10a00097
:103d14001e0078000080fa00000006000200fa008d
:103d2400000f7800006580009e00400040d720000e
:103d3400808f500008003600006580009e0040001f
:103d440040d720000000ea0000804000e1d02000bd
:103d54006140780003003700006580001e004000c9
:103d6400104078000080fa00000006000000fa000d
:103d740030658000610060000000e0000f003a0040
:103d840001658000f0648000808f500005003600db
:103d94000065800080007800f0648000008050009e
:103da400070037000065800080007800f064800020
:103db400008050006006b000010037000000eb00f6
:103dc4000080fa00000006000000fa00316580005f
:103dd40000102000008060000000e0000f003a00a6
:103de4002165800010658000808f5000050036003a
:103df40020658000800078001065800000805000fd
:103e0400070037002065800080007800106580007e
:103e1400008050006006b000010037000000eb0095
:103e24000080fa00000006000000fa0030658000ff
:103e34000000d100614060000080fb0000f0a7009a
:103e44000000ea000000ea004f00de0000407800b5
:103e54000080fa00000006000000fa0030658000cf
:103e64004800de00614060000080fb0000f0a70015
:103e74000000ea000000ea004f00de000040780085
:103e84000080fa00000006000000fa0010288000fc
:103e94000080fa00000006000000fa008000200004
:103ea400b02888001825ef00f0052000f0288800cd
:103eb4002025ef002225ef002425ef002625ef0022
:103ec4002825ef002a25ef0097c0a80017e5a800d1
:103ed4001945a800e0d72000d06b8800e0d7200067
:103ee400c06b880040de2000b06b880040de2000fc
:103ef400a06b8800e06b80000010a000e06b8800dd
:103f0400e06b80000090a000e06b8800e16b800013
:103f1400f0ef2f0000806000e06b8800e16b800010
:103f2400e0ff2f0000806000e06b88000080fa0052
:103f3400000006000200fa000040eb00004f780089
:103f4400b06b8000104f7800b06b80000000e80078
:103f5400b06b8800b16b8000a0e42000808f50001b
:103f640002003a0040de2000b06b8800b16b800094
:103f7400a06b8000808f500003003a00e06b80004b
:103f84000010a000e06b8800e16b8000e0ff2f00d0
:103f940000806000e06b88001e4078000080fa001a
:103fa400000006000600fa00881f78001007980039
:103fb400210798000000eb00000f7800090037008b
:103fc400e06b8000620060000000e0000a003a003c
:103fd4001e0090001e044000d6ff0700004c78002d
:103fe4001e0fe8002e0090009e007800808f500085
:103ff400f3ff390001003700000000001e007800c4
:104004004f0478000080fa00000006000200fa0065
:10401400004f780097e0a900c06b80001e4878002c
:10402400c06b80000000e800c06b8800c16b80009a
:1040340040de2000808f500002003a00e0d72000cc
:10404400c06b8800e16b8000f0df2f00008060000f
:10405400e06b8800d16b8000c06b8000808f5000c3
:1040640003003a00e06b80000080a000e06b880051
:1040740097e0a8000080fa00000006000600fa009d
:1040840010079800210798000000eb00000f78004b
:104094000a003700e16b80000010200000806000ff
:1040a4000000e0000a003a001e0090001e004000dc
:1040b400104078001e0fe800d4ff07002e00900087
:1040c4009e007800808f5000f2ff39000100370015
:1040d400000000001e0078000080fa0000000600c6
:1040e4000200fa000000eb00000f7800e16b800092
:1040f40000102000008060000000e0000100320099
:104104001e30a000e16b80000020200000806000d1
:104114000000e000010032001e40a000e06b8000bf
:10412400610060000000e000010032001e00a000f9
:10413400e06b8000620060000000e00002003200da
:104144001e20a000010037001e10a0001e007800f1
:104154000080fa00000006000200fa00000f780058
:10416400b06b80009e004000a0e42000808f5000cf
:1041740008003600b06b80009e004000a0e42000e0
:104184000000ea000080400041de20006140780029
:1041940003003700b06b80001e0040001040780020
:1041a4000080fa00000006000000fa00e06b8000c6
:1041b400610060000000e0000f003a00b16b800075
:1041c400a06b8000808f500005003600b06b80002b
:1041d40080007800a06b800000805000070037004a
:1041e400b06b800080007800a06b800000805000dd
:1041f4006006b000010037000000eb000080fa0008
:10420400000006000000fa00e16b800000102000ae
:10421400008060000000e0000f003a00d16b8000d5
:10422400c06b8000808f500005003600d06b80008a
:1042340080007800c06b80000080500007003700c9
:10424400d06b800080007800c06b8000008050003c
:104254006006b000010037000000eb000080fa00a7
:10426400000006000000fa00e06b80000000d100ae
:10427400614060000080fb0000f0a7000000ea003d
:104284000000ea004f00de00004078000080fa00e1
:10429400000006000000fa00e06b80004800de0029
:1042a400614060000080fb0000f0a7000000ea000d
:1042b4000000ea004f00de00004078000080fa00b1
:1042c400000006000000fa00c02880000080fa0008
:1042d400000006000200fa00004f78008421a800c4
:1042e4001e4078003afe07000080fa000000060035
:1042f4000200fa00000f78008421a8001e00780054
:10430400bdf10700800078001e0078004cfe070015
:104314000080fa00000006000400fa001128800062
:1043240000102000008060000000e0000100320066
:104334008421a900bcfe07000004a2000004e000e0
:104344001c003200ecfd0700204798002e4090002e
:10435400ea4f5000030032002e409000ed4f500011
:1043640006003a0013c8bf000004e0000300320056
:1043740010c0b30012e8b7000e0037002e409000c2
:10438400ff4f50000b003400ae409000f0c7b30064
:1043940080cf50000700320013c8bf008000fb002c
:1043a400a2e42000ae41900003f178000040e80050
:1043b40013e8b70012c8bf000004e0005d0032003b
:1043c4001268ef0041102900a0e4200074f10700f6
:1043d4000000e00005003a0020002000a040880012
:1043e400b0102900c2ff070045003700a1112900c1
:1043f400a0e420006af107000000e00005003a0094
:1044040020002000a040880010122900b8ff0700f7
:104414003b00370001132900a0e4200060f10700ed
:104424000000e00005003a0010002000a0408800d1
:1044340050132900aeff0700310037002114290072
:10444400a0e4200056f107000000e00004003a0058
:104454001428ef0090142900a5ff07002800370056
:10446400c1152900a0e420004df107000000e00080
:1044740002003a003e00070021003700111629000f
:10448400a0e4200046f107000000e00004003a0028
:104494005116290000172900b9fa0700180037003f
:1044a400a0408000e10f50000d003200e10f5000e9
:1044b40012003100b1172900a0e4200038f10700f0
:1044c4000000e00003003a000018290088ff0700fc
:1044d4000b003700a0e4200085ff07000800370028
:1044e400a0e420009dfa0700d0c0b300c7fe070077
:1044f400a0c0b300c5fe07000100370000000000a3
:104504000000eb00000f780005003700a0e4200055
:104514001e0040008040eb00014878001e0fe800b8
:1045240013c8bf000000fb009e0f5000f7ff3c00c3
:104534001368ef000080fa00000006005200fa0041
:10454400002f98008e289000811f780050182900b1
:10455400801f78000e0078006cf10700e487570094
:104564000e00780062ff07000080fa0000000600d9
:104574000000fa00001929005dff0700301a290025
:104584002ffc07000004a2000004e0000200320037
:10459400f01a290056ff070052fc07006bfc0700c5
:1045a40082fc0700001c2900a8fc0700a11d2900ab
:1045b400b01e2900bafc0700ebfc07000080fa00db
:1045c400000006000000fa0040472800001188009f
:1045d400004020001011880090a0200020118800c5
:1045e4002822ef002a22ef00000820006011880032
:1045f4009e21ef00101180004200de007f40600029
:1046040018e8b7000080fa00000006000000fa0075
:104614002022a8000080fa00000006000000fa0032
:104624002022a9000080fa00000006000600fa001b
:104634002007980000202000100798000000eb00dd
:10464400000f78000b0037001e00780000004000c7
:10465400ae009000008040009e0090009100780021
:10466400010878001e0090000080e8001007980000
:104674001e0fe80018c8bf000080fb009e0f50000a
:10468400f1ff3d001e0078000080fa0000000600e3
:104694000000fa00001080000080fa00000006000c
:1046a4000000fa00001180000040780061406000c2
:1046b4000080fb0000f0a7000000ea000000ea0010
:1046c4004f00de00004078000080fa000000060081
:1046d4000200fa00000f78009e0078004111880063
:1046e4000080fa00000006000000fa0085a0a9007e
:0846f4000080fa00000006003e
:020000040000fa
:1046fc009e0c0000d6000000800000000c0f000093
:10470c0020000000800000001608000002000000dd
:10471c0082000000ffff00000a08000004000000f7
:10472c0080000000740d0000d60000008000000026
:10473c001808000002000000800000001e080000a5
:10474c008004000080000000000800000a00000047
:10475c00800000000e080000040000008200000031
:10476c0001000100000000001a0800000200000017
:10477c00800000004a0e0000a00000008000000035
:10478c001208000004000000800000001c0800005b
:10479c0002000000800000002c0f00001a00000036
:1047ac0082000000686a6c00747a4c000000010002
:1047bc0000020000040008000010000000002000af
:1047cc002b2d230030000000ea0e00002200000018
:1047dc008200000030313200333435003637380077
:1047ec003941420043444500460030003132330029
:1047fc003435360037383900616263006465660011
:08480c000000000000000000a4
:020000040000fa
:104814000000fa004c22ef0070e6200070128800bd
:1048240000002800801288008460a9009460a80019
:104834000a68ef000080fa00000006000200fa0097
:10484400000f78009e007800711288000a68ef005b
:104854000080fa00000006000000fa0070128000d8
:104864000080fa00000006000200fa00000f780041
:104874009e007800611288000a68ef000080fa0048
:10488400000006000000fa00601280000080fa00b8
:10489400000006000000fa000080fa000000060094
:1048a4000000fa000a68ef009460a80051e2a80032
:1048b4000080fa00000006000000fa0051e2a9009e
:1048c4009460a9000080fa00000006000200fa00cb
:1048d400a180200091407800014f78001e407800ac
:1048e4000004e000010032000a68ef001e40780076
:1048f4000080fa00000006000000fa00604080001a
:104904000080fa00000006000000fa000c28ef0006
:104914000080fa00000006000000fa0030002000c9
:10492400200c8800000a2000700c8800c0002000c1
:10493400000c8800f0f02e00500c88005620ef0088
:104944005820ef005a20ef006e20ef007020ef0097
:104954007220ef008621ef0000022000800c880006
:1049640080002000400c8800e0202e00900c88007d
:1049740001088000f00b200000816000600420002a
:1049840071052000031020008049780081497800d7
:1049940082497800e11e8000f00f2c0080806000c6
:1049a4000050200001007000e01e8800811d80007e
:1049b40000fc2f0000806000801d8800d11e800054
:1049c400f00f2c0080806000003020000100700097
:1049d400d01e8800911d800000fc2f000080600024
:1049e4000030a000901d88000008800000017800bd
:1049f4000260a00060042000710520000310200064
:104a04008049780081497800824978000080fa0062
:104a1400000006000400fa0010079800b6ff070023
:104a2400000f780000000000b3ff07009e00900014
:104a34009e804000810f5000fbff35000080fa008b
:104a4400000006000000fa000080fa0000000600e2
:104a54000000fa00881f7800d0408000783e2000d3
:104a640000044400a4ff0700800f54000400350034
:104a7400a1ff0700d1408000810f50000f003d00ce
:104a84009dff0700d0408800700c80004600de00c7
:104a9400614060000004a200614060000080fb00ef
:104aa400610060004600dd00720c8000f1fb2f0005
:104ab4008100610001007000700c88004f047800d0
:104ac4000080fa0000000600ca00fa00881f78007f
:104ad400dcff0700a6f707000e80e8004201200073
:104ae400614a2900a7ef07000e80e80000fe0700d6
:104af40080bb2000c7ff07000000eb00000f780018
:104b04007dff0700f1702200810f50000100340086
:104b14007dff0700713e20001e84400076ff0700e1
:104b2400800f54000300350073ff07009e0f5000f0
:104b34000f003d0070ff0700000f7800700c80002c
:104b44004600de00614060000004a2006140600095
:104b54000080fb00610060004600dd00720c8000f4
:104b6400f1fb2f008100610001007000700c8800cf
:104b7400e9fd0700d2f70700e1ff37000000fa0063
:104b840021068000f08f2f00008060000080a000cc
:104b94002006880091058000f0ff28000080600056
:104ba40000c0a0009005880091058000f08f2f00c0
:104bb400008060000080a00090058800210680002d
:104bc400f0f82f00008060000040a000200688005c
:104bd4005105800080ff2f00008060000000a000cd
:104be4005005880041058000f0ff28000080600027
:104bf40000c0a0004005880021058000f0ff2800c7
:104c04000080600000c0a000200588000080fa0039
:104c1400000006000000fa003fff0700070007003d
:104c2400d6ff07009cfc07008cfb070065fe07000d
:104c3400f7fe07000080fa00000006000000fa00fa
:104c440022002000600420007105200003102000d1
:104c54008049780081497800824978000010230057
:104c64001008880000002800300888006821ef0040
:104c74006a21ef006c21ef000821ef000080fa00a8
:104c840000000600000f78009e007800b140880004
:104c9400ffff37000000fa00c0f020008007780012
:104ca40040f22000000188000080fa0000000600a5
:104cb4000000fa00d7ff070083ff0700feff37005c
:020000040000fa
:020000040002f8
:04aff000ffff00005f
:020000040000fa
:020000040002f8
:04aff400ffff00005b
:020000040000fa
:020000040002f8
:04aff8003dba00005e
:020000040000fa
:020000040002f8
:04affc003f3e0000d4
:00000001FF
