:020000040000fa
:080000000002040000000000f2
:020000040000fa
:0400080004030000ed
:020000040000fa
:04000c00ba11000025
:020000040000fa
:04001000cc1100000f
:020000040000fa
:04001400c211000015
:020000040000fa
:04001800d4110000ff
:020000040000fa
:04001c0004030000d9
:020000040000fa
:0400200004030000d5
:020000040000fa
:0400240004030000d1
:020000040000fa
:0400280004030000cd
:020000040000fa
:04002c0004030000c9
:020000040000fa
:0400300004030000c5
:020000040000fa
:04003400aa0e000010
:020000040000fa
:0400380004030000bd
:020000040000fa
:04003c0004030000b9
:020000040000fa
:0400400004030000b5
:020000040000fa
:0400440004030000b1
:020000040000fa
:0400480004030000ad
:020000040000fa
:04004c0004030000a9
:020000040000fa
:0400500004030000a5
:020000040000fa
:040054007e08000022
:020000040000fa
:040058002808000074
:020000040000fa
:04005c000403000099
:020000040000fa
:040060000403000095
:020000040000fa
:040064000403000091
:020000040000fa
:04006800040300008d
:020000040000fa
:04006c000403000089
:020000040000fa
:040070000403000085
:020000040000fa
:040074000403000081
:020000040000fa
:04007800040300007d
:020000040000fa
:04007c000403000079
:020000040000fa
:040080000403000075
:020000040000fa
:040084000403000071
:020000040000fa
:04008800040300006d
:020000040000fa
:04008c000403000069
:020000040000fa
:040090000403000065
:020000040000fa
:040094000403000061
:020000040000fa
:04009800040300005d
:020000040000fa
:04009c000403000059
:020000040000fa
:0400a000460b00000b
:020000040000fa
:0400a400f00a00005e
:020000040000fa
:0400a800040300004d
:020000040000fa
:0400ac000403000049
:020000040000fa
:0400b0000403000045
:020000040000fa
:0400b4000403000041
:020000040000fa
:0400b800040300003d
:020000040000fa
:0400bc000403000039
:020000040000fa
:0400c0000403000035
:020000040000fa
:0400c4000403000031
:020000040000fa
:0400c800040300002d
:020000040000fa
:0400cc000403000029
:020000040000fa
:0400d0000403000025
:020000040000fa
:0400d4000403000021
:020000040000fa
:0400d800040300001d
:020000040000fa
:0400dc000403000019
:020000040000fa
:0400e0000403000015
:020000040000fa
:0400e4000403000011
:020000040000fa
:0400e800040300000d
:020000040000fa
:0400ec000403000009
:020000040000fa
:0400f0000403000005
:020000040000fa
:0400f4000403000001
:020000040000fa
:0400f80004030000fd
:020000040000fa
:0400fc0004030000f9
:020000040000fa
:0401000004030000f4
:020000040000fa
:0401040004030000f0
:020000040000fa
:0401080004030000ec
:020000040000fa
:04010c0004030000e8
:020000040000fa
:0401100004030000e4
:020000040000fa
:0401140004030000e0
:020000040000fa
:0401180004030000dc
:020000040000fa
:04011c0004030000d8
:020000040000fa
:0401200004030000d4
:020000040000fa
:0401240004030000d0
:020000040000fa
:0401280004030000cc
:020000040000fa
:04012c00c408000003
:020000040000fa
:040130008c0b000034
:020000040000fa
:0401340004030000c0
:020000040000fa
:0401380004030000bc
:020000040000fa
:04013c0004030000b8
:020000040000fa
:0401400004030000b4
:020000040000fa
:0401440004030000b0
:020000040000fa
:0401480004030000ac
:020000040000fa
:04014c0004030000a8
:020000040000fa
:0401500004030000a4
:020000040000fa
:0401540004030000a0
:020000040000fa
:04015800040300009c
:020000040000fa
:04015c000403000098
:020000040000fa
:040160000403000094
:020000040000fa
:040164000403000090
:020000040000fa
:04016800040300008c
:020000040000fa
:04016c000403000088
:020000040000fa
:040170000403000084
:020000040000fa
:040174000403000080
:020000040000fa
:04017800040300007c
:020000040000fa
:04017c000403000078
:020000040000fa
:040180000403000074
:020000040000fa
:040184000403000070
:020000040000fa
:04018800040300006c
:020000040000fa
:04018c000403000068
:020000040000fa
:040190000403000064
:020000040000fa
:040194000403000060
:020000040000fa
:04019800040300005c
:020000040000fa
:04019c000403000058
:020000040000fa
:0401a0000403000054
:020000040000fa
:0401a4000403000050
:020000040000fa
:0401a800040300004c
:020000040000fa
:0401ac000403000048
:020000040000fa
:0401b0000403000044
:020000040000fa
:0401b4000403000040
:020000040000fa
:0401b800040300003c
:020000040000fa
:0401bc000403000038
:020000040000fa
:0401c0000403000034
:020000040000fa
:0401c4000403000030
:020000040000fa
:0401c800040300002c
:020000040000fa
:0401cc000403000028
:020000040000fa
:0401d0000403000024
:020000040000fa
:0401d4000403000020
:020000040000fa
:0401d800040300001c
:020000040000fa
:0401dc000403000018
:020000040000fa
:0401e0000403000014
:020000040000fa
:0401e4000403000010
:020000040000fa
:0401e800040300000c
:020000040000fa
:0401ec000403000008
:020000040000fa
:0401f0000403000004
:020000040000fa
:0401f4000403000000
:020000040000fa
:0401f80004030000fc
:020000040000fa
:0401fc0004030000f8
:020000040000fa
:0402080004030000eb
:020000040000fa
:04020c0004030000e7
:020000040000fa
:0402100004030000e3
:020000040000fa
:0402140004030000df
:020000040000fa
:0402180004030000db
:020000040000fa
:04021c0004030000d7
:020000040000fa
:0402200004030000d3
:020000040000fa
:0402240004030000cf
:020000040000fa
:0402280004030000cb
:020000040000fa
:04022c0004030000c7
:020000040000fa
:0402300004030000c3
:020000040000fa
:0402340004030000bf
:020000040000fa
:0402380004030000bb
:020000040000fa
:04023c0004030000b7
:020000040000fa
:0402400004030000b3
:020000040000fa
:0402440004030000af
:020000040000fa
:0402480004030000ab
:020000040000fa
:04024c0004030000a7
:020000040000fa
:0402500004030000a3
:020000040000fa
:04025400040300009f
:020000040000fa
:04025800040300009b
:020000040000fa
:04025c000403000097
:020000040000fa
:040260000403000093
:020000040000fa
:04026400040300008f
:020000040000fa
:04026800040300008b
:020000040000fa
:04026c000403000087
:020000040000fa
:040270000403000083
:020000040000fa
:04027400040300007f
:020000040000fa
:04027800040300007b
:020000040000fa
:04027c000403000077
:020000040000fa
:040280000403000073
:020000040000fa
:04028400040300006f
:020000040000fa
:04028800040300006b
:020000040000fa
:04028c000403000067
:020000040000fa
:040290000403000063
:020000040000fa
:04029400040300005f
:020000040000fa
:04029800040300005b
:020000040000fa
:04029c000403000057
:020000040000fa
:0402a0000403000053
:020000040000fa
:0402a400040300004f
:020000040000fa
:0402a800040300004b
:020000040000fa
:0402ac000403000047
:020000040000fa
:0402b0000403000043
:020000040000fa
:0402b400040300003f
:020000040000fa
:0402b800040300003b
:020000040000fa
:0402bc000403000037
:020000040000fa
:0402c0000403000033
:020000040000fa
:0402c400040300002f
:020000040000fa
:0402c800040300002b
:020000040000fa
:0402cc000403000027
:020000040000fa
:0402d0000403000023
:020000040000fa
:0402d400040300001f
:020000040000fa
:0402d800040300001b
:020000040000fa
:0402dc000403000017
:020000040000fa
:0402e0000403000013
:020000040000fa
:0402e400040300000f
:020000040000fa
:0402e800040300000b
:020000040000fa
:0402ec000403000007
:020000040000fa
:0402f0000403000003
:020000040000fa
:0402f40004030000ff
:020000040000fa
:0402f80004030000fb
:020000040000fa
:0402fc0004030000f7
:020000040000fa
:0403000004030000f2
:020000040000fa
:0403040004030000ee
:020000040000fa
:0403080004030000ea
:020000040000fa
:04030c0004030000e6
:020000040000fa
:0403100004030000e2
:020000040000fa
:0403140004030000de
:020000040000fa
:0403180004030000da
:020000040000fa
:04031c0004030000d6
:020000040000fa
:0403200004030000d2
:020000040000fa
:0403240004030000ce
:020000040000fa
:0403280004030000ca
:020000040000fa
:04032c0004030000c6
:020000040000fa
:0403300004030000c2
:020000040000fa
:0403340004030000be
:020000040000fa
:0403380004030000ba
:020000040000fa
:04033c0004030000b6
:020000040000fa
:0403400004030000b2
:020000040000fa
:0403440004030000ae
:020000040000fa
:0403480004030000aa
:020000040000fa
:04034c0004030000a6
:020000040000fa
:0403500004030000a2
:020000040000fa
:04035400040300009e
:020000040000fa
:04035800040300009a
:020000040000fa
:04035c000403000096
:020000040000fa
:040360000403000092
:020000040000fa
:04036400040300008e
:020000040000fa
:04036800040300008a
:020000040000fa
:04036c000403000086
:020000040000fa
:040370000403000082
:020000040000fa
:04037400040300007e
:020000040000fa
:04037800040300007a
:020000040000fa
:04037c000403000076
:020000040000fa
:040380000403000072
:020000040000fa
:04038400040300006e
:020000040000fa
:04038800040300006a
:020000040000fa
:04038c000403000066
:020000040000fa
:040390000403000062
:020000040000fa
:04039400040300005e
:020000040000fa
:04039800040300005a
:020000040000fa
:04039c000403000056
:020000040000fa
:0403a0000403000052
:020000040000fa
:0403a400040300004e
:020000040000fa
:0403a800040300004a
:020000040000fa
:0403ac000403000046
:020000040000fa
:0403b0000403000042
:020000040000fa
:0403b400040300003e
:020000040000fa
:0403b800040300003a
:020000040000fa
:0403bc000403000036
:020000040000fa
:0403c0000403000032
:020000040000fa
:0403c400040300002e
:020000040000fa
:0403c800040300002a
:020000040000fa
:0403cc000403000026
:020000040000fa
:0403d0000403000022
:020000040000fa
:0403d400040300001e
:020000040000fa
:0403d800040300001a
:020000040000fa
:0403dc000403000016
:020000040000fa
:0403e0000403000012
:020000040000fa
:0403e400040300000e
:020000040000fa
:0403e800040300000a
:020000040000fa
:0403ec000403000006
:020000040000fa
:0403f0000403000002
:020000040000fa
:0403f40004030000fe
:020000040000fa
:0403f80004030000fa
:020000040000fa
:0403fc0004030000f6
:020000040000fa
:100400008fad20000e7f22000e018800000000004a
:10041000000020000000e000020032000001200087
:100420002002880014000700790007000000e000a7
:1004300003003a0080102100010020000200370074
:100440000000200001002000810f70000100320038
:1004500014000700000020000000e000020032004d
:100460000000020000000000141202000000000062
:100470000040da000000fe004440a900c01c20003b
:100480000000e000030032000020200090018800fe
:100490004440a800000006008a1f78008b1f7800e7
:1004a00000000600a1028800800478000000eb0034
:1004b0001f003700e284440054a0b4009905ba003c
:1004c000e284440054a0b4009906ba00e2844400d7
:1004d00054a0b4000006eb00476fde00fd07b20039
:1004e000ae018800636ce10003003a00eaff0700f8
:1004f0000000eb000e003700606ce10008003a00dd
:10050000004deb000a05e800020039003420ec0041
:100510000af0a0008b05e900f9ff3e000400370057
:100520006168e100010032000086eb000b0007006b
:1005300019c7ba001905ba000e04e00003003a001a
:100540000a00e000dbff3a0000000600fe07b200f0
:10055000ae0288008a047800f5ff37000cd0a300b3
:10056000e20f4d001c00390089027800354dba00b9
:100570000a05e800020039003420ec000af0a0006f
:100580008b05e9000f003200254dba000a05e8008e
:10059000020039003420ec000af0a0008b05e900cd
:1005a000080032000c00e0000600320015cdba0051
:1005b0000a05e800020039003420ec000af0a0002f
:1005c0008b05e9008984e80054a0b4000b00e0002a
:1005d000e2ff3a00000006009902ba00055d7800cb
:1005e0008b05e900f7ff3200c82ade00055d7800c0
:1005f0008b05e900f3ff32000c00e000f1ff320050
:1006000019ddba00eeff37000040da000000fe00fe
:10061000000005008001780002003700b159780021
:100620000201e9000200e000fcff3a0000000600c1
:10063000020037000204e0000b0032008101780064
:100640000002780030417800b14f5100f9ff3200cc
:100650001000200014427800934f52000300310034
:100660000080eb00000006000000eb000000060028
:1006700080007800010178003104e000fdff3a00bd
:0806800000005100000006001b
:020000040000fa
:10068800415400000d0a00000041000054450000dc
:10069800300d00000a000000415400002b43000008
:1006a800504900004e3f00000d0a000000410000c4
:1006b800542b0000434d0000474600003d31000028
:1006c8000d0a000000410000542b000043490000bf
:1006d8005048000045410000443d0000310d000035
:1006e8000a000000415400002b430000495000005c
:1006f80053520000495000003d3100000d0a00002f
:1007080000410000542b00004353000054540000e3
:100718003d2200006d5f000077610000702200003c
:100728002c2200006d6d0000732200002c220000b6
:100738006d6d0000732200000d0a000000410000ea
:10074800542b00004349000049430000520d0000ab
:100758000a000000415400002b43000049460000f5
:10076800535200000d0a000000410000542b000005
:100778004349000050530000544100005254000007
:100788003d0d00000a000000415400002b4300000a
:100798004950000053480000555400000d0a00005d
:1007a80000410000542b0000434900005050000055
:1007b800494e0000473d000022770000777700008f
:1007c8002e6700006f6f0000676c0000652e000048
:1007d800636f00006d2200000d0a00000067000032
:1007e80070720000732000006f6e00000d0a000098
:1007f800006700007072000073200000696e00003e
:10080800697400000d0a00000072000065610000b4
:1008180064790000207400006f2000006f6e0000f3
:100828006c6900006e6500000d0a0000006700009a
:100838006574000020690000700d00000a000000c7
:10084800636100006e2000006e6f000074200000dd
:10085800636f00006e6e000065630000740d000099
:100868000a0000006f6e00006c6900006e650000f1
:100878002073000075630000636500007373000057
:100888000d0a000000670000657400002069000080
:100898007020000061670000616900006e0d0000b3
:1008a8000a000000636100006e6e00006f740000b3
:1008b800206700006574000020690000700d0000ca
:1008c8000a0000004f4b0000004500005252000093
:1008d8004f52000000410000542b0000434d00001f
:1008e800475300003d220000002200000d0a0000ce
:1008f800000d00000a000000736500006e73000020
:100908006f72000000730000656e0000736f0000d6
:1009180072200000636100006c690000620d000035
:100928000a0000007379000073740000656d000010
:100938000073000079730000746500006d200000ea
:10094800636100006c690000620d00000a0000008d
:1009580067700000727300000063000068650000a3
:10096800636b00002067000070720000730d0000c8
:100978000a0000006e6f0000726d0000616c0000dc
:100988000072000065740000757200006e2000009f
:10099800746f0000206e00006f7200006d6100002f
:1009a8006c0d00000a000000736d00007300000069
:1009b800736d000073200000666900006e69000016
:1009c8007368000000300000393000003331000047
:1009d8003635000033300000320000007768000030
:1009e8006174000000790000656100006800000083
:1009f8002074000065730000742e00002e2e000085
:100a08002e2e00002e2e00002e2e00002e2e00006e
:080a1800200d00000a0000009f
:020000040000fa
:100a20000000fa004034280060518800903428000b
:100a3000705188000035280080518800403428001b
:100a400090518800b0352800a051880070362800e9
:100a5000b051880060372800c05188005038280005
:100a6000d0518800303a280000528800e03a28002f
:100a700010528800903b280020528800803c2800bb
:100a800030528800503d2800405288000080fa0013
:100a9000000006000200fa000068ef000000eb0012
:100aa000000f780005003700809c20001e004000e9
:100ab0008040eb00014878001e0fe80001c8bf002d
:100ac0000000fb009e0f5000f7ff3c000168ef00a4
:100ad0000080fa00000006000200fa00881f78007b
:100ae000e20307000004a2000004e0001e00320040
:100af00014030700004f78001e407800f70307003a
:100b00001e407800ea4f5000030032001e4078007b
:100b1000ed4f500006003a0001c8bf000004e0009d
:100b20000300320010c0b30000e8b7000e00370029
:100b30001e407800ff4f50000b003400f0c7b30098
:100b40009e40780080cf50000700320001c8bf00ef
:100b50008000fb00829c20009e41780003f1780019
:100b60000040e80001e8b70070408000e20f50004c
:100b700045003200e20f500005003e000000e0009a
:100b800008003200e10f500027003200d900370082
:100b9000e40f500095003200e40f50006700390068
:100ba000d4003700710c800000022000008060003b
:100bb0000000e00003003a008ea1a800a80407008e
:100bc00010408800710c800000022000008060004e
:100bd0000000e000ba00320011408000f0702200f6
:100be000008440009e040700800f5400040035007c
:100bf0009b04070011408000810f5000b2003d00af
:100c0000970407001040880010c8bf000004e000ef
:100c100002003200303f2800b70307001000200018
:100c200070408800b30037008ea1a90011408000f9
:100c3000f07022000084400089040700800f5400f7
:100c4000040035008604070011408000810f500029
:100c50009f003d0082040700104088000828ef0034
:100c600010c0b30006e8b7002000200070408800e4
:100c700010c8bf000004e00097003200d03f2800f9
:100c80009d0307009b00370006c8bf000004e0007a
:100c90000c0032000668ef00404080000001400078
:100ca000c1a2200081004100910078000000e8000e
:100cb0004040880001007800a40007006804070095
:100cc0001040880040408000e70f50000d003400c5
:100cd00010c8bf000004e00002003200904028006d
:100ce000850307000668ef00303a280097000700e8
:100cf0005b0407001040880030002000704088002e
:100d00007c00370010408000783e20000004440042
:100d100053040700800f54000400350050040700fe
:100d200011408000810f50006d003d004c04070011
:100d3000104088000e28ef006e00370006c8bf0084
:100d40000004e0000e00320010c8bf000004e00004
:100d500002003200b0412800670307000668ef0078
:100d6000e03a2800790007003d04070010408800a1
:100d70000428ef0040002000704088005d0037002c
:100d800010408000783e2000000444003404070036
:100d9000800f54000400350031040700114080002a
:100da000810f500005003d002d0407001040880011
:100db000204080000000e8002040880021408000a2
:100dc000c0032000808f50004700340010c8bf00cf
:100dd0000004e00002003200404228004603070001
:100de0000e28ef000428ef004200370000c8bf00c3
:100df0000004e00012003200809c20009040780047
:100e000090c3b30080cf50000d003c00809c2000b8
:100e100090407800f0c2b30080cf5000080034004a
:100e200060432800340307001aff07000c04070082
:100e30001040880070002000704088002d003700ae
:100e400010408000783e20000004440004040700a5
:100e5000800f540004003500010407001140800099
:100e6000810f50000c003d00fd030700104088007a
:100e7000204080000000e8002040880010c8bf002b
:100e80000004e00002003200704428001a0307004a
:100e9000e03a28002d00070020408000f40f5000a9
:100ea0001300340010c8bf000004e000020032004c
:100eb00060452800100307000e28ef000d003700e2
:100ec000000000000b0037000000000009003700a0
:100ed0000000000007003700000000000500370098
:100ee0000000000003003700000000000100370090
:100ef0000000000000c8bf000004e0001000320045
:100f000061462800809c2000c9fd07000000e00029
:100f100003003a0010c0b30006e8b700070037002e
:100f200091462800809c2000c1fd07000000e000e1
:100f300002003a0010c0b30007e8b700d5fe070072
:100f40004f0478000080fa00000006000200fa005a
:100f5000000f78001e007800c5fd070080007800b3
:100f60001e007800470207000080fa00000006001b
:100f70000400fa00000f780011079800f0462800de
:100f8000f2ff07001e007800f0ff070090472800de
:100f9000eeff070040062000450407001e009000f9
:100fa000eaff0700a0c1b3001b020700d0472800da
:100fb000e6ff07000080fa00000006000000fa00cb
:100fc00080002000002888000225ef00f0052000a6
:100fd000402888000a25ef000c25ef000e25ef00c1
:100fe0001025ef001225ef001425ef009560a800f2
:100ff00001e5a8000345a800608220001041880098
:101000006082200000418800c0882000f0408800f5
:10101000c0882000e0408800204180000010a0002f
:1010200020418800204180000090a00020418800dd
:10103000204180000080a1002041880020418000e4
:101040000000a100204188000080fa000000060096
:10105000809fbe000000fa00214180000020200097
:10106000008060000000e000020032009580a900ce
:101070001f0037008580a90018003700104180004c
:10108000104078000080fb0020288800104180007c
:101090000000e8001041880011418000c088200055
:1010a000808f500002003a006082200010418800ca
:1010b000204180000080a100204188001141800073
:1010c00000418000808f500004003a0020418000e1
:1010d0000090a00020418800050037001128800002
:1010e00000202000008060000000e000e3ff3200ec
:1010f0000080fa004f00be0000400600809fbe0046
:101100000000fa0018003700e0408000312880001d
:101110008140780001487800e04080000000e8004d
:10112000e0408800e1408000208f2000808f500048
:1011300002003a00c0882000e04088002041800082
:101140000010a10020418800e1408000f0408000b4
:10115000808f500004003a00204180000000a00071
:1011600020418800040037001028800061006000e2
:101170000000e000e4ff3a008560a9000080fa006a
:101180004f00be0000400600801f78000000fa00fb
:1011900010288000620060000000e00001003200c2
:1011a0000225a9008c20a9000080fa004f007800d9
:1011b000004006000200fa000040eb00004f7800fb
:1011c000f0408000104f7800f04080000000e80000
:1011d000f0408800f1408000208f2000808f500078
:1011e00002003a00c0882000f0408800f1408000f2
:1011f000e0408000808f500003003a0020418000d2
:101200000010a00020418800204180000000a100c3
:10121000204188001e4078000080fa00000006008f
:101220000600fa00881f7800100798002107980030
:101230000000eb00000f780009003700204180001b
:10124000620060000000e0000a003a001e0090000a
:101250001e044000d7ff0700004c78001e0fe80076
:101260002e0090009e007800808f5000f3ff390020
:1012700001003700000000001e0078004f047800d5
:101280000080fa00000006000200fa00004f78001b
:101290009580a900004180001e4878000041800030
:1012a0000000e8000041880001418000c088200063
:1012b000808f500002003a006082200000418800c8
:1012c000204180000090a100204188001141800051
:1012d00000418000808f500003003a0020418000d0
:1012e0000080a000204188009580a8000080fa00be
:1012f000000006000600fa00100798002107980079
:101300000000eb00000f78000a0037002141800048
:1013100000102000008060000000e0000a003a0099
:101320001e0090001e004000104078001e0fe800d4
:10133000d5ff07002e0090009e007800808f50009f
:10134000f2ff390001003700000000001e007800a5
:101350000080fa00000006000200fa000000eb0026
:10136000000f780021418000001020000080600004
:101370000000e000010032001e30a000214180008a
:1013800000202000008060000000e000010032002a
:101390001e40a00020418000610060000000e000cd
:1013a000010032001e00a0002041800062006000a9
:1013b0000000e000020032001e20a0000100370003
:1013c0001e10a0001e0078000080fa000000060039
:1013d0000200fa00000f7800f04080009e004000fc
:1013e000208f2000808f500008003600f0408000e1
:1013f0009e004000208f20000000ea000080400096
:10140000c18820006140780003003700f040800070
:101410001e004000104078000080fa000000060026
:101420000000fa0020418000610060000000e00040
:101430000f003a00f1408000e0408000808f5000b3
:1014400005003600f040800080007800e040800019
:101450000080500007003700f040800080007800d6
:10146000e0408000008050006006b00001003700be
:101470000000eb000080fa00000006000000fa0007
:101480002141800000102000008060000000e0008a
:101490000f003a001141800000418000808f500011
:1014a0000500360010418000800078000041800077
:1014b0000080500007003700104180008000780055
:1014c00000418000008050006006b000010037003d
:1014d0000000eb000080fa00000006000000fa00a7
:1014e000204180000000d100614060000080fb00ce
:1014f00000f0a7000000ea000000ea004f00de0054
:10150000004078000080fa00000006000000fa00a9
:10151000204180004800de00614060000080fb0048
:1015200000f0a7000000ea000000ea004f00de0023
:10153000004078000080fa00000006000000fa0079
:10154000102880000080fa00000006000000fa0069
:1015500080002000b02888001825ef00f00520004a
:10156000f02888002025ef002225ef002425ef0039
:101570002625ef002825ef002a25ef0097c0a800b8
:1015800017e5a8001945a800c08f2000c0478800b3
:10159000c08f2000b047880020962000a047880018
:1015a0002096200090478800d04780000010a000bf
:1015b000d0478800d04780000090a000d047880026
:1015c000d04780000080a100d0478800d04780002d
:1015d0000000a100d04788000080fa00000006004b
:1015e000809fbe000000fa00d1478000002020004c
:1015f000008060000000e0000200320097e0a900d7
:101600001f00370087e0a90018003700c04780009e
:10161000104078000080fb00d0288800c047800080
:101620000000e800c0478800c147800020962000e5
:10163000808f500002003a00c08f2000c047880011
:10164000d04780000080a100d0478800c1478000bb
:10165000b0478000808f500004003a00d0478000df
:101660000090a000d047880005003700c128800006
:1016700000202000008060000000e000e3ff320056
:101680000080fa004f00be0000400600809fbe00b0
:101690000000fa001800370090478000e128800021
:1016a0008140780001487800904780000000e80001
:1016b0009047880091478000809c2000808f5000d8
:1016c00002003a002096200090478800d047800012
:1016d0000010a100d047880091478000a0478000fb
:1016e000808f500004003a00d04780000000a00026
:1016f000d047880004003700c028800061006000e7
:101700000000e000e4ff3a0087c0a9000080fa0072
:101710004f00be0000400600801f78000000fa0065
:10172000c0288000620060000000e000010032007c
:101730001825a9008c40a9000080fa004f0078000d
:10174000004006000200fa000040eb00004f780065
:10175000a0478000104f7800a04780000000e800fc
:10176000a0478800a1478000809c2000808f500007
:1017700002003a0020962000a0478800a147800080
:1017800090478000808f500003003a00d0478000cf
:101790000010a000d0478800d04780000000a100c2
:1017a000d04788001e4078000080fa000000060044
:1017b0000600fa00881f780010079800210798009b
:1017c0000000eb00000f780009003700d0478000d0
:1017d000620060000000e0000a003a001e00900075
:1017e0001e044000d7ff0700004c78001e0fe800e1
:1017f0002e0090009e007800808f5000f3ff39008b
:1018000001003700000000001e0078004f0478003f
:101810000080fa00000006000200fa00004f780085
:1018200097e0a900b04780001e487800b0478000cc
:101830000000e800b0478800b147800020962000f3
:10184000808f500002003a00c08f2000b04788000f
:10185000d04780000090a100d0478800c147800099
:10186000b0478000808f500003003a00d0478000ce
:101870000080a000d047880097e0a8000080fa0010
:10188000000006000600fa001007980021079800e3
:101890000000eb00000f78000a003700d1478000fd
:1018a00000102000008060000000e0000a003a0004
:1018b0001e0090001e004000104078001e0fe8003f
:1018c000d5ff07002e0090009e007800808f50000a
:1018d000f2ff390001003700000000001e00780010
:1018e0000080fa00000006000200fa000000eb0091
:1018f000000f7800d14780000010200000806000b9
:101900000000e000010032001e30a000d14780003e
:1019100000202000008060000000e0000100320094
:101920001e40a000d0478000610060000000e00081
:10193000010032001e00a000d0478000620060005d
:101940000000e000020032001e20a000010037006d
:101950001e10a0001e0078000080fa0000000600a3
:101960000200fa00000f7800a04780009e004000af
:10197000809c2000808f500008003600a047800027
:101980009e004000809c20000000ea000080400093
:10199000219620006140780003003700a0478000b6
:1019a0001e004000104078000080fa000000060091
:1019b0000000fa00d0478000610060000000e000f5
:1019c0000f003a00a147800090478000808f5000b0
:1019d00005003600a0478000800078009047800016
:1019e0000080500007003700a0478000800078008a
:1019f00090478000008050006006b0000100370072
:101a00000000eb000080fa00000006000000fa0071
:101a1000d147800000102000008060000000e0003e
:101a20000f003a00c1478000b0478000808f50000f
:101a300005003600c047800080007800b047800075
:101a40000080500007003700c04780008000780009
:101a5000b0478000008050006006b00001003700f1
:101a60000000eb000080fa00000006000000fa0011
:101a7000d04780000000d100614060000080fb0082
:101a800000f0a7000000ea000000ea004f00de00be
:101a9000004078000080fa00000006000000fa0014
:101aa000d04780004800de00614060000080fb00fd
:101ab00000f0a7000000ea000000ea004f00de008e
:101ac000004078000080fa00000006000000fa00e4
:101ad000c02880000080fa00000006000200fa0022
:101ae000004f78008421a8001e407800e6fd070022
:101af0000080fa00000006000200fa00000f7800e3
:101b00008421a8001e007800d9fa07008000780020
:101b10001e007800f7fd07000080fa0000000600b4
:101b20000400fa00112880000010200000806000ee
:101b30000000e000010032008421a90067fe0700d8
:101b40000004a2000004e0001c00320099fd070020
:101b5000204798002e409000ea4f500003003200ca
:101b60002e409000ed4f500006003a0013c8bf0011
:101b70000004e0000300320010c0b30012e8b70018
:101b80000e0037002e409000ff4f50000b00340035
:101b9000ae409000f0c7b30080cf50000700320085
:101ba00013c8bf008000fb0042a52000ae4190009a
:101bb00003f178000040e80013e8b70012c8bf0046
:101bc0000004e000560032001268ef0001482800cf
:101bd00040a5200096fa07000000e00005003a004a
:101be00020002000a040880070482800c2ff0700a5
:101bf0003e0037006149280040a520008cfa07000c
:101c00000000e00005003a0020002000a04088000d
:101c1000d0492800b8ff070034003700c14a280027
:101c200040a5200082fa07000000e00005003a000d
:101c300010002000a0408800104b2800aeff0700d5
:101c40002a003700e14b280040a5200078fa070061
:101c50000000e00004003a001428ef00504c280077
:101c6000a5ff070021003700814d280040a5200076
:101c70006ffa07000000e00004003a00c14d2800a0
:101c8000704e2800bafc070018003700a040800002
:101c9000e10f50000d003200e10f50001200310042
:101ca000214f280040a5200061fa07000000e00055
:101cb00003003a00704f28008fff07000b00370029
:101cc00040a520008cff07000800370040a5200039
:101cd0009efc0700d0c0b300cffe0700a0c0b30039
:101ce000cdfe070001003700000000000000eb00ff
:101cf000000f78000500370040a520001e004000be
:101d00008040eb00014878001e0fe80013c8bf00b8
:101d10000000fb009e0f5000f7ff3c001368ef002f
:101d20000080fa00000006000000fa004c22ef00dc
:101d300070e62000701288000000280080128800e1
:101d40008460a9009460a8000a68ef000080fa008f
:101d5000000006003600f800809fbe00829fbe0093
:101d6000849fbe00869fbe000000fa00230007008b
:101d7000604080000000e8006040880010c0b300b0
:101d80000ae8b7008460a9000080fa004f03be0093
:101d90004f02be004f01be004f00be003600f900ea
:101da000004006000200fa00000f78009e00780054
:101db000711288000a68ef000080fa000000060037
:101dc0000000fa00701280000080fa000000060097
:101dd0000200fa00000f78009e007800611288006f
:101de0000a68ef000080fa00000006000000fa0018
:101df000601280000080fa00000006000000fa0077
:101e00000080fa00000006000000fa000a68ef00f7
:101e10009460a80051e2a8000080fa0000000600cb
:101e20000000fa0051e2a9009460a9000080fa00c5
:101e3000000006000200fa00a18020009140780016
:101e4000014f78001e4078000004e00001003200dd
:101e50000a68ef001e4078000080fa0000000600cb
:101e60000000fa00604080000080fa0000000600d8
:101e70000000fa000c28ef000080fa0000000600c5
:101e80000000fa00404728000011880000402000b0
:101e90001011880090a02000201188002822ef0057
:101ea0002a22ef0000082000601188009e21ef0028
:101eb000101180004200de007f40600018e8b7008b
:101ec0000080fa00000006000000fa002022a800ae
:101ed0000080fa00000006000000fa002022a9009d
:101ee0000080fa00000006000600fa0020079800b3
:101ef00000202000100798000000eb00000f780081
:101f00000b0037001e00780000004000ae0090007b
:101f1000008040009e009000910078000108780049
:101f20001e0090000080e800100798001e0fe800d7
:101f300018c8bf000080fb009e0f5000f1ff3d005d
:101f40001e0078000080fa00000006000000fa0081
:101f5000001080000080fa00000006000000fa0077
:101f60000011800000407800614060000080fb00ac
:101f700000f0a7000000ea000000ea004f00de00c9
:101f8000004078000080fa00000006000200fa001d
:101f9000000f78009e007800411188000080fa0050
:101fa000000006000000fa0085a0a9000080fa00e9
:101fb000000006000000fa0030002000200c88001d
:101fc000000a2000700c8800c0002000000c88006f
:101fd000f0f02e00500c88005620ef005820ef0043
:101fe0005a20ef006e20ef007020ef007220ef000b
:101ff0008621ef0000022000800c88008000200075
:10200000400c8800e0202e00900c88000108800021
:10201000f00b2000008160006004200071052000aa
:1020200003102000804978008149780082497800b7
:10203000e11e8000f00f2c00808060000050200026
:1020400001007000e01e8800811d800000fc2f0050
:1020500000806000801d8800d11e8000f00f2c00e1
:10206000808060000030200001007000d01e8800d9
:10207000911d800000fc2f00008060000030a00057
:10208000901d880000088000000178000260a00018
:1020900060042000710520000310200080497800b2
:1020a00081497800824978000080fa00000006002b
:1020b0000400fa001007980069ff0700000f78007d
:1020c0000000000066ff07009e0090009e80400018
:1020d000810f5000fbff35000080fa000000060071
:1020e0000000fa000080fa00000006000000fa007c
:1020f000881f7800d0408000783e20000004440013
:1021000057ff0700800f54000400350054ff0700fc
:10211000d1408000810f50000e003d0050ff0700ad
:10212000d0408800700c80004600de0061406000f6
:102130000004a200614060000080fb0061006000bc
:102140004600dd00710c80000160a10001007000fc
:10215000700c88004f0478000080fa000000060030
:10216000ca00fa00881f7800ddff07002cfa07007c
:102170000e80e80042012000c14f280025f9070029
:102180000e80e8005cfe070080bb2000c8ff07004f
:102190000000eb00000f780031ff0700f170220013
:1021a000810f50000100340031ff0700713e200014
:1021b0001e8440002aff0700800f540003003500f2
:1021c00027ff07009e0f50000e003d0024ff070070
:1021d000000f7800700c80004600de006140600057
:1021e0000004a200614060000080fb00610060000c
:1021f0004600dd00710c80000160a100010070004c
:10220000700c880046fe070033fa0700e2ff370033
:020000040000fa
:102210001c080000d600000080000000b80a000082
:1022200020000000800000001608000002000000ee
:1022300082000000ffff00000a0800000400000008
:1022400080000000f2080000d600000080000000be
:10225000180800000200000080000000c80900000b
:102260008c00000080000000000800000a00000050
:10227000800000000e080000040000008200000042
:1022800001000100000000001a0800000200000028
:1022900080000000540a000064000000800000007c
:1022a0001208000004000000800000000000000090
:020000040000fa
:1022b0000000fa0021068000f08f2f0000806000ef
:1022c0000080a0002006880091058000f0ff280013
:1022d0000080600000c0a00090058800910580008b
:1022e000f08f2f00008060000080a0009005880023
:1022f00021068000f0f82f00008060000040a00060
:10230000200688005105800080ff2f0000806000bb
:102310000000a0005005880041058000f0ff280063
:102320000080600000c0a0004005880021058000fa
:10233000f0ff28000080600000c0a0002005880099
:102340000080fa0000000600000f78009e00780070
:10235000b1408800ffff37000000fa0080ab20008a
:102360008007780000ad2000000188000080fa009e
:10237000000006003600f8008020a9000000eb00f5
:10238000f1ff07003600f800f3ff07008040a900c6
:1023900010002000ecff07003600f8008060a90064
:1023a00020002000e8ff07003600f8008080a90028
:1023b00030002000e4ff07000000fa00fdfe0700e7
:1023c00007000700baff070060fc0700fbfa0700e0
:1023d000abfe070054fe07000080fa000000060074
:1023e0000000fa0022002000600420007105200097
:1023f00003102000804978008149780082497800e4
:102400000010230010088800000028003008880011
:102410006821ef006a21ef006c21ef000821ef0036
:102420000080fa00000006000000fa00e2ff07004a
:082430004bff0700feff37001f
:020000040000fa
:020000040002f8
:04aff000ffff00005f
:020000040000fa
:020000040002f8
:04aff400ffff00005b
:020000040000fa
:020000040002f8
:04aff8003dba00005e
:020000040000fa
:020000040002f8
:04affc003f3e0000d4
:00000001FF
