:020000040000fa
:080000000002040000000000f2
:020000040000fa
:0400080004030000ed
:020000040000fa
:04000c00e80e0000fa
:020000040000fa
:04001000fa0e0000e4
:020000040000fa
:04001400f00e0000ea
:020000040000fa
:04001800020f0000d3
:020000040000fa
:04001c0004030000d9
:020000040000fa
:0400200004030000d5
:020000040000fa
:0400240004030000d1
:020000040000fa
:0400280004030000cd
:020000040000fa
:04002c0004030000c9
:020000040000fa
:0400300004030000c5
:020000040000fa
:04003400e20b0000db
:020000040000fa
:0400380004030000bd
:020000040000fa
:04003c0004030000b9
:020000040000fa
:0400400004030000b5
:020000040000fa
:0400440004030000b1
:020000040000fa
:0400480004030000ad
:020000040000fa
:04004c0004030000a9
:020000040000fa
:0400500004030000a5
:020000040000fa
:04005400d8040000cc
:020000040000fa
:04005800820400001e
:020000040000fa
:04005c000403000099
:020000040000fa
:040060000403000095
:020000040000fa
:040064000403000091
:020000040000fa
:04006800040300008d
:020000040000fa
:04006c000403000089
:020000040000fa
:040070000403000085
:020000040000fa
:040074000403000081
:020000040000fa
:04007800040300007d
:020000040000fa
:04007c000403000079
:020000040000fa
:040080000403000075
:020000040000fa
:040084000403000071
:020000040000fa
:04008800040300006d
:020000040000fa
:04008c000403000069
:020000040000fa
:040090000403000065
:020000040000fa
:040094000403000061
:020000040000fa
:04009800040300005d
:020000040000fa
:04009c000403000059
:020000040000fa
:0400a000a0070000b5
:020000040000fa
:0400a4004a07000007
:020000040000fa
:0400a800040300004d
:020000040000fa
:0400ac000403000049
:020000040000fa
:0400b0000403000045
:020000040000fa
:0400b4000403000041
:020000040000fa
:0400b800040300003d
:020000040000fa
:0400bc000403000039
:020000040000fa
:0400c0000403000035
:020000040000fa
:0400c4000403000031
:020000040000fa
:0400c800040300002d
:020000040000fa
:0400cc000403000029
:020000040000fa
:0400d0000403000025
:020000040000fa
:0400d4000403000021
:020000040000fa
:0400d800040300001d
:020000040000fa
:0400dc000403000019
:020000040000fa
:0400e0000403000015
:020000040000fa
:0400e4000403000011
:020000040000fa
:0400e800040300000d
:020000040000fa
:0400ec000403000009
:020000040000fa
:0400f0000403000005
:020000040000fa
:0400f4000403000001
:020000040000fa
:0400f80004030000fd
:020000040000fa
:0400fc0004030000f9
:020000040000fa
:0401000004030000f4
:020000040000fa
:0401040004030000f0
:020000040000fa
:0401080004030000ec
:020000040000fa
:04010c0004030000e8
:020000040000fa
:0401100004030000e4
:020000040000fa
:0401140004030000e0
:020000040000fa
:0401180004030000dc
:020000040000fa
:04011c0004030000d8
:020000040000fa
:0401200004030000d4
:020000040000fa
:0401240004030000d0
:020000040000fa
:0401280004030000cc
:020000040000fa
:04012c001e050000ac
:020000040000fa
:04013000e6070000de
:020000040000fa
:0401340004030000c0
:020000040000fa
:0401380004030000bc
:020000040000fa
:04013c0004030000b8
:020000040000fa
:0401400004030000b4
:020000040000fa
:0401440004030000b0
:020000040000fa
:0401480004030000ac
:020000040000fa
:04014c0004030000a8
:020000040000fa
:0401500004030000a4
:020000040000fa
:0401540004030000a0
:020000040000fa
:04015800040300009c
:020000040000fa
:04015c000403000098
:020000040000fa
:040160000403000094
:020000040000fa
:040164000403000090
:020000040000fa
:04016800040300008c
:020000040000fa
:04016c000403000088
:020000040000fa
:040170000403000084
:020000040000fa
:040174000403000080
:020000040000fa
:04017800040300007c
:020000040000fa
:04017c000403000078
:020000040000fa
:040180000403000074
:020000040000fa
:040184000403000070
:020000040000fa
:04018800040300006c
:020000040000fa
:04018c000403000068
:020000040000fa
:040190000403000064
:020000040000fa
:040194000403000060
:020000040000fa
:04019800040300005c
:020000040000fa
:04019c000403000058
:020000040000fa
:0401a0000403000054
:020000040000fa
:0401a4000403000050
:020000040000fa
:0401a800040300004c
:020000040000fa
:0401ac000403000048
:020000040000fa
:0401b0000403000044
:020000040000fa
:0401b4000403000040
:020000040000fa
:0401b800040300003c
:020000040000fa
:0401bc000403000038
:020000040000fa
:0401c0000403000034
:020000040000fa
:0401c4000403000030
:020000040000fa
:0401c800040300002c
:020000040000fa
:0401cc000403000028
:020000040000fa
:0401d0000403000024
:020000040000fa
:0401d4000403000020
:020000040000fa
:0401d800040300001c
:020000040000fa
:0401dc000403000018
:020000040000fa
:0401e0000403000014
:020000040000fa
:0401e4000403000010
:020000040000fa
:0401e800040300000c
:020000040000fa
:0401ec000403000008
:020000040000fa
:0401f0000403000004
:020000040000fa
:0401f4000403000000
:020000040000fa
:0401f80004030000fc
:020000040000fa
:0401fc0004030000f8
:020000040000fa
:0402080004030000eb
:020000040000fa
:04020c0004030000e7
:020000040000fa
:0402100004030000e3
:020000040000fa
:0402140004030000df
:020000040000fa
:0402180004030000db
:020000040000fa
:04021c0004030000d7
:020000040000fa
:0402200004030000d3
:020000040000fa
:0402240004030000cf
:020000040000fa
:0402280004030000cb
:020000040000fa
:04022c0004030000c7
:020000040000fa
:0402300004030000c3
:020000040000fa
:0402340004030000bf
:020000040000fa
:0402380004030000bb
:020000040000fa
:04023c0004030000b7
:020000040000fa
:0402400004030000b3
:020000040000fa
:0402440004030000af
:020000040000fa
:0402480004030000ab
:020000040000fa
:04024c0004030000a7
:020000040000fa
:0402500004030000a3
:020000040000fa
:04025400040300009f
:020000040000fa
:04025800040300009b
:020000040000fa
:04025c000403000097
:020000040000fa
:040260000403000093
:020000040000fa
:04026400040300008f
:020000040000fa
:04026800040300008b
:020000040000fa
:04026c000403000087
:020000040000fa
:040270000403000083
:020000040000fa
:04027400040300007f
:020000040000fa
:04027800040300007b
:020000040000fa
:04027c000403000077
:020000040000fa
:040280000403000073
:020000040000fa
:04028400040300006f
:020000040000fa
:04028800040300006b
:020000040000fa
:04028c000403000067
:020000040000fa
:040290000403000063
:020000040000fa
:04029400040300005f
:020000040000fa
:04029800040300005b
:020000040000fa
:04029c000403000057
:020000040000fa
:0402a0000403000053
:020000040000fa
:0402a400040300004f
:020000040000fa
:0402a800040300004b
:020000040000fa
:0402ac000403000047
:020000040000fa
:0402b0000403000043
:020000040000fa
:0402b400040300003f
:020000040000fa
:0402b800040300003b
:020000040000fa
:0402bc000403000037
:020000040000fa
:0402c0000403000033
:020000040000fa
:0402c400040300002f
:020000040000fa
:0402c800040300002b
:020000040000fa
:0402cc000403000027
:020000040000fa
:0402d0000403000023
:020000040000fa
:0402d400040300001f
:020000040000fa
:0402d800040300001b
:020000040000fa
:0402dc000403000017
:020000040000fa
:0402e0000403000013
:020000040000fa
:0402e400040300000f
:020000040000fa
:0402e800040300000b
:020000040000fa
:0402ec000403000007
:020000040000fa
:0402f0000403000003
:020000040000fa
:0402f40004030000ff
:020000040000fa
:0402f80004030000fb
:020000040000fa
:0402fc0004030000f7
:020000040000fa
:0403000004030000f2
:020000040000fa
:0403040004030000ee
:020000040000fa
:0403080004030000ea
:020000040000fa
:04030c0004030000e6
:020000040000fa
:0403100004030000e2
:020000040000fa
:0403140004030000de
:020000040000fa
:0403180004030000da
:020000040000fa
:04031c0004030000d6
:020000040000fa
:0403200004030000d2
:020000040000fa
:0403240004030000ce
:020000040000fa
:0403280004030000ca
:020000040000fa
:04032c0004030000c6
:020000040000fa
:0403300004030000c2
:020000040000fa
:0403340004030000be
:020000040000fa
:0403380004030000ba
:020000040000fa
:04033c0004030000b6
:020000040000fa
:0403400004030000b2
:020000040000fa
:0403440004030000ae
:020000040000fa
:0403480004030000aa
:020000040000fa
:04034c0004030000a6
:020000040000fa
:0403500004030000a2
:020000040000fa
:04035400040300009e
:020000040000fa
:04035800040300009a
:020000040000fa
:04035c000403000096
:020000040000fa
:040360000403000092
:020000040000fa
:04036400040300008e
:020000040000fa
:04036800040300008a
:020000040000fa
:04036c000403000086
:020000040000fa
:040370000403000082
:020000040000fa
:04037400040300007e
:020000040000fa
:04037800040300007a
:020000040000fa
:04037c000403000076
:020000040000fa
:040380000403000072
:020000040000fa
:04038400040300006e
:020000040000fa
:04038800040300006a
:020000040000fa
:04038c000403000066
:020000040000fa
:040390000403000062
:020000040000fa
:04039400040300005e
:020000040000fa
:04039800040300005a
:020000040000fa
:04039c000403000056
:020000040000fa
:0403a0000403000052
:020000040000fa
:0403a400040300004e
:020000040000fa
:0403a800040300004a
:020000040000fa
:0403ac000403000046
:020000040000fa
:0403b0000403000042
:020000040000fa
:0403b400040300003e
:020000040000fa
:0403b800040300003a
:020000040000fa
:0403bc000403000036
:020000040000fa
:0403c0000403000032
:020000040000fa
:0403c400040300002e
:020000040000fa
:0403c800040300002a
:020000040000fa
:0403cc000403000026
:020000040000fa
:0403d0000403000022
:020000040000fa
:0403d400040300001e
:020000040000fa
:0403d800040300001a
:020000040000fa
:0403dc000403000016
:020000040000fa
:0403e0000403000012
:020000040000fa
:0403e400040300000e
:020000040000fa
:0403e800040300000a
:020000040000fa
:0403ec000403000006
:020000040000fa
:0403f0000403000002
:020000040000fa
:0403f40004030000fe
:020000040000fa
:0403f80004030000fa
:020000040000fa
:0403fc0004030000f6
:020000040000fa
:100400008faa20000e7f22000e018800000000004d
:10041000000020000000e000020032000001200087
:100420002002880014000700790007000000e000a7
:1004300003003a00c0e8200001002000020037005d
:100440000000200001002000810f70000100320038
:1004500014000700000020000000e000020032004d
:100460000000020000000000420f02000000000037
:100470000040da000000fe004440a900400f2000c8
:100480000000e000030032000020200090018800fe
:100490004440a800000006008a1f78008b1f7800e7
:1004a00000000600a1028800800478000000eb0034
:1004b0001f003700e284440054a0b4009905ba003c
:1004c000e284440054a0b4009906ba00e2844400d7
:1004d00054a0b4000006eb00476fde00fd07b20039
:1004e000ae018800636ce10003003a00eaff0700f8
:1004f0000000eb000e003700606ce10008003a00dd
:10050000004deb000a05e800020039003420ec0041
:100510000af0a0008b05e900f9ff3e000400370057
:100520006168e100010032000086eb000b0007006b
:1005300019c7ba001905ba000e04e00003003a001a
:100540000a00e000dbff3a0000000600fe07b200f0
:10055000ae0288008a047800f5ff37000cd0a300b3
:10056000e20f4d001c00390089027800354dba00b9
:100570000a05e800020039003420ec000af0a0006f
:100580008b05e9000f003200254dba000a05e8008e
:10059000020039003420ec000af0a0008b05e900cd
:1005a000080032000c00e0000600320015cdba0051
:1005b0000a05e800020039003420ec000af0a0002f
:1005c0008b05e9008984e80054a0b4000b00e0002a
:1005d000e2ff3a00000006009902ba00055d7800cb
:1005e0008b05e900f7ff3200c82ade00055d7800c0
:1005f0008b05e900f3ff32000c00e000f1ff320050
:1006000019ddba00eeff37000040da000000fe00fe
:10061000000005008001780002003700b159780021
:100620000201e9000200e000fcff3a0000000600c1
:10063000020037000204e0000b0032008101780064
:100640000002780030417800b14f5100f9ff3200cc
:100650001000200014427800934f52000300310034
:100660000080eb00000006000000eb000000060028
:1006700080007800010178003104e000fdff3a00bd
:0806800000005100000006001b
:020000040000fa
:10068800736500006e7300006f7200000073000055
:10069800656e0000736f0000722000006361000047
:1006a8006c690000620d00000a0000007379000008
:1006b80073740000656d000000730000797300001a
:1006c800746500006d200000636100006c69000023
:1006d800620d00000a0000006770000072730000dd
:1006e8000063000068650000636b0000206700007d
:1006f80070720000730d00000a0000006e6f0000a9
:10070800726d0000616c00000072000065740000ea
:10071800757200006e200000746f0000206e0000eb
:100728006f7200006d6100006c0d00000a0000008f
:10073800736d00007300000074650000737400009e
:10074800002b00003834000039300000333100003d
:1007580036350000333000003200000077680000b2
:100768006174000000790000656100006800000005
:100778006132000020740000656e000020670000f0
:10078800693f00000020000056690000656e000007
:10079800204200006163000068000000656d0000f1
:1007a80020740000656e000020670000693f0000ab
:1007b8000020000051750000652000004c61000019
:1007c8006d000000415400000d0a000000410000c7
:1007d800542b000043500000494e00003f0d00001c
:1007e8000a000000415400002b4300004d47000060
:1007f800463d0000310d00000a0000004154000091
:100808002b4300004d470000533d0000220000002c
:100818003039000030330000313600003533000035
:1008280030320000002200000d0a000000740000b1
:100838006573000074310000000d00000a0000001c
:100848002074000065730000742e00002e2e000036
:100858002e2e00002e2e00002e2e00002e2e000020
:08086800200d00000a00000051
:020000040000fa
:100870000000fa0080002000002888000225ef0018
:10088000f0052000402888000a25ef000c25ef0025
:100890000e25ef001025ef001225ef001425ef00c4
:1008a0009560a80001e5a8000345a800e0812000ac
:1008b000d0408800e0812000c040880040882000af
:1008c000b040880040882000a0408800e0408000c0
:1008d0000010a000e0408800e04080000090a000f0
:1008e000e0408800e04080000080a100e0408800f7
:1008f000e04080000000a100e04088000080fa0095
:1009000000000600809fbe000000fa00e140800069
:1009100000202000008060000000e00002003200a3
:100920009580a9001f0037008580a90018003700b6
:10093000d0408000104078000080fb002028880014
:10094000d04080000000e800d0408800d140800006
:1009500040882000808f500002003a00e081200093
:10096000d0408800e04080000080a100e040880086
:10097000d1408000c0408000808f500004003a00c9
:10098000e04080000090a000e040880005003700b3
:100990001128800000202000008060000000e0009e
:1009a000e3ff32000080fa004f00be000040060066
:1009b000809fbe000000fa0018003700a0408000b1
:1009c000312880008140780001487800a0408000f4
:1009d0000000e800a0408800a1408000a08e200018
:1009e000808f500002003a0040882000a04088001c
:1009f000e04080000010a100e0408800a14080009d
:100a0000b0408000808f500004003a00e040800039
:100a10000000a000e040880004003700102880009b
:100a2000610060000000e000e4ff3a008560a9007a
:100a30000080fa004f00be0000400600801f7800d2
:100a40000000fa0010288000620060000000e00052
:100a5000010032000225a9008c20a9000080fa00c4
:100a60004f007800004006000200fa000040eb0052
:100a7000004f7800b0408000104f7800b0408000f8
:100a80000000e800b0408800b1408000a08e200047
:100a9000808f500002003a0040882000b04088005b
:100aa000b1408000a0408000808f500003003a00d9
:100ab000e04080000010a000e0408800e04080009e
:100ac0000000a100e04088001e4078000080fa008d
:100ad000000006000600fa00881f78001007980042
:100ae000210798000000eb00000f78000900370094
:100af000e0408000620060000000e0000a003a0070
:100b00001e0090001e044000d7ff0700004c780034
:100b10001e0fe8002e0090009e007800808f50008d
:100b2000f3ff390001003700000000001e007800cc
:100b30004f0478000080fa00000006000200fa006e
:100b4000004f78009580a900c04080001e487800c2
:100b5000c04080000000e800c0408800c140800024
:100b600040882000808f500002003a00e081200081
:100b7000c0408800e04080000090a100e040880074
:100b8000d1408000c0408000808f500003003a00b8
:100b9000e04080000080a000e04088009580a80030
:100ba0000080fa00000006000600fa001007980016
:100bb000210798000000eb00000f78000a003700c2
:100bc000e140800000102000008060000000e00094
:100bd0000a003a001e0090001e00400010407800fd
:100be0001e0fe800d5ff07002e0090009e00780041
:100bf000808f5000f2ff3900010037000000000034
:100c00001e0078000080fa00000006000200fa00d2
:100c10000000eb00000f7800e14080000010200091
:100c2000008060000000e000010032001e30a000e3
:100c3000e140800000202000008060000000e00013
:100c4000010032001e40a000e04080006100600012
:100c50000000e000010032001e00a000e040800023
:100c6000620060000000e000020032001e20a000d0
:100c7000010037001e10a0001e0078000080fa005e
:100c8000000006000200fa00000f7800b04080006b
:100c90009e004000a08e2000808f5000080036008b
:100ca000b04080009e004000a08e20000000ea00be
:100cb0000080400041882000614078000300370038
:100cc000b04080001e004000104078000080fa0014
:100cd000000006000000fa00e040800061006000b3
:100ce0000000e0000f003a00b1408000a04080000a
:100cf000808f500005003600b040800080007800f2
:100d0000a04080000080500007003700b040800005
:100d100080007800a0408000008050006006b00095
:100d2000010037000000eb000080fa000000060020
:100d30000000fa00e1408000001020000080600008
:100d40000000e0000f003a00d1408000c040800069
:100d5000808f500005003600d04080008000780071
:100d6000c04080000080500007003700d040800065
:100d700080007800c0408000008050006006b00015
:100d8000010037000000eb000080fa0000000600c0
:100d90000000fa00e04080000000d10061406000e7
:100da0000080fb0000f0a7000000ea000000ea005d
:100db0004f00de00004078000080fa0000000600ce
:100dc0000000fa00e04080004800de006140600062
:100dd0000080fb0000f0a7000000ea000000ea002d
:100de0004f00de00004078000080fa00000006009e
:100df0000000fa00102880000080fa0000000600c1
:100e00000000fa0080002000b02888001825ef00bc
:100e1000f0052000f02888002025ef002225ef00b3
:100e20002425ef002625ef002825ef002a25ef00d6
:100e300097c0a80017e5a8001945a800408f20001a
:100e400080478800408f200070478800a0952000d0
:100e500060478800a0952000504788009047800098
:100e60000010a00090478800904780000090a000ec
:100e700090478800904780000080a100904788003c
:100e8000904780000000a100904788000080fa0091
:100e900000000600809fbe000000fa00914780001d
:100ea00000202000008060000000e000020032000e
:100eb00097e0a9001f00370087e0a900180037005d
:100ec00080478000104078000080fb00d028880018
:100ed000804780000000e80080478800814780004c
:100ee000a0952000808f500002003a00408f200023
:100ef00080478800904780000080a10090478800cc
:100f00008147800070478000808f500004003a00c5
:100f1000904780000090a0009047880005003700af
:100f2000c128800000202000008060000000e00058
:100f3000e3ff32000080fa004f00be0000400600d0
:100f4000809fbe000000fa00180037005047800064
:100f5000e1288000814078000148780050478000f7
:100f60000000e8005047880051478000009c2000a6
:100f7000808f500002003a00a09520005047880062
:100f8000904780000010a1009047880051478000e2
:100f900060478000808f500004003a009047800036
:100fa0000000a0009047880004003700c02880009f
:100fb000610060000000e000e4ff3a0087c0a90083
:100fc0000080fa004f00be0000400600801f78003d
:100fd0000000fa00c0288000620060000000e0000d
:100fe000010032001825a9008c40a9000080fa00f9
:100ff0004f007800004006000200fa000040eb00bd
:10100000004f780060478000104f780060478000f4
:101010000000e8006047880061478000009c2000d5
:10102000808f500002003a00a095200060478800a1
:101030006147800050478000808f500003003a00d5
:10104000904780000010a0009047880090478000e3
:101050000000a100904788001e4078000080fa0040
:10106000000006000600fa00881f780010079800ac
:10107000210798000000eb00000f780009003700fe
:1010800090478000620060000000e0000a003a0023
:101090001e0090001e044000d7ff0700004c78009f
:1010a0001e0fe8002e0090009e007800808f5000f8
:1010b000f3ff390001003700000000001e00780037
:1010c0004f0478000080fa00000006000200fa00d9
:1010d000004f780097e0a900704780001e48780014
:1010e000704780000000e80070478800714780006a
:1010f000a0952000808f500002003a00408f200011
:1011000070478800904780000090a10090478800b9
:101110008147800070478000808f500003003a00b4
:10112000904780000080a0009047880097e0a800ca
:101130000080fa00000006000600fa001007980080
:10114000210798000000eb00000f78000a0037002c
:101150009147800000102000008060000000e00047
:101160000a003a001e0090001e0040001040780067
:101170001e0fe800d5ff07002e0090009e007800ab
:10118000808f5000f2ff390001003700000000009e
:101190001e0078000080fa00000006000200fa003d
:1011a0000000eb00000f7800914780000010200045
:1011b000008060000000e000010032001e30a0004e
:1011c0009147800000202000008060000000e000c7
:1011d000010032001e40a0009047800061006000c6
:1011e0000000e000010032001e00a00090478000d7
:1011f000620060000000e000020032001e20a0003b
:10120000010037001e10a0001e0078000080fa00c8
:10121000000006000200fa00000f7800604780001e
:101220009e004000009c2000808f50000800360087
:10123000604780009e004000009c20000000ea0003
:1012400000804000a1952000614078000300370035
:10125000604780001e004000104078000080fa00c7
:10126000000006000000fa00904780006100600066
:101270000000e0000f003a00614780005047800006
:10128000808f5000050036006047800080007800a5
:101290005047800000805000070037006047800002
:1012a0008000780050478000008050006006b00049
:1012b000010037000000eb000080fa00000006008b
:1012c0000000fa00914780000010200000806000bc
:1012d0000000e0000f003a00814780007047800066
:1012e000808f500005003600804780008000780025
:1012f0007047800000805000070037008047800062
:101300008000780070478000008050006006b000c8
:10131000010037000000eb000080fa00000006002a
:101320000000fa00904780000000d100614060009a
:101330000080fb0000f0a7000000ea000000ea00c7
:101340004f00de00004078000080fa000000060038
:101350000000fa00904780004800de006140600015
:101360000080fb0000f0a7000000ea000000ea0097
:101370004f00de00004078000080fa000000060008
:101380000000fa00c02880000080fa00000006007b
:101390000200fa00004f78008421a8001e40780067
:1013a000e6fd07000080fa00000006000200fa00d7
:1013b000000f78008421a8001e007800acfc070014
:1013c000800078001e007800f7fd07000080fa001a
:1013d000000006000400fa00112880000010200020
:1013e000008060000000e000010032008421a900bc
:1013f00067fe07000004a2000004e0001c003200a9
:1014000099fd0700204798002e409000ea4f5000b9
:10141000030032002e409000ed4f500006003a00cd
:101420000bc8bf000004e0000300320010c0b3008e
:101430000ae8b7000e0037002e409000ff4f500022
:101440000b003400ae409000f0c7b30080cf5000d6
:10145000070032000bc8bf008000fb0042a2200042
:10146000ae41900003f178000040e8000be8b700bf
:101470000ac8bf000004e000660032000a68ef00fe
:101480004134280040a2200069fc07000000e00071
:1014900005003a002000200060408800b034280099
:1014a000c2ff07004e003700a135280040a22000ef
:1014b0005ffc07000000e00005003a00200020006b
:1014c0006040880010362800b8ff0700440037004d
:1014d0000137280040a2200055fc07000000e00072
:1014e00005003a00100020006040880050372800b6
:1014f000aeff07003a0037002138280040a2200044
:101500004bfc07000000e00004003a000c28ef004c
:1015100090382800a5ff070031003700c1392800a6
:1015200040a2200042fc07000000e00004003a0056
:10153000013a2800503a28007800070028003700b8
:1015400060408000e10f50001d003200e10f5000ac
:1015500022003100213b280040a2200034fc07007b
:101560000000e00003003a00703b28008fff0700f6
:101570001b003700c13b280040a220002cfc0700c4
:101580000000e00003003a00703c280087ff0700dd
:1015900013003700213d280040a2200024fc070052
:1015a0000000e00003003a00d03d28007fff070064
:1015b0000b00370040a220007cff07000800370026
:1015c00040a220004c000700d0c0b300bffe0700bf
:1015d000a0c0b300bdfe07000100370000000000fe
:1015e0000000eb00000f78000500370040a220004b
:1015f0001e0040008040eb00014878001e0fe8000c
:101600000bc8bf000000fb009e0f5000f7ff3c001e
:101610000b68ef000080fa00000006000200fa00ec
:101620000068ef000000eb00000f780005003700b5
:10163000009c20001e0040008040eb000148780024
:101640001e0fe80001c8bf000000fb009e0f500005
:10165000f7ff3c000168ef000080fa000000060080
:101660000200fa002eff07000004a2000004e000c0
:101670001e00320060fe0700004f78001e40780018
:1016800043ff07001e407800ea4f5000030032007d
:101690001e407800ed4f500006003a0001c8bf0020
:1016a0000004e0000300320010c0b30000e8b700ff
:1016b0000e0037001e407800ff4f50000b00340032
:1016c000f0c7b3009e40780080cf50000700320082
:1016d00001c8bf008000fb00029c20009e417800f2
:1016e00003f178000040e80001e8b70000000000c6
:1016f0000080fa00000006000200fa00000f7800e7
:101700001e007800dafb0700800078001e007800d9
:1017100089fe07000080fa00000006000400fa00bd
:10172000000f780011079800603e2800f2ff0700c4
:1017300040062000fa000700b03e2800eeff070038
:1017400040062000f6000700603f2800eaff07007f
:1017500040062000f200070020402800e6ff0700b6
:10176000c0402800e4ff070070412800e2ff0700a6
:1017700040062000ea000700b0412800deff070015
:10178000a0c1b30051fe070010422800daff070095
:101790000080fa00000006000000fa004c22ef0072
:1017a00070e6200070128800000028008012880077
:1017b0008460a9009460a8000668ef000080fa0029
:1017c000000006003600f800809fbe00829fbe0029
:1017d000849fbe00869fbe000000fa002300070021
:1017e000404080000000e8004040880010c0b30086
:1017f00006e8b7008460a9000080fa004f03be002d
:101800004f02be004f01be004f00be003600f9007f
:10181000004006000200fa00000f78009e007800e9
:10182000711288000668ef000080fa0000000600d0
:101830000000fa00701280000080fa00000006002c
:101840000200fa00000f78009e0078006112880004
:101850000668ef000080fa00000006000000fa00b1
:10186000601280000080fa00000006000000fa000c
:101870000080fa00000006000000fa000668ef0091
:101880009460a80051e2a8000080fa000000060061
:101890000000fa0051e2a9009460a9000080fa005b
:1018a000000006000200fa006180200091407800ec
:1018b000014f78001e4078000004e0000100320073
:1018c0000668ef001e4078000080fa000000060065
:1018d0000000fa00404080000080fa00000006008e
:1018e0000000fa000828ef000080fa00000006005f
:1018f0000000fa0040472800001188000040200046
:101900001011880090a02000201188002822ef00ec
:101910002a22ef0000082000601188009e21ef00bd
:10192000101180004200de007f40600010e8b70028
:101930000080fa00000006000000fa002022a80043
:101940000080fa00000006000000fa002022a90032
:101950000080fa00000006000600fa002007980048
:1019600000202000100798000000eb00000f780016
:101970000b0037001e00780000004000ae00900011
:10198000008040009e0090009100780001087800df
:101990001e0090000080e800100798001e0fe8006d
:1019a00010c8bf000080fb009e0f5000f1ff3d00fb
:1019b0001e0078000080fa00000006000000fa0017
:1019c000001080000080fa00000006000000fa000d
:1019d0000011800000407800614060000080fb0042
:1019e00000f0a7000000ea000000ea004f00de005f
:1019f000004078000080fa00000006000200fa00b3
:101a0000000f78009e007800411188000080fa00e5
:101a1000000006000000fa0085a0a9000080fa007e
:101a2000000006000000fa0030002000200c8800b2
:101a3000000a2000700c8800c0002000000c880004
:101a4000f0f02e00500c88005620ef005820ef00d8
:101a50005a20ef006e20ef007020ef007220ef00a0
:101a60008621ef0000022000800c8800800020000a
:101a7000400c8800e0202e00900c880001088000b7
:101a8000f00b200000816000600420007105200040
:101a9000031020008049780081497800824978004d
:101aa000e11e8000f00f2c008080600000502000bc
:101ab00001007000e01e8800811d800000fc2f00e6
:101ac00000806000801d8800d11e8000f00f2c0077
:101ad000808060000030200001007000d01e88006f
:101ae000911d800000fc2f00008060000030a000ed
:101af000901d880000088000000178000260a000ae
:101b00006004200071052000031020008049780047
:101b100081497800824978000080fa0000000600c0
:101b20000400fa001007980069ff0700000f780012
:101b30000000000066ff07009e0090009e804000ad
:101b4000810f5000fbff35000080fa000000060006
:101b50000000fa008ea1a9000080fa000000060033
:101b60000000fa00881f780090408000783e200036
:101b70000004440056ff0700800f540004003500a5
:101b800053ff070091408000810f50000e003d0080
:101b90004fff070090408800700c80004600de0078
:101ba000614060000004a200614060000080fb0012
:101bb000610060004600dd00710c80000160a10042
:101bc00001007000700c88004f0478000080fa005b
:101bd00000000600ca00fa00881f7800dcff07003a
:101be0000e80e800420120004142280089fa0700e7
:101bf0000e80e800edfd070080bb2000c8ff070055
:101c00000000eb00000f780031ff0700f1702200a8
:101c1000810f50000100340031ff0700713e2000a9
:101c20001e8440002aff0700800f54000300350087
:101c300027ff07009e0f50000e003d0024ff070005
:101c4000000f7800700c80004600de0061406000ec
:101c50000004a200614060000080fb0061006000a1
:101c60004600dd00710c80000160a10001007000e1
:101c7000700c8800d7fd070079fe0700e2ff3700ef
:101c80000000fa0021068000f08f2f000080600025
:101c90000080a0002006880091058000f0ff280049
:101ca0000080600000c0a0009005880091058000c1
:101cb000f08f2f00008060000080a0009005880059
:101cc00021068000f0f82f00008060000040a00096
:101cd000200688005105800080ff2f0000806000f2
:101ce0000000a0005005880041058000f0ff28009a
:101cf0000080600000c0a000400588002105800031
:101d0000f0ff28000080600000c0a00020058800cf
:081d10000080fa00000006004b
:020000040000fa
:101d180014080000d600000080000000880a0000b7
:101d280020000000800000000e08000002000000f3
:101d380082000000ffff0000060800000400000009
:101d480080000000ea080000d600000080000000c3
:101d5800100800000200000080000000c009000018
:101d68006400000080000000000800000600000079
:101d7800800000001208000002000000800000003f
:101d8800240a000064000000800000000a08000027
:0c1d9800040000008000000000000000bb
:020000040000fa
:101da400000f78009e00780071408800ffff370024
:101db4000000fa0080a820008007780000aa200014
:101dc400000188000080fa00000006003600f800d8
:101dd4008020a9000000eb00f1ff07003600f800a6
:101de400f3ff07008040a90010002000ecff07006b
:101df4003600f8008060a90020002000e8ff0700fa
:101e04003600f8008080a90030002000e4ff0700bd
:101e14000000fa0002ff07000700070097ff070011
:101e2400f6fb070091fa0700b0fe070059fe070011
:101e34000080fa00000006000000fa0022002000e2
:101e44006004200071052000031020008049780000
:101e54008149780082497800001023001008880026
:101e640000002800300888006821ef006a21ef0094
:101e74006c21ef000821ef000080fa00000006004a
:101e84000000fa00e2ff070051ff0700feff3700e1
:020000040000fa
:020000040002f8
:04aff000ffff00005f
:020000040000fa
:020000040002f8
:04aff400ffff00005b
:020000040000fa
:020000040002f8
:04aff8003dba00005e
:020000040000fa
:020000040002f8
:04affc003f3e0000d4
:00000001FF
