:020000040000fa
:080000000002040000000000f2
:020000040000fa
:04000800be04000032
:020000040000fa
:04000c00be0300002f
:020000040000fa
:04001000d003000019
:020000040000fa
:04001400c60300001f
:020000040000fa
:04001800d803000009
:020000040000fa
:04001c00be0400001e
:020000040000fa
:04002000be0400001a
:020000040000fa
:04002400be04000016
:020000040000fa
:04002800be04000012
:020000040000fa
:04002c00be0400000e
:020000040000fa
:04003000be0400000a
:020000040000fa
:04003400e0030000e5
:020000040000fa
:04003800be04000002
:020000040000fa
:04003c00be040000fe
:020000040000fa
:04004000be040000fa
:020000040000fa
:04004400be040000f6
:020000040000fa
:04004800be040000f2
:020000040000fa
:04004c00be040000ee
:020000040000fa
:04005000be040000ea
:020000040000fa
:040054006003000045
:020000040000fa
:040058000803000099
:020000040000fa
:04005c00be040000de
:020000040000fa
:04006000be040000da
:020000040000fa
:04006400be040000d6
:020000040000fa
:04006800be040000d2
:020000040000fa
:04006c00be040000ce
:020000040000fa
:04007000be040000ca
:020000040000fa
:04007400be040000c6
:020000040000fa
:04007800be040000c2
:020000040000fa
:04007c00be040000be
:020000040000fa
:04008000be040000ba
:020000040000fa
:04008400be040000b6
:020000040000fa
:04008800be040000b2
:020000040000fa
:04008c00be040000ae
:020000040000fa
:04009000be040000aa
:020000040000fa
:04009400be040000a6
:020000040000fa
:04009800be040000a2
:020000040000fa
:04009c00be0400009e
:020000040000fa
:0400a00060040000f8
:020000040000fa
:0400a400080400004c
:020000040000fa
:0400a800be04000092
:020000040000fa
:0400ac00be0400008e
:020000040000fa
:0400b000be0400008a
:020000040000fa
:0400b400be04000086
:020000040000fa
:0400b800be04000082
:020000040000fa
:0400bc00be0400007e
:020000040000fa
:0400c000be0400007a
:020000040000fa
:0400c400be04000076
:020000040000fa
:0400c800be04000072
:020000040000fa
:0400cc00be0400006e
:020000040000fa
:0400d000be0400006a
:020000040000fa
:0400d400be04000066
:020000040000fa
:0400d800be04000062
:020000040000fa
:0400dc00be0400005e
:020000040000fa
:0400e000be0400005a
:020000040000fa
:0400e400be04000056
:020000040000fa
:0400e800be04000052
:020000040000fa
:0400ec00be0400004e
:020000040000fa
:0400f000be0400004a
:020000040000fa
:0400f400be04000046
:020000040000fa
:0400f800be04000042
:020000040000fa
:0400fc00be0400003e
:020000040000fa
:04010000be04000039
:020000040000fa
:04010400be04000035
:020000040000fa
:04010800be04000031
:020000040000fa
:04010c00be0400002d
:020000040000fa
:04011000be04000029
:020000040000fa
:04011400be04000025
:020000040000fa
:04011800be04000021
:020000040000fa
:04011c00be0400001d
:020000040000fa
:04012000be04000019
:020000040000fa
:04012400be04000015
:020000040000fa
:04012800be04000011
:020000040000fa
:04012c00a803000024
:020000040000fa
:04013000a80400001f
:020000040000fa
:04013400be04000005
:020000040000fa
:04013800be04000001
:020000040000fa
:04013c00be040000fd
:020000040000fa
:04014000be040000f9
:020000040000fa
:04014400be040000f5
:020000040000fa
:04014800be040000f1
:020000040000fa
:04014c00be040000ed
:020000040000fa
:04015000be040000e9
:020000040000fa
:04015400be040000e5
:020000040000fa
:04015800be040000e1
:020000040000fa
:04015c00be040000dd
:020000040000fa
:04016000be040000d9
:020000040000fa
:04016400be040000d5
:020000040000fa
:04016800be040000d1
:020000040000fa
:04016c00be040000cd
:020000040000fa
:04017000be040000c9
:020000040000fa
:04017400be040000c5
:020000040000fa
:04017800be040000c1
:020000040000fa
:04017c00be040000bd
:020000040000fa
:04018000be040000b9
:020000040000fa
:04018400be040000b5
:020000040000fa
:04018800be040000b1
:020000040000fa
:04018c00be040000ad
:020000040000fa
:04019000be040000a9
:020000040000fa
:04019400be040000a5
:020000040000fa
:04019800be040000a1
:020000040000fa
:04019c00be0400009d
:020000040000fa
:0401a000be04000099
:020000040000fa
:0401a400be04000095
:020000040000fa
:0401a800be04000091
:020000040000fa
:0401ac00be0400008d
:020000040000fa
:0401b000be04000089
:020000040000fa
:0401b400be04000085
:020000040000fa
:0401b800be04000081
:020000040000fa
:0401bc00be0400007d
:020000040000fa
:0401c000be04000079
:020000040000fa
:0401c400be04000075
:020000040000fa
:0401c800be04000071
:020000040000fa
:0401cc00be0400006d
:020000040000fa
:0401d000be04000069
:020000040000fa
:0401d400be04000065
:020000040000fa
:0401d800be04000061
:020000040000fa
:0401dc00be0400005d
:020000040000fa
:0401e000be04000059
:020000040000fa
:0401e400be04000055
:020000040000fa
:0401e800be04000051
:020000040000fa
:0401ec00be0400004d
:020000040000fa
:0401f000be04000049
:020000040000fa
:0401f400be04000045
:020000040000fa
:0401f800be04000041
:020000040000fa
:0401fc00be0400003d
:020000040000fa
:04020800be04000030
:020000040000fa
:04020c00be0400002c
:020000040000fa
:04021000be04000028
:020000040000fa
:04021400be04000024
:020000040000fa
:04021800be04000020
:020000040000fa
:04021c00be0400001c
:020000040000fa
:04022000be04000018
:020000040000fa
:04022400be04000014
:020000040000fa
:04022800be04000010
:020000040000fa
:04022c00be0400000c
:020000040000fa
:04023000be04000008
:020000040000fa
:04023400be04000004
:020000040000fa
:04023800be04000000
:020000040000fa
:04023c00be040000fc
:020000040000fa
:04024000be040000f8
:020000040000fa
:04024400be040000f4
:020000040000fa
:04024800be040000f0
:020000040000fa
:04024c00be040000ec
:020000040000fa
:04025000be040000e8
:020000040000fa
:04025400be040000e4
:020000040000fa
:04025800be040000e0
:020000040000fa
:04025c00be040000dc
:020000040000fa
:04026000be040000d8
:020000040000fa
:04026400be040000d4
:020000040000fa
:04026800be040000d0
:020000040000fa
:04026c00be040000cc
:020000040000fa
:04027000be040000c8
:020000040000fa
:04027400be040000c4
:020000040000fa
:04027800be040000c0
:020000040000fa
:04027c00be040000bc
:020000040000fa
:04028000be040000b8
:020000040000fa
:04028400be040000b4
:020000040000fa
:04028800be040000b0
:020000040000fa
:04028c00be040000ac
:020000040000fa
:04029000be040000a8
:020000040000fa
:04029400be040000a4
:020000040000fa
:04029800be040000a0
:020000040000fa
:04029c00be0400009c
:020000040000fa
:0402a000be04000098
:020000040000fa
:0402a400be04000094
:020000040000fa
:0402a800be04000090
:020000040000fa
:0402ac00be0400008c
:020000040000fa
:0402b000be04000088
:020000040000fa
:0402b400be04000084
:020000040000fa
:0402b800be04000080
:020000040000fa
:0402bc00be0400007c
:020000040000fa
:0402c000be04000078
:020000040000fa
:0402c400be04000074
:020000040000fa
:0402c800be04000070
:020000040000fa
:0402cc00be0400006c
:020000040000fa
:0402d000be04000068
:020000040000fa
:0402d400be04000064
:020000040000fa
:0402d800be04000060
:020000040000fa
:0402dc00be0400005c
:020000040000fa
:0402e000be04000058
:020000040000fa
:0402e400be04000054
:020000040000fa
:0402e800be04000050
:020000040000fa
:0402ec00be0400004c
:020000040000fa
:0402f000be04000048
:020000040000fa
:0402f400be04000044
:020000040000fa
:0402f800be04000040
:020000040000fa
:0402fc00be0400003c
:020000040000fa
:04030000be04000037
:020000040000fa
:04030400be04000033
:020000040000fa
:04030800be0400002f
:020000040000fa
:04030c00be0400002b
:020000040000fa
:04031000be04000027
:020000040000fa
:04031400be04000023
:020000040000fa
:04031800be0400001f
:020000040000fa
:04031c00be0400001b
:020000040000fa
:04032000be04000017
:020000040000fa
:04032400be04000013
:020000040000fa
:04032800be0400000f
:020000040000fa
:04032c00be0400000b
:020000040000fa
:04033000be04000007
:020000040000fa
:04033400be04000003
:020000040000fa
:04033800be040000ff
:020000040000fa
:04033c00be040000fb
:020000040000fa
:04034000be040000f7
:020000040000fa
:04034400be040000f3
:020000040000fa
:04034800be040000ef
:020000040000fa
:04034c00be040000eb
:020000040000fa
:04035000be040000e7
:020000040000fa
:04035400be040000e3
:020000040000fa
:04035800be040000df
:020000040000fa
:04035c00be040000db
:020000040000fa
:04036000be040000d7
:020000040000fa
:04036400be040000d3
:020000040000fa
:04036800be040000cf
:020000040000fa
:04036c00be040000cb
:020000040000fa
:04037000be040000c7
:020000040000fa
:04037400be040000c3
:020000040000fa
:04037800be040000bf
:020000040000fa
:04037c00be040000bb
:020000040000fa
:04038000be040000b7
:020000040000fa
:04038400be040000b3
:020000040000fa
:04038800be040000af
:020000040000fa
:04038c00be040000ab
:020000040000fa
:04039000be040000a7
:020000040000fa
:04039400be040000a3
:020000040000fa
:04039800be0400009f
:020000040000fa
:04039c00be0400009b
:020000040000fa
:0403a000be04000097
:020000040000fa
:0403a400be04000093
:020000040000fa
:0403a800be0400008f
:020000040000fa
:0403ac00be0400008b
:020000040000fa
:0403b000be04000087
:020000040000fa
:0403b400be04000083
:020000040000fa
:0403b800be0400007f
:020000040000fa
:0403bc00be0400007b
:020000040000fa
:0403c000be04000077
:020000040000fa
:0403c400be04000073
:020000040000fa
:0403c800be0400006f
:020000040000fa
:0403cc00be0400006b
:020000040000fa
:0403d000be04000067
:020000040000fa
:0403d400be04000063
:020000040000fa
:0403d800be0400005f
:020000040000fa
:0403dc00be0400005b
:020000040000fa
:0403e000be04000057
:020000040000fa
:0403e400be04000053
:020000040000fa
:0403e800be0400004f
:020000040000fa
:0403ec00be0400004b
:020000040000fa
:0403f000be04000047
:020000040000fa
:0403f400be04000043
:020000040000fa
:0403f800be0400003f
:020000040000fa
:0403fc00be0400003b
:020000040000fa
:100400000fb320000e7f22000e01880000000000c4
:10041000000020000000e000020032000001200087
:100420002002880014000700560107000000e000c9
:1004300003003a00a0fd2100010020000200370067
:100440000000200001002000810f70000100320038
:1004500014000700000020000000e000020032004d
:100460000000020000000000b022020000000000b6
:100470000040da000000fe004440a900403d20009a
:100480000000e000030032000020200090018800fe
:100490004440a800000006008a1f78008b1f7800e7
:1004a00000000600a1028800800478000000eb0034
:1004b0001f003700e284440054a0b4009905ba003c
:1004c000e284440054a0b4009906ba00e2844400d7
:1004d00054a0b4000006eb00476fde00fd07b20039
:1004e000ae018800636ce10003003a00eaff0700f8
:1004f0000000eb000e003700606ce10008003a00dd
:10050000004deb000a05e800020039003420ec0041
:100510000af0a0008b05e900f9ff3e000400370057
:100520006168e100010032000086eb000b0007006b
:1005300019c7ba001905ba000e04e00003003a001a
:100540000a00e000dbff3a0000000600fe07b200f0
:10055000ae0288008a047800f5ff37000cd0a300b3
:10056000e20f4d001c00390089027800354dba00b9
:100570000a05e800020039003420ec000af0a0006f
:100580008b05e9000f003200254dba000a05e8008e
:10059000020039003420ec000af0a0008b05e900cd
:1005a000080032000c00e0000600320015cdba0051
:1005b0000a05e800020039003420ec000af0a0002f
:1005c0008b05e9008984e80054a0b4000b00e0002a
:1005d000e2ff3a00000006009902ba00055d7800cb
:1005e0008b05e900f7ff3200c82ade00055d7800c0
:1005f0008b05e900f3ff32000c00e000f1ff320050
:1006000019ddba00eeff37003205040000000000db
:10061000809fbe000000fa002141800000202000e1
:10062000008060000000e000020032009580a90018
:10063000200037008580a900190037001041800094
:10064000104078000080fb002028880010418000c6
:100650000000e8001041880011418000c08820009f
:10066000808f500002003a00608220001041880014
:1006700021418000f0ef2f000080600020418800c1
:100680001141800000418000808f500004003a003a
:10069000204180000090a000204188000500370024
:1006a0001128800000202000008060000000e00091
:1006b000e2ff32000080fa004f00be00004006005a
:1006c000809fbe000000fa0019003700e040800063
:1006d000312880008140780001487800e0408000a7
:1006e0000000e800e0408800e1408000208f20000a
:1006f000808f500002003a00c0882000e04088004f
:1007000021418000d0ff2f00008060002041880040
:10071000e1408000f0408000808f500004003a00eb
:10072000204180000000a000204188000400370024
:1007300010288000610060000000e000e3ff3a0044
:100740008560a9000080fa004f00be00004006004e
:10075000801f78000000fa0010288000620060000e
:100760000000e000010032000225a9008c20a90051
:100770000080fa004f007800004006003600f800c4
:100780008020a9000000eb006a0f07003600f80087
:100790006c0f07008040a90010002000650f0700c3
:1007a0003600f8008060a90020002000610f0700db
:1007b0003600f8008080a900300020005d0f07009f
:1007c0003600f800809fbe00829fbe00849fbe005e
:1007d000869fbe000000fa005a0e070060408000ad
:1007e0000000e8006040880010c0b3000ae8b700cd
:1007f0008460a9000080fa004f03be004f02be00d3
:100800004f01be004f00be003600f9000040060058
:10081000809fbe000000fa00d14780000020200029
:10082000008060000000e0000200320097e0a900b4
:100830002000370087e0a90019003700c04780007a
:10084000104078000080fb00d0288800c04780005e
:100850000000e800c0478800c147800020962000c3
:10086000808f500002003a00c08f2000c0478800ef
:10087000d1478000f0ef2f0000806000d047880053
:10088000c1478000b0478000808f500004003a00cc
:10089000d04780000090a000d047880005003700b6
:1008a000c128800000202000008060000000e000df
:1008b000e2ff32000080fa004f00be000040060058
:1008c000809fbe000000fa001900370090478000aa
:1008d000e12880008140780001487800904780003e
:1008e0000000e8009047880091478000809c20002d
:1008f000808f500002003a00209620009047880028
:10090000d1478000d0ff2f0000806000d0478800d2
:1009100091478000a0478000808f500004003a007b
:10092000d04780000000a000d047880004003700b6
:10093000c0288000610060000000e000e3ff3a0092
:1009400087c0a9000080fa004f00be0000400600ea
:10095000801f78000000fa00c0288000620060005c
:100960000000e000010032001825a9008c40a90019
:100970000080fa004f007800004006000040da00d6
:100980000000fe0000000500800178000200370032
:10099000b15978000201e9000200e000fcff3a00d2
:1009a00000000600020037000204e0000b003200e5
:1009b000810178000002780030417800b14f510089
:1009c000f9ff32001000200014427800934f5200cb
:1009d000030031000080eb00000006000000eb0087
:1009e0000000060000017800b1417800035978004a
:1009f0000304e000fcff3a000000060080007800dd
:100a0000010178003104e000fdff3a0000005100d0
:100a1000000006000c003700b0417800b1cf510053
:100a200006003200100020009542780094cf52005a
:100a30000b0031000080eb00000006000304e00022
:100a4000060032000201e90001027800800278000d
:100a50000200e000f0ff3a00000005000000eb009b
:100a600000000600881f7800020478000801780062
:100a7000c5ff0700080040004f0478000000060092
:100a80000000fa00881f780000047800ea8157000f
:100a90003fb9970088007800205320000700070026
:100aa0000000e000020035008040eb000174780097
:100ab0004f0478000080fa00000006006200fa008f
:100ac000889fbe008a1f78000005780081047800a6
:100ad000020478008300780080f92f000f004000a6
:100ae000d40307009a979f00a9979f000000eb008e
:100af000b09f9f001885fb008a04fb000a05ea00ee
:100b00004f55de0050022000808f54000d0032004f
:100b1000e10f55000b003a000a01780088007800c8
:100b20002f9097009f91970003000100a0979f00ce
:100b30000000e0008e0032003f9897000000e800bf
:100b4000b09f9f000a04440050022000808f540090
:100b5000040032000900e000e6ff3a003f989700e9
:100b6000840037000000eb00909f9f00809f9f0053
:100b7000f0979f00e0979f00d0979f00c0979f003d
:100b800007003700a1b22000010050000000400023
:100b9000e1b1200061007800df989700010070004b
:100ba000d09f9f00880478000904780038457800b9
:100bb0008a00fb00a0b22000a70107000000e000af
:100bc000f0ff3a00a1c2b300814f55000e003a0079
:100bd000cf8897000180e900c08f9f001000780047
:100be000c09f9f000000e00005003d000000ea00fb
:100bf000c09f9f005f9897000020a000d09f9f009b
:100c00000904e8000f003700c09f9f000000eb00c0
:100c100005003700f2ff2700820f5000020032006b
:100c20006a01b90002804000090478008804780055
:100c3000b900fb000103b100e98f5000f5ff360059
:100c4000c09f9f00e0c2b300984f10000200320026
:100c50000080eb0019003700a0c2b300d84f10008d
:100c600007003a00cf8897000180e900c08f9f00fd
:100c700010007800a09f9f000804e80010003700d3
:100c80000000eb00a09f9f0088007800050037005f
:100c9000f3ff2700830f5000020032006a02b90000
:100ca0000400410001047800880078003101fb0055
:100cb0000203b100e90f5100f5ff3600a09f9f002d
:100cc000984478008900fb0060b1200062010700b1
:100cd0000000e000020032000804e80001003700d4
:100ce0008044eb00c97f9f0080c6b30080cf5400d2
:100cf00004003a0098cf14000a003a006640500001
:100d000006003700c0c6b30080cf540005003a008b
:100d100098cf140003003a0065404000c07f9f0058
:100d20000804e8001801fb00e3fb2f008f8141005d
:100d300081f92f008f804000a0f92f000f004000a4
:100d4000100007000000e00009003a00e1fb2f005e
:100d50008f804000a0f92f000f00400079020700ab
:100d60000000e000020035000804e80061ff3700e1
:100d70000080eb004f0578004f04be000080fa00b1
:100d800000000600889fbe008a1f780000047800db
:100d9000e0c6b300804f5100c100320015003c0096
:100da0006b405000804f5100240032000a003c008c
:100db00070405000804f5100fa0032006540400002
:100dc000804f51006800320050c2b300804f510084
:100dd0000b013a000701370040c6b300804f5100b5
:100de0001b00320065404000804f510004013a0072
:100df0001700370030c7b300804f5100e9003200c0
:100e000007003c0064405000804f51005600320003
:100e10000040e800804f5100f9003a00d30037004d
:100e200050c7b300804f51004f0032006340400074
:100e3000804f5100f2003a004b0037001181e90069
:100e4000820878007800900012417800ea003700ac
:100e500028609000c4c6b300844f500007003a00d9
:100e60001102780064005200800878001002be0071
:100e70004fabde00860378001100370014c7b300c3
:100e8000844f500003003200a4c6b300844f5000ca
:100e900006003a00110278006800520080087800cd
:100ea0003002be002003be00050037001180e900bb
:100eb0008008780010027800cfa2de00612bb90014
:100ec000049cbe000694be002860900081c6b3005a
:100ed000814f50000d00320021c6b300814f5000f9
:100ee00004003a000402fb00cfa2de00612bb9002f
:100ef0000800370041c7b300814f500003003200a3
:100f0000e6c04000814f500004003a00cfa2de004e
:100f1000612bb900049cbe000694be003802be00de
:100f20002803be0078009000d1c2b300e00f520049
:100f3000e08f5a00e00f5b00e08f5b000800350097
:100f4000881090000118a30002003200b1c2b30063
:100f5000030037000108a3004c00320001c2b300b7
:100f6000817178004700370028609000c4c6b30044
:100f7000844f500006003a001102780064005200cd
:100f8000800878001002be006033b80011003700fe
:100f900014c7b300844f500003003200a4c6b3004e
:100fa000844f500006003a00110278006800520099
:100fb000800878003002be002003be000500370024
:100fc0001180e90080087800100278008002eb00b0
:100fd0006033b800049cbe000694be0028609000f8
:100fe00081c6b300814f50000d00320021c6b3000e
:100ff000814f500004003a000482fb008002eb00a5
:101000006033b8000800370041c7b300814f50007b
:1010100003003200e6c04000814f500004003a0057
:101020008002eb006033b800049cbe000694be0052
:10103000081090000038a300140032003802be00ef
:101040002803be00e00f5200e08f5a00e00f5b0063
:10105000e08f5b000d00320080c7b300804f51006d
:101060000300320080c5b300804f510007003a00f2
:101070007800900001c3b300817178000000e8009f
:10108000827178000000e8007004980078009000f9
:101090008081410063049800824078003e00370060
:1010a00028619000c3c6b3001180e900834f51004e
:1010b000220032000a003c00e4c15100834f51007d
:1010c0002500320083c1e800834f51001300320035
:1010d000e8c15100834f51001e003a000a0037005a
:1010e00043c7b300834f51001b003200e6c14100eb
:1010f000834f510018003200e9c15100834f510065
:1011000014003a00050037008008780010007800cd
:10111000485c90000848780041003700800878005b
:1011200010007800680a9000cfa2de00612bb900a1
:101130000498be000690be00390037008008780091
:101140001000780068099000cf91de000288be0090
:10115000330037001180e900800878001000780023
:10116000680c9000080878002d0037001180e90015
:101170008008780010027800cfa2de00612bb90051
:10118000049cbe000694be0078009000808141005f
:101190006304980081c7b300080078003a00070094
:1011a0001f0037001180e9008008780010057800e2
:1011b0006a049800d80c90000900e00004003d008b
:1011c0000a0078000dfe0700800478000700370051
:1011d000090178008000eb000a0078001400070085
:1011e0000000e000010032008a045000190c980051
:1011f0000b003700780090008271780006003700fd
:1012000078009000808141000204e00001003a0073
:1012100052c2b300824978000000e80070049800d0
:101220000000eb004f0578004f04be0000000600f0
:1012300003003700b0cf1000050032000201e900c2
:10124000800178000200e000faff3a00000005008b
:101250000300780000000600020037000304e000ed
:10126000060032000001780002007800b0417800ea
:1012700081cf5100f9ff3a00010037000001eb0077
:101280000200780000000600fc874700889fbe002f
:101290008a9fbe008c9fbe008e1f780000067800db
:1012a00080c5b30080cf50000a0032007740400074
:1012b00080cf50000a0032006940400080cf5000cb
:1012c0000b00320050ae200080bf9f00ae00200017
:1012d0000a00370042ad200082bf9f0006003700a1
:1012e00053ae200083bf9f008e0020000300370014
:1012f00054ae200084bf9f000e0120003c02be00bf
:101300002c03be000605be000404be0040c6b300a8
:1013100080cf5000030032006540400080cf500075
:101320000b003a00e00f5200e08f5a00e00f5b0024
:10133000e08f5b0006003d006000b8006011b8005f
:10134000040450008584580006055900878559001b
:10135000e80f57000400320040002000f00f570053
:1013600038003a000100370030002000e00f540040
:10137000e08f5c00e00f5d00e08f5d0004003a004c
:10138000dc0890008d0120000100e0000600320022
:101390008e00e900888060008fba9700e5c0780071
:1013a000f1ef9f007d012000800078008100e900be
:1013b000050033008b05d1000a85d3008984d30052
:1013c0000884d300f9ff3700089ebe000a96be00cd
:1013d000120037008d06e9008e00e900848060006d
:1013e0000fb99700e2c1780082fd2f000f01410084
:1013f00003f17e00800078008100e90005003300e1
:101400008783d1000683d3008582d3000482d30072
:10141000f9ff3700049ebe000696be003c02be00e7
:101420002c03be00e00f5200e08f5a00e00f5b007b
:10143000e08f5b008b0034000d00e000e5ff3c0016
:10144000880037002c60900081c6b300814f5000a7
:101450000b00320006003c000004e00008003200ef
:10146000e6c05000814f50004e003a0004003700a3
:10147000c1c6b300814f50004a003a002100370036
:101480000800e00004003a005c0890008d01200094
:101490000000e00006003200110009000e84d800b0
:1014a0000fb99700e2c07800f1ef9f007d012000a6
:1014b000110009000e84d8000a003700110009004d
:1014c0000e04d8008d06e9000e81b9000204540014
:1014d0008fb8970061417c0081fd2f008f80400014
:1014e00082f07e00000478000800e0000200320074
:1014f0000d00e000f1ff3c00cfc4de00614db900fb
:1015000025003700e00f5400e08f5c0004003a0033
:101510005c0890008d0120000000e0000700320010
:101520006171b9000800be00630107008fb9970020
:10153000e3417800f3ef9f007d0120006171b90065
:101540000800be004c0107000b0037006171b900b4
:101550000800be00390107008d06e90000f1b9005e
:10156000020454000fba9700e4427c0084fd2f006f
:101570000f02420005f27e000004be00e00f5000a2
:10158000e08f5800020032000d00e000efff3c0049
:101590004fcdde008a057800089ebe000a96be0088
:1015a00030003700e00f5400e08f5c00e00f5d007a
:1015b000e08f5d0004003a005c0890008d0120007f
:1015c0000000e000090032006172b900612bb9002f
:1015d0000800be000a01be00da0107000fba97003a
:1015e00064427800f4ef9f007d0120006172b90031
:1015f000612bb9000800be000a01be00ca01070045
:101600000d0037006172b900612bb9000800be00ff
:101610000a01be00cf0107008d06e90000f2b90003
:10162000040454008fba970065427c0085fd2f00aa
:101630008f82420084f27e00009ebe000296be00b1
:101640003c04be002c05be00e00f5400e08f5c009f
:10165000e00f5d00e08f5d00020034000d00e0004f
:10166000e8ff3c00e80f570010003a000c10900013
:101670000038a3000d003200f78f560006003e0030
:1016800085fd2f008f824200e5c07e0000c3b300bd
:1016900080cf5000050032008d06e90002c3b30080
:1016a00081fd2f008f80400082f07e00788116003f
:1016b000120e98006c00900083fd2f008f81410076
:1016c0008d804100b0fc07001c089000dc089000f1
:1016d000810f500006003d0000805000000e980071
:1016e0000c1090000040a100001698000f00370079
:1016f0000100e0000d003d008c109000f4806000bf
:10170000f08f500009003a007c099000fc00900026
:10171000810051000c099000828050000080500030
:101720004240a90001003400000e98004f077800e5
:101730004f06be004f05be004f04be00cf01b100f2
:10174000000006000400fa00889fbe008a9fbe00c9
:101750008c1f78000004780001067800f80d9000d6
:10176000780090008085550008089000808555001d
:101770001808900080855500280890008085550045
:1017800038089000808555004808900080855500f5
:101790000002220090bf9f0000032300a0bf9f0013
:1017a000081090000028a30015003a000b00e0008c
:1017b000130034000b0578008a047800e20f55000e
:1017c0000100360029002000c801900009017800be
:1017d000ee8057005800900003000100500498006c
:1017e0000000e0008c003200680890000900400012
:1017f000600c9800090555004240a900eeff3c002e
:10180000780190000200e0000c003400c801900054
:101810008c007800580090000300010050049800ec
:101820008080eb000000e0007c003200e8089000bf
:101830007800900000804000600c9800880c9000b8
:101840000900e0001100340009057800e28f54001f
:10185000010036002a002000c80190000a0178002b
:10186000ec805700580090000300010050049800dd
:101870000000e00068003200680890000a004000a4
:10188000600c98008a845400edff3700180990001e
:101890000200e0000c003400c8019000e800900055
:1018a0005800900003000100500498008080eb0075
:1018b0000000e00059003200e8089000180890008d
:1018c00000804000600c9800a80c90000900e00027
:1018d0001100340009057800e28f54000100360041
:1018e0002a002000c80190000a017800ec8057000f
:1018f0005800900003000100500498000000e00030
:1019000045003200680890000a004000600c980012
:101910008a845400edff3700380990000200e0008f
:101920000e003400e800900018089000808040000d
:10193000c801900058009000030001005004980076
:101940008080eb000000e00034003200e8089000e6
:101950003808900000804000600c9800c80c90008f
:101960000900e0001100340009057800e28f5400fe
:10197000010036002a002000c80190000a0178000a
:10198000ec805700580090000300010050049800bc
:101990000000e00020003200680890000a004000cb
:1019a000600c98008a845400edff37000810900006
:1019b0008000eb000028a300180032000b00e000bc
:1019c000160034008b04780009057800e28f54007b
:1019d000010036002a002000c80190000a017800aa
:1019e000ee8057005800900003000100500498005a
:1019f0000000e00008003200680890000a00400083
:101a0000600c98008a8454004240a900eeff3c001c
:101a10008000eb00010037008080eb0001007800bf
:101a20004f0678004f05be004f04be000080fa004c
:101a3000000006000108780000000600839f68008f
:101a40000100e00002003d0060001000e08018008e
:101a50000300e00002003d0060011100e081190078
:101a6000050007004f00e00002003b00600010008e
:101a7000e0801800000006006022b8000602200086
:101a80000000d0008180d2000482d2008582d20082
:101a90000000a0000202520083825a0003003100bd
:101aa0000202420083824a000000a1000603e9000e
:101ab000f3ff3a0000000600efff07000400be003d
:101ac00000000600889fbe008a9fbe0030044200ce
:101ad000b0844a0030054b0090854b006000b10097
:101ae0000898be000a90be000440e10005c8e1006d
:101af00006d0e10007d8e100020031006800400094
:101b00001008e8004f05be004f04be0000000600ac
:101b1000889fbe008a9fbe003004be002005be0024
:101b20000418540005985c0006185d0007985d00d5
:101b3000110020000440e10005c8e10006d0e100ea
:101b400007d8e100010039008000eb001088100088
:101b50004f05be004f04be00000006001200fa0050
:101b6000889fbe008a9fbe008c9fbe00e0b79f008a
:101b7000f1b79f0082bf9f0093bf9f000605be0084
:101b80000404be000000eb00d0b79f00c0b79f0068
:101b9000b0b79f00a0b79f0090b79f000006eb0072
:101ba0005fb19700cfb09700820141003fb097002e
:101bb0000200e00004003d00370007007e8057006f
:101bc000c0ff070003003700330007007e80570086
:101bd000cfff0700dfb697000d00e0000c003500d6
:101be0006fb29700ffb297000fbb97009fbb9700a3
:101bf00010002000010020006011b80000027200f7
:101c00008182720002037300838373001b0007004c
:101c10000c06e80001042000810f5600e0ff3a00a6
:101c20000d00e00004003d000802be000a03be00f3
:101c30007e805700a3ff07005fa897000000e00028
:101c400005003a001fb29700afb297003fb397006c
:101c5000cfb39700090007006fb09700ffb097005f
:101c60000fb997009fb997004f06be004f05be0001
:101c70004f04be000080fa000000060001000700cb
:101c800000000600a4b79f00b5b79f00c6b79f002d
:101c9000d7b79f00000006004f09de008281710067
:101ca000b3b79f004f01de0081804000828070004a
:101cb000a1b79f008fb097004f09de0000004000e1
:101cc0000200700090b79f007fa897004f01de00d0
:101cd000818040008280700081b79f000d00070066
:101ce0004f3ade000000400004007000f0af9f009b
:101cf000080007000402420085824a0006034b00e8
:101d000087834b00dfff07000802be000a03be0006
:101d1000000006002fb29700bfb297004fb39700a4
:101d2000dfb3970000000600881f7800180020002d
:101d3000881f780089ff07008f87e9004f0478002b
:101d400000000600801feb0084ff07008f87e9007a
:101d500000000600889fbe008a9fbe00e00f500072
:101d6000e08f5800e00f5900e08f59000c003d0053
:101d70006044b8006055b8000000540081805c00e9
:101d800002015d0083815d0018002000150007003e
:101d900008003d00180007000004eb0005003700b4
:101da0000004eb000f00070002003d0012000700d6
:101db00018002000dcff07000800e00006003200e9
:101dc0006022b8006033b8000000520081805a00e1
:101dd00002015b0083815b004f05be004f04be0023
:101de00000000600e00f5200e08f5a00e00f5b0099
:101df000e08f5b00000006006044b8006055b8004a
:101e00000402540085825c0006035d0087835d0048
:101e100000000600889fbe008a9fbe008c1f7800cd
:101e2000e00f5000e08f5800e00f5900e08f59009c
:101e30000d003d006044b8006055b800000054003b
:101e400081805c0002015d0083815d001c00200038
:101e50000820e10009a8e1000ab0e1000bb8e100a8
:101e60000d003d00080037000006eb00e00f5200b7
:101e7000e08f5a00e00f5b00e08f5b0006003d0042
:101e80006044b8006055b8000402540085825c00cc
:101e900006035d0087835d00aaff07000c00e000d9
:101ea000060032006022b8006033b8000000520023
:101eb00081805a0002015b0083815b004f0678003d
:0c1ec0004f05be004f04be0000000600ed
:020000040000fa
:101ecc002b43000052450000473a00002030000030
:101edc002c31000000410000542b00004352000044
:101eec00454700003f0d00000a0000004f4b00006a
:101efc000d0a000000410000542b0000534100006b
:101f0c0050420000523d0000332c0000312c0000e8
:101f1c00224300006f6e00007479000070650000b1
:101f2c00222c0000224700005052000053220000d7
:101f3c000d0a000000410000542b0000534100002a
:101f4c0050420000523d0000332c0000312c0000a8
:101f5c0022410000504e0000222c000022250000df
:101f6c00732200000d0a000000410000542b0000f9
:101f7c005341000050420000523d0000312c000043
:101f8c00310d00000a0000002b53000041500000ee
:101f9c00425200003a200000312c000031000000b9
:101fac00415400002b5300004150000042520000ed
:101fbc003d3200002c3100000d0a000000410000f1
:101fcc00542b00004854000054500000494e0000af
:101fdc00495400000d0a000000410000542b000081
:101fec005341000050420000523d0000302c0000d4
:101ffc00310d00000a000000415400002b48000085
:10200c005454000050540000455200004d0d000087
:10201c000a000000415400002b48000054540000fa
:10202c005044000041540000413d00002564000074
:10203c002c250000640d00000a000000444f000035
:10204c00574e00004c4f000041440000002c000093
:10205c0032580000582c000000410000542b0000a6
:10206c004854000054500000414300005449000003
:10207c004f4e00003d3100000a00000041540000aa
:10208c002b48000054540000505200004541000001
:10209c00440d00000a000000415400002b480000d1
:1020ac00545400005050000041520000413d0000cb
:1020bc002243000049440000222c0000310d000096
:1020cc000a000000415400002b480000545400004a
:1020dc005050000041520000413d000022550000cc
:1020ec00524c0000222c000022250000732200001c
:1020fc000d0a00000068000074740000707300008a
:10210c003a2f00002f000000415400002b48000023
:10211c005454000050530000534c00003d3100005b
:10212c000d0a000000410000542b00004854000030
:10213c0054500000535300004c3d0000300d000083
:10214c000a000000415400002b48000054540000c9
:10215c005050000041520000413d0000224300005d
:10216c004f4e0000544500004e540000222c00003d
:10217c0022610000707000006c6900006361000057
:10218c00746900006f6e00002f6a0000736f00000e
:10219c006e2200000d0a00000000000041540000f7
:1021ac000d0a00000041000054450000300d0000f5
:1021bc000a000000415400002b430000504900006d
:1021cc004e3f00000d0a000000410000542b00009f
:1021dc00434d0000474600003d3100000d0a000051
:1021ec0000410000542b00004349000050480000ff
:1021fc0045410000443d0000310d00000a00000084
:10220c00415400002b430000495000005352000081
:10221c00495000003d3100000d0a00000041000053
:10222c00542b000043530000545400003d22000086
:10223c006d5f000077610000702200002c2200000e
:10224c006d6d0000732200002c2200006d6d0000eb
:10225c00732200000d0a000000410000542b000006
:10226c004349000049430000520d00000a000000e1
:10227c00415400002b43000049460000535200001b
:10228c000d0a000000410000542b000043490000df
:10229c005053000054410000525400003d0d00000a
:1022ac000a000000415400002b430000495000007c
:1022bc0053480000555400000d0a00000041000076
:1022cc00542b00004349000050500000494e0000c0
:1022dc00473d000022770000777700002e67000052
:1022ec006f6f0000676c0000652e0000636f0000cc
:1022fc006d2200000d0a00000067000070720000e3
:10230c00732000006f6e00000d0a000000670000d3
:10231c007072000073200000696e00006974000088
:10232c000d0a000000720000656100006479000075
:10233c00207400006f2000006f6e00006c690000bc
:10234c006e6500000d0a0000006700006574000057
:10235c0020690000700d00000a000000636100009d
:10236c006e2000006e6f000074200000636f000090
:10237c006e6e000065630000740d00000a00000022
:10238c006f6e00006c6900006e6500002073000029
:10239c007563000063650000737300000d0a000094
:1023ac0000670000657400002069000070200000c8
:1023bc0061670000616900006e0d00000a000000fa
:1023cc00636100006e6e00006f74000020670000f7
:1023dc006574000020690000700d00000a00000008
:1023ec004f4b000000450000525200004f520000bd
:1023fc0000410000542b0000434d000047530000e7
:10240c003d220000002200000d0a0000000d00001b
:10241c000a000000736500006e7300006f7200000c
:10242c0000730000656e0000736f000072200000e6
:10243c00636100006c690000620d00000a0000007e
:10244c007379000073740000656d00000073000068
:10245c0079730000746500006d200000636100005a
:10246c006c690000620d00000a000000677000003b
:10247c00727300000063000068650000636b00006d
:10248c002067000070720000730d00000a0000004d
:10249c006e6f0000726d0000616c00000072000035
:1024ac0065740000757200006e200000746f0000ef
:1024bc00206e00006f7200006d6100006c0d00005a
:1024cc000a000000706f00007374000000730000bd
:1024dc006d730000007300006d7300002066000037
:1024ec00696e00006973000068000000303900005c
:1024fc00303300003136000035330000303200003c
:10250c00007700006861000074000000796500002d
:10251c00616800000052000065730000756c0000db
:10252c00743a000020250000640000006265000081
:10253c00676900006e0d00000a000000687400005e
:10254c00747000003a2f00002f630000726d0000c1
:10255c00642e000063720000617a00007974000040
:10256c00656500006e730000686f0000702e00003f
:10257c00636f00006d0000004854000054500000d0
:10258c00206300006f6e00006e6500006374000035
:10259c003a0d00000a000000417200006475000052
:1025ac00696e00006f0000007b2200006e6100006d
:1025bc006d650000223a0000202200002573000007
:1025cc00227d00000068000074740000703a000066
:1025dc002f2f0000637200006d6400002e6300005a
:1025ec00726100007a79000074650000656e00006d
:1025fc00736800006f7000002e6300006f6d0000a8
:10260c002f610000706900002f760000312f000050
:10261c0061750000746800002f6c00006f6700008b
:10262c00696e000000480000545400005020000067
:10263c00504f0000535400003a20000000000000ee
:10264c002074000065730000742e00002e2e000014
:10265c002e2e00002e2e00002e2e00002e2e0000fe
:08266c00200d00000a0000002f
:020000040000fa
:102674000000fa00400d290040528800900d290006
:1026840050528800000e290060528800400d290035
:1026940070528800b00e290080528800700f290003
:1026a4009052880060102900a0528800501129001f
:1026b400b052880030132900e0528800e01329004a
:1026c400f0528800901429000053880080152900d6
:1026d4001053880050162900205388000080fa0007
:1026e400000006000200fa000068ef000000eb00a2
:1026f400000f780005003700809c20001e00400079
:102704008040eb00014878001e0fe80001c8bf00bc
:102714000000fb009e0f5000f7ff3c000168ef0033
:102724000080fa00000006000400fa001007980078
:102734000040eb00004f780000c8bf000004e00038
:10274400080032009e009000809c200094f807004e
:102754000000e00002003a0010c0b300004f78000f
:10276400e0ff07001e4078000080fa000000060029
:102774000400fa00100798000040eb00004f7800b6
:1027840000c8bf000004e000060032009e00900074
:10279400809c200092f8070010c0b300004f78001e
:1027a400d0ff07001e4078000080fa0000000600f9
:1027b4000200fa00881f7800cb0407000004a2007e
:1027c4000004e0001e003200fb030700004f780005
:1027d4001e407800e00407001e407800ea4f5000d5
:1027e400030032001e407800ed4f500006003a000e
:1027f40001c8bf000004e0000300320010c0b300b1
:1028040000e8b7000e0037001e407800ff4f50006c
:102814000b003600e0c7b3009e40780080cf500024
:1028240007003e0001c8bf008000fb009e41780005
:10283400829c200003f178000040e80001e8b70022
:1028440070408000e20f500045003200e20f50005b
:1028540005003e000000e00008003200e10f5000d7
:1028640027003200de003700e40f500097003200ea
:10287400e40f500067003900d9003700710c800064
:1028840000022000008060000000e00003003a0025
:102894008ea1a8004306070010408800710c800038
:1028a40000022000008060000000e000bf00320051
:1028b40011408000f07022000084400039060700b7
:1028c400800f5400040035003606070011408000d4
:1028d400810f5000b7003d00320607001040880009
:1028e40010c8bf000004e0000200320030182900c4
:1028f400a00407001000200070408800b8003700d2
:102904008ea1a90011408000f070220000844000d4
:1029140024060700800f5400040035002106070038
:1029240011408000810f5000a4003d001d060700e7
:10293400104088000828ef0010c0b30006e8b70074
:10294400200020007040880010c8bf000004e00090
:102954009c003200d018290086040700a00037002c
:1029640006c8bf000004e0000c0032000668ef0057
:10297400404080000001400081a42000810041000b
:10298400910078000000e8004040880001007800d1
:10299400a90007000306070010408800404080009b
:1029a400e70f50000d00340010c8bf000004e00021
:1029b40002003200901929006e0407000668ef0037
:1029c400301329009c000700f6050700104088001a
:1029d40030002000704088008100370010408000e3
:1029e400783e200000044400ee050700800f5400e8
:1029f40004003500eb05070011408000810f5000f2
:102a040072003d00e7050700104088000e28ef0023
:102a14007300370006c8bf000004e0000e00320057
:102a240010c8bf000004e00002003200b01a290000
:102a3400500407000668ef00e01329007e00070039
:102a4400d8050700104088000428ef00400020004b
:102a5400704088006200370011408000f07c200044
:102a640000844000cf050700800f540004003500a7
:102a7400cc05070011408000810f500007003d0085
:102a8400c805070010408800204080000000e800ce
:102a9400204088003013290067000700214080008f
:102aa400c0032000808f50004a00340010c8bf00cb
:102ab4000004e00002003200401b29002d0407003e
:102ac4000e28ef000428ef004500370000c8bf00bf
:102ad4000004e00015003200809c20009040780043
:102ae40090c3b30080cf500010003c00809c2000b5
:102af40090407800f0c2b30080cf50000b00340047
:102b040010c8bf000004e00002003200601c29006d
:102b140018040700f3fe0700a20507001040880010
:102b240070002000704088002d00370011408000a4
:102b3400f07c2000008440009a050700800f5400b8
:102b4400040035009705070011408000810f5000f4
:102b54000c003d00930507001040880020408000d1
:102b64000000e8002040880010c8bf000004e00016
:102b740002003200701d2900fe030700e013290043
:102b84002d00070020408000f40f50001300340093
:102b940010c8bf000004e00002003200601e2900db
:102ba400f40307000e28ef000d00370000000000ba
:102bb4000b0037000000000009003700000000008f
:102bc4000700370000000000050037000000000087
:102bd400030037000000000001003700000000007f
:102be40000c8bf000004e00010003200611f29008b
:102bf400809c20006af707000000e00003003a0010
:102c040010c0b30006e8b70007003700911f290081
:102c1400809c200062f707000000e00002003a00f8
:102c240010c0b30007e8b700aefe07004f047800f9
:102c34000080fa00000006000200fa00000f78008d
:102c44001e0078006cf70700800078001e007800f2
:102c54002b0307000080fa00000006000400fa00bd
:102c6400000f780011079800f01f2900f2ff0700f9
:102c74001e007800f0ff070090202900eeff0700f7
:102c8400400620008e0507001e009000eaff0700a2
:102c9400a0c1b300fe020700d0202900e6ff070010
:102ca4000080fa00000006000600fa0010079800f1
:102cb400210798000000eb00000f780006003700a1
:102cc4001e0078009e009000008040008040eb00d1
:102cd400014878001e0fe8002e0090009e00780046
:102ce400808f5000f6ff35000080fa0000000600d7
:102cf4000800fa001007980021079800320798008e
:102d04001e0090009b0307001e009000caff0700ee
:102d14000000eb00000f7800010037000000000005
:102d240010002000660507002e0090007efe0700bc
:102d34000004e0000200320010c0b30006003700b7
:102d44001e0fe8003e0090009e007800808f500027
:102d5400f2ff34000040eb000080fa00000006009f
:102d64004800fa003027980010002000000f780077
:102d74000000eb0010079800a00020002007980036
:102d84000b0037001e0090000000e80010079800b8
:102d9400803e20004a0507009e0090002e0090000f
:102da400808f500002003a0040012000000f78009c
:102db400027d200061f6280010f72800ccff0700f0
:102dc4000004a2000004e000040032009e00900011
:102dd4002e009000808f5000eaff3900027d200011
:102de400c1f7280010f82800c1ff07000004a20062
:102df4000004e0000200320020002000000f7800f0
:102e040066004700be209000811f780011fa280058
:102e1400811f780019f70700e48757006600470010
:102e2400027d2000c1f72800b1ff07000004a200c2
:102e34000004e0000200320030002000000f78009f
:102e44001e0078000080fa00000006000600fa0068
:102e540010002000000f78000000eb00100798001d
:102e6400a0002000200798000f0037001e009000eb
:102e74000000e80010079800027d2000c1f7280038
:102e8400b0fb28009aff07000004a2000004e00041
:102e94000300320040002000000f780002003700d9
:102ea40010002000000f7800027d2000a1fc280003
:102eb40060fd28008eff07000004a2000004e0006b
:102ec400040032009e0090002e009000808f50007d
:102ed400e6ff3900027d2000c1f7280050fe2800db
:102ee40083ff07000004a2000004e0000200320097
:102ef40070002000000f78001e0078000080fa00a7
:102f0400000006000200fa0010002000000f780004
:102f1400027d2000c1f7280030ff280074ff07005d
:102f24000004a2000004e00002003200600020005f
:102f3400000f7800027d2000c1f72800200029003e
:102f44006bff07000004a2000004e000020032004e
:102f5400c0002000000f78001e0078000080fa00f6
:102f6400000006002a00fa00201798003117980084
:102f7400421798002e1090002e000700000f7800d2
:102f840000712200100798003e1090009af6070086
:102f9400800078006400470002712200821f7800dc
:102fa400811f780001012900811f7800b3f6070012
:102fb400e687570064004700027d20004102290093
:102fc4004bff07000004a2000004e00002003200ee
:102fd400e0002000000f7800401f2000b804070024
:102fe4003e10900014ff07001e00900000017800be
:102ff400d1022900300329003dff07000004e0004e
:1030040007003200400429000bff07004e10900017
:103014004b00070010002000000f7800020037006a
:10302400d0002000000f78001e0078000080fa0015
:10303400000006008600fa0020879800027d200028
:10304400c1f728002005290029ff07000004a20079
:103054000004e0000200320080002000000f78002d
:1030640063004700ae809000811f7800810629002c
:10307400811f780081f60700e4875700630047004a
:10308400027d2000c1f7280019ff07000004a200f8
:103094000004e0000200320090002000000f7800dd
:1030a40082002000ae8090001008290058f6070026
:1030b40000f0a7000000ea000000e9004f00de0075
:1030c400204798002e4090000004e00002003200e7
:1030d400a00829000100370090092900027d200082
:1030e400c1f7280002ff07000004a2000004e0006a
:1030f400070032002e4090000004e000020032007d
:10310400200120000100370030012000000f78006a
:10311400027d2000c1f72800800a2900f4fe070080
:103124000004a2000004e00002003200f0002000cd
:10313400000f78001e0078000080fa0000000600ee
:103144008200fa0000879800010820000e00780031
:10315400d5fe0700210020000e809000d2fe07005b
:103164000e00780082fd07000004e0000400320035
:103174000e819000010820000e0078000200070074
:103184000080fa00000006001200fa0060079800b0
:1031940071079800020f98000000eb00000f780000
:1031a4000000eb00100798000e0037001e0090008e
:1031b400ee0090000080400090407800214f98007d
:1031c400ae489000b0c7b30080cf500002003a0070
:1031d4009e009000010f78001e0090000000e8009f
:1031e400100798009e0090007e0090000000e90007
:1031f400808f5000030031001e0078000000e000c2
:10320400eaff32000000eb00200798007e009000e7
:103214000000e900300798000e0037003e009000df
:10322400ee0090000080400090407800314f9800fc
:10323400be489000d0c7b30080cf500002003a00cf
:10324400be009000210798003e0090000000e900b5
:10325400300798003e0090000000e00003003500b5
:103264002e0090000000e000ecff32000000eb00b4
:1032740040079800120037004e0090008e0890001e
:1032840000804000ce0090009e8040006e019000bf
:103294008100410091407800014878004e00900080
:1032a4000000e8008e089000008040008040eb00a1
:1032b400014878004e0090000000e80040079800a4
:1032c4002e0090001e0050008080e8004e00900008
:1032d400808f5000e8ff3c000080fa0000000600e8
:1032e4000000fa0080002000002888000225ef007a
:1032f400f0052000402888000a25ef000c25ef0087
:103304000e25ef001025ef001225ef001425ef0025
:103314009560a80001e5a8000345a800608220008c
:10332400104188006082200000418800c08820008d
:10333400f0408800c0882000e040880020418000e0
:103344000010a00020418800204180000090a000cf
:103354002041880021418000f0ef2f0000806000b0
:103364002041880021418000e0ff2f0000806000a0
:10337400204188000080fa00000006000200fa00e4
:103384000040eb00004f7800f0408000104f7800c0
:10339400f04080000000e800f0408800f140800028
:1033a400208f2000808f500002003a00c088200047
:1033b400f0408800f1408000e0408000808f5000a1
:1033c40003003a00204180000010a0002041880042
:1033d40021418000e0ff2f00008060002041880030
:1033e4001e4078000080fa00000006000600fa0083
:1033f400881f780010079800210798000000eb0050
:10340400000f78000900370020418000620060004e
:103414000000e0000a003a001e0090001e04400074
:10342400d6ff0700004c78001e0fe8002e00900025
:103434009e007800808f5000f3ff390001003700b0
:10344400000000001e0078004f0478000080fa009d
:10345400000006000200fa00004f78009580a900e1
:10346400004180001e487800004180000000e80010
:103474000041880001418000c0882000808f5000f6
:1034840002003a006082200000418800214180004f
:10349400f0df2f000080600020418800114180008f
:1034a40000418000808f500003003a0020418000da
:1034b4000080a000204188009580a8000080fa00c8
:1034c400000006000600fa00100798002107980083
:1034d4000000eb00000f78000a0037002141800053
:1034e40000102000008060000000e0000a003a00a4
:1034f4001e0090001e004000104078001e0fe800df
:10350400d4ff07002e0090009e007800808f5000aa
:10351400f2ff390001003700000000001e007800af
:103524000080fa00000006000200fa000000eb0030
:10353400000f78002141800000102000008060000e
:103544000000e000010032001e30a0002141800094
:1035540000202000008060000000e0000100320034
:103564001e40a00020418000610060000000e000d7
:10357400010032001e00a0002041800062006000b3
:103584000000e000020032001e20a000010037000d
:103594001e10a0001e0078000080fa000000060043
:1035a4000200fa00000f7800f04080009e00400006
:1035b400208f2000808f500008003600f0408000eb
:1035c4009e004000208f20000000ea0000804000a0
:1035d400c18820006140780003003700f04080007b
:1035e4001e004000104078000080fa000000060031
:1035f4000000fa0020418000610060000000e0004b
:103604000f003a00f1408000e0408000808f5000bd
:1036140005003600f040800080007800e040800023
:103624000080500007003700f040800080007800e0
:10363400e0408000008050006006b00001003700c8
:103644000000eb000080fa00000006000000fa0011
:103654002141800000102000008060000000e00094
:103664000f003a001141800000418000808f50001b
:103674000500360010418000800078000041800081
:10368400008050000700370010418000800078005f
:1036940000418000008050006006b0000100370047
:1036a4000000eb000080fa00000006000000fa00b1
:1036b400204180000000d100614060000080fb00d8
:1036c40000f0a7000000ea000000ea004f00de005e
:1036d400004078000080fa00000006000000fa00b4
:1036e400204180004800de00614060000080fb0053
:1036f40000f0a7000000ea000000ea004f00de002e
:10370400004078000080fa00000006000000fa0083
:10371400102880000080fa00000006000000fa0073
:1037240080002000b02888001825ef00f005200054
:10373400f02888002025ef002225ef002425ef0043
:103744002625ef002825ef002a25ef0097c0a800c2
:1037540017e5a8001945a800c08f2000c0478800bd
:10376400c08f2000b047880020962000a047880022
:103774002096200090478800d04780000010a000c9
:10378400d0478800d04780000090a000d047880030
:10379400d1478000f0ef2f0000806000d047880000
:1037a400d1478000e0ff2f0000806000d0478800f0
:1037b4000080fa00000006000200fa000040eb005e
:1037c400004f7800a0478000104f7800a047800089
:1037d4000000e800a0478800a1478000809c2000ea
:1037e400808f500002003a0020962000a0478800f5
:1037f400a147800090478000808f500003003a006a
:10380400d04780000010a000d0478800d147800036
:10381400e0ff2f0000806000d04788001e40780041
:103824000080fa00000006000600fa00881f7800f5
:1038340010079800210798000000eb00000f7800a3
:1038440009003700d0478000620060000000e000fb
:103854000a003a001e0090001e044000d6ff070034
:10386400004c78001e0fe8002e0090009e007800a7
:10387400808f5000f3ff3900010037000000000082
:103884001e0078004f0478000080fa000000060053
:103894000200fa00004f780097e0a900b0478000ca
:1038a4001e487800b04780000000e800b047880058
:1038b400b147800020962000808f500002003a001b
:1038c400c08f2000b0478800d1478000f0df2f0070
:1038d40000806000d0478800c1478000b047800066
:1038e400808f500003003a00d04780000080a00081
:1038f400d047880097e0a8000080fa000000060086
:103904000600fa0010079800210798000000eb0059
:10391400000f78000a003700d14780000010200013
:10392400008060000000e0000a003a001e009000e1
:103934001e004000104078001e0fe800d4ff07006e
:103944002e0090009e007800808f5000f2ff390016
:1039540001003700000000001e0078000080fa001b
:10396400000006000200fa000000eb00000f7800df
:10397400d147800000102000008060000000e000bb
:10398400010032001e30a000d1478000002020003a
:10399400008060000000e000010032001e40a00032
:1039a400d0478000610060000000e00001003200a8
:1039b4001e00a000d0478000620060000000e0000c
:1039c400020032001e20a000010037001e10a000db
:1039d4001e0078000080fa00000006000200fa00d1
:1039e400000f7800a04780009e004000809c2000cb
:1039f400808f500008003600a04780009e004000e1
:103a0400809c20000000ea000080400021962000f5
:103a14006140780003003700a04780001e0040008a
:103a2400104078000080fa00000006000000fa0050
:103a3400d0478000610060000000e0000f003a0001
:103a4400a147800090478000808f50000500360019
:103a5400a0478000800078009047800000805000dc
:103a640007003700a047800080007800904780005e
:103a7400008050006006b000010037000000eb0039
:103a84000080fa00000006000000fa00d147800020
:103a940000102000008060000000e0000f003a00e9
:103aa400c1478000b0478000808f50000500360079
:103ab400c047800080007800b0478000008050003c
:103ac40007003700c047800080007800b0478000be
:103ad400008050006006b000010037000000eb00d9
:103ae4000080fa00000006000000fa00d0478000c1
:103af4000000d100614060000080fb0000f0a700de
:103b04000000ea000000ea004f00de0000407800f8
:103b14000080fa00000006000000fa00d047800090
:103b24004800de00614060000080fb0000f0a70058
:103b34000000ea000000ea004f00de0000407800c8
:103b44000080fa00000006000000fa00c02880008f
:103b54000080fa00000006000200fa00004f78001e
:103b64008421a8001e4078003afe07000080fa0075
:103b7400000006000200fa00000f78008421a8006b
:103b84001e0078009cf30700800078001e00780077
:103b94004cfe07000080fa00000006000400fa0052
:103ba4001128800000102000008060000000e00068
:103bb400010032008421a900bcfe07000004a20019
:103bc4000004e0001c003200ecfd070020479800d0
:103bd4002e409000ea4f5000030032002e40900027
:103be400ed4f500006003a0013c8bf000004e00087
:103bf4000300320010c0b30012e8b7000e00370013
:103c04002e409000ff4f50000b003400ae40900057
:103c1400f0c7b30080cf50000700320013c8bf00c4
:103c24008000fb0002a72000ae41900003f1780061
:103c34000040e80013e8b70012c8bf000004e00029
:103c44005d0032001268ef000121290000a7200066
:103c540053f307000000e00005003a0020002000b4
:103c6400a040880070212900c2ff070045003700ea
:103c74006122290000a7200049f307000000e000aa
:103c840005003a0020002000a0408800d02229002e
:103c9400b8ff07003b003700c123290000a720001c
:103ca4003ff307000000e00005003a001000200088
:103cb400a040880010242900aeff0700310037001f
:103cc400e124290000a7200035f307000000e000ec
:103cd40004003a001428ef0050252900a5ff07002e
:103ce400280037008126290000a720002cf30700b4
:103cf4000000e00002003a003e0007002100370007
:103d0400d126290000a7200025f307000000e000c9
:103d140004003a0011272900c0272900cffb07001f
:103d240018003700a0408000e10f50000d00320061
:103d3400e10f5000120031007128290000a7200073
:103d440017f307000000e00003003a00c028290030
:103d540088ff07000b00370000a7200085ff07003d
:103d64000800370000a72000b3fb0700d0c0b30051
:103d7400c7fe0700a0c0b300c5fe0700010037005e
:103d8400000000000000eb00000f78000500370081
:103d940000a720001e0040008040eb00014878008e
:103da4001e0fe80013c8bf000000fb009e0f500068
:103db400f7ff3c001368ef000080fa0000000600e3
:103dc4005200fa00002f98008e289000811f78007e
:103dd40010292900801f78000e00780027f30700bf
:103de400e48757000e00780062ff07000080fa00a5
:103df400000006007c00fa00c02929005dff0700ce
:103e0400402a2900d6fb0700000f78001e00780026
:103e1400ebff07000dfc0700000f78001e00780080
:103e2400e7ff0700202c290052ff07002002200092
:103e34000e004000212d2900811f7800a12d2900aa
:103e4400811f78000df30700e48757008e80e80097
:103e5400200220000e00400001017800800078005c
:103e6400902e29003ffc0700000f780090312900b4
:103e740040ff07000080fa00000006000000fa007e
:103e840040472800001188000040200010118800dd
:103e940090a02000201188002822ef002a22ef00a1
:103ea40000082000601188009e21ef00101180009e
:103eb4004200de007f40600018e8b7000080fa008e
:103ec400000006000000fa002022a8000080fa008a
:103ed400000006000000fa002022a9000080fa0079
:103ee400000006000600fa002007980000202000c9
:103ef400100798000000eb00000f78000b0037005b
:103f04001e00780000004000ae00900000804000d9
:103f14009e00900091007800010878001e00900037
:103f24000080e800100798001e0fe80018c8bf00c2
:103f34000080fb009e0f5000f1ff3d001e00780042
:103f44000080fa00000006000000fa000010800063
:103f54000080fa00000006000000fa000011800052
:103f640000407800614060000080fb0000f0a70082
:103f74000000ea000000ea004f00de000040780084
:103f84000080fa00000006000200fa00000f78002a
:103f94009e007800411188000080fa0000000600ad
:103fa4000000fa0085a0a9000080fa0000000600c5
:020000040000fa
:103fb4001c080000d600000080000000f60a000083
:103fc400200000008000000016080000020000002d
:103fd40082000000ffff00000a0800000400000047
:103fe40080000000f2080000d600000080000000fd
:103ff400180800000200000080000000c80900004a
:10400400a800000080000000000800000a00000072
:10401400800000000e080000040000008200000080
:1040240001000100000000001a0800000200000066
:1040340080000000700a000064000000800000009e
:10404400120800000400000080000000160b0000ad
:104054001a00000082000000686a6c00747a4c0048
:10406400000001000002000004000800001000002d
:10407400000020002b2d230030000000d40a000093
:104084002200000082000000303132003334350059
:104094003637380039414200434445004600300079
:1040a4003132330034353600373839006162630009
:0c40b400646566000000000000000000d1
:020000040000fa
:1040c0000000fa004c22ef0070e620007012880019
:1040d00000002800801288008460a9009460a80075
:1040e0000a68ef000080fa00000006000200fa00f3
:1040f000000f78009e007800711288000a68ef00b7
:104100000080fa00000006000000fa007012800033
:104110000080fa00000006000200fa00000f78009c
:104120009e007800611288000a68ef000080fa00a3
:10413000000006000000fa00601280000080fa0013
:10414000000006000000fa000080fa0000000600ef
:104150000000fa000a68ef009460a80051e2a8008d
:104160000080fa00000006000000fa0051e2a900f9
:104170009460a9000080fa00000006000200fa0026
:10418000a180200091407800014f78001e40780007
:104190000004e000010032000a68ef001e407800d1
:1041a0000080fa00000006000000fa006040800075
:1041b0000080fa00000006000000fa000c28ef0062
:1041c0000080fa00000006000000fa003000200025
:1041d000200c8800000a2000700c8800c00020001d
:1041e000000c8800f0f02e00500c88005620ef00e4
:1041f0005820ef005a20ef006e20ef007020ef00f3
:104200007220ef008621ef0000022000800c880061
:1042100080002000400c8800e0202e00900c8800d8
:1042200001088000f00b2000008160006004200085
:104230007105200003102000804978008149780032
:1042400082497800e11e8000f00f2c008080600021
:104250000050200001007000e01e8800811d8000d9
:1042600000fc2f0000806000801d8800d11e8000af
:10427000f00f2c00808060000030200001007000f2
:10428000d01e8800911d800000fc2f00008060007f
:104290000030a000901d8800000880000001780018
:1042a0000260a000600420007105200003102000bf
:1042b0008049780081497800824978000080fa00be
:1042c000000006000400fa0010079800b6ff07007f
:1042d000000f780000000000b3ff07009e00900070
:1042e0009e804000810f5000fbff35000080fa00e7
:1042f000000006000000fa000080fa00000006003e
:104300000000fa00881f7800d0408000783e20002e
:1043100000044400a4ff0700800f5400040035008f
:10432000a1ff0700d1408000810f50000f003d0029
:104330009dff0700d0408800700c80004600de0022
:10434000614060000004a200614060000080fb004a
:10435000610060004600dd00720c8000f1fb2f0060
:104360008100610001007000700c88004f0478002b
:104370000080fa0000000600ca00fa00881f7800da
:10438000dcff0700bbf807000e80e80042012000b8
:10439000613229007cf107000e80e800f6fd07007d
:1043a00080bb2000c7ff07000000eb00000f780073
:1043b0007dff0700f1702200810f500001003400e2
:1043c0007dff0700713e20001e84400076ff07003d
:1043d000800f54000300350073ff07009e0f50004c
:1043e0000f003d0070ff0700000f7800700c800088
:1043f0004600de00614060000004a20061406000f1
:104400000080fb00610060004600dd00720c80004f
:10441000f1fb2f008100610001007000700c88002a
:10442000dffd0700e3f80700e1ff37000000fa00b6
:1044300021068000f08f2f00008060000080a00027
:104440002006880091058000f0ff280000806000b1
:1044500000c0a0009005880091058000f08f2f001b
:10446000008060000080a000900588002106800088
:10447000f0f82f00008060000040a00020068800b7
:104480005105800080ff2f00008060000000a00028
:104490005005880041058000f0ff28000080600082
:1044a00000c0a0004005880021058000f0ff280022
:1044b0000080600000c0a000200588000080fa0095
:1044c000000006000000fa003fff07000700070099
:1044d000d6ff070092fc070082fb070068fe07007a
:1044e000f7fe07000080fa00000006000000fa0056
:1044f000220020006004200071052000031020002d
:1045000080497800814978008249780000102300b2
:104510001008880000002800300888006821ef009b
:104520006a21ef006c21ef000821ef000080fa0003
:1045300000000600000f78009e007800b14088005f
:10454000ffff37000000fa0060af2000800778000e
:10455000e0b02000000188000080fa0000000600a2
:104560000000fa00d7ff070083ff0700feff3700b7
:020000040000fa
:020000040002f8
:04aff000ffff00005f
:020000040000fa
:020000040002f8
:04aff400ffff00005b
:020000040000fa
:020000040002f8
:04aff8003dba00005e
:020000040000fa
:020000040002f8
:04affc003f3e0000d4
:00000001FF
