:020000040000fa
:080000000002040000000000f2
:020000040000fa
:0400080008030000e9
:020000040000fa
:04000c0008220000c6
:020000040000fa
:040010001a220000b0
:020000040000fa
:0400140010220000b6
:020000040000fa
:0400180022220000a0
:020000040000fa
:04001c0008030000d5
:020000040000fa
:0400200008030000d1
:020000040000fa
:0400240008030000cd
:020000040000fa
:0400280008030000c9
:020000040000fa
:04002c0008030000c5
:020000040000fa
:0400300008030000c1
:020000040000fa
:04003400461f000063
:020000040000fa
:0400380008030000b9
:020000040000fa
:04003c0008030000b5
:020000040000fa
:0400400008030000b1
:020000040000fa
:0400440008030000ad
:020000040000fa
:0400480008030000a9
:020000040000fa
:04004c0008030000a5
:020000040000fa
:0400500008030000a1
:020000040000fa
:04005400be160000d4
:020000040000fa
:040058006816000026
:020000040000fa
:04005c000803000095
:020000040000fa
:040060000803000091
:020000040000fa
:04006400080300008d
:020000040000fa
:040068000803000089
:020000040000fa
:04006c000803000085
:020000040000fa
:040070000803000081
:020000040000fa
:04007400080300007d
:020000040000fa
:040078000803000079
:020000040000fa
:04007c000803000075
:020000040000fa
:040080000803000071
:020000040000fa
:04008400080300006d
:020000040000fa
:040088000803000069
:020000040000fa
:04008c000803000065
:020000040000fa
:040090000803000061
:020000040000fa
:04009400080300005d
:020000040000fa
:040098000803000059
:020000040000fa
:04009c000803000055
:020000040000fa
:0400a00086190000bd
:020000040000fa
:0400a400301900000f
:020000040000fa
:0400a8000803000049
:020000040000fa
:0400ac000803000045
:020000040000fa
:0400b0000803000041
:020000040000fa
:0400b400080300003d
:020000040000fa
:0400b8000803000039
:020000040000fa
:0400bc000803000035
:020000040000fa
:0400c0000803000031
:020000040000fa
:0400c400080300002d
:020000040000fa
:0400c8000803000029
:020000040000fa
:0400cc000803000025
:020000040000fa
:0400d0000803000021
:020000040000fa
:0400d400080300001d
:020000040000fa
:0400d8000803000019
:020000040000fa
:0400dc000803000015
:020000040000fa
:0400e0000803000011
:020000040000fa
:0400e400080300000d
:020000040000fa
:0400e8000803000009
:020000040000fa
:0400ec000803000005
:020000040000fa
:0400f0000803000001
:020000040000fa
:0400f40008030000fd
:020000040000fa
:0400f80008030000f9
:020000040000fa
:0400fc0008030000f5
:020000040000fa
:0401000008030000f0
:020000040000fa
:0401040008030000ec
:020000040000fa
:0401080008030000e8
:020000040000fa
:04010c0008030000e4
:020000040000fa
:0401100008030000e0
:020000040000fa
:0401140008030000dc
:020000040000fa
:0401180008030000d8
:020000040000fa
:04011c0008030000d4
:020000040000fa
:0401200008030000d0
:020000040000fa
:0401240008030000cc
:020000040000fa
:0401280008030000c8
:020000040000fa
:04012c0004170000b4
:020000040000fa
:04013000cc190000e6
:020000040000fa
:0401340008030000bc
:020000040000fa
:0401380008030000b8
:020000040000fa
:04013c0008030000b4
:020000040000fa
:0401400008030000b0
:020000040000fa
:0401440008030000ac
:020000040000fa
:0401480008030000a8
:020000040000fa
:04014c0008030000a4
:020000040000fa
:0401500008030000a0
:020000040000fa
:04015400080300009c
:020000040000fa
:040158000803000098
:020000040000fa
:04015c000803000094
:020000040000fa
:040160000803000090
:020000040000fa
:04016400080300008c
:020000040000fa
:040168000803000088
:020000040000fa
:04016c000803000084
:020000040000fa
:040170000803000080
:020000040000fa
:04017400080300007c
:020000040000fa
:040178000803000078
:020000040000fa
:04017c000803000074
:020000040000fa
:040180000803000070
:020000040000fa
:04018400080300006c
:020000040000fa
:040188000803000068
:020000040000fa
:04018c000803000064
:020000040000fa
:040190000803000060
:020000040000fa
:04019400080300005c
:020000040000fa
:040198000803000058
:020000040000fa
:04019c000803000054
:020000040000fa
:0401a0000803000050
:020000040000fa
:0401a400080300004c
:020000040000fa
:0401a8000803000048
:020000040000fa
:0401ac000803000044
:020000040000fa
:0401b0000803000040
:020000040000fa
:0401b400080300003c
:020000040000fa
:0401b8000803000038
:020000040000fa
:0401bc000803000034
:020000040000fa
:0401c0000803000030
:020000040000fa
:0401c400080300002c
:020000040000fa
:0401c8000803000028
:020000040000fa
:0401cc000803000024
:020000040000fa
:0401d0000803000020
:020000040000fa
:0401d400080300001c
:020000040000fa
:0401d8000803000018
:020000040000fa
:0401dc000803000014
:020000040000fa
:0401e0000803000010
:020000040000fa
:0401e400080300000c
:020000040000fa
:0401e8000803000008
:020000040000fa
:0401ec000803000004
:020000040000fa
:0401f0000803000000
:020000040000fa
:0401f40008030000fc
:020000040000fa
:0401f80008030000f8
:020000040000fa
:0401fc0008030000f4
:020000040000fa
:0402080008030000e7
:020000040000fa
:04020c0008030000e3
:020000040000fa
:0402100008030000df
:020000040000fa
:0402140008030000db
:020000040000fa
:0402180008030000d7
:020000040000fa
:04021c0008030000d3
:020000040000fa
:0402200008030000cf
:020000040000fa
:0402240008030000cb
:020000040000fa
:0402280008030000c7
:020000040000fa
:04022c0008030000c3
:020000040000fa
:0402300008030000bf
:020000040000fa
:0402340008030000bb
:020000040000fa
:0402380008030000b7
:020000040000fa
:04023c0008030000b3
:020000040000fa
:0402400008030000af
:020000040000fa
:0402440008030000ab
:020000040000fa
:0402480008030000a7
:020000040000fa
:04024c0008030000a3
:020000040000fa
:04025000080300009f
:020000040000fa
:04025400080300009b
:020000040000fa
:040258000803000097
:020000040000fa
:04025c000803000093
:020000040000fa
:04026000080300008f
:020000040000fa
:04026400080300008b
:020000040000fa
:040268000803000087
:020000040000fa
:04026c000803000083
:020000040000fa
:04027000080300007f
:020000040000fa
:04027400080300007b
:020000040000fa
:040278000803000077
:020000040000fa
:04027c000803000073
:020000040000fa
:04028000080300006f
:020000040000fa
:04028400080300006b
:020000040000fa
:040288000803000067
:020000040000fa
:04028c000803000063
:020000040000fa
:04029000080300005f
:020000040000fa
:04029400080300005b
:020000040000fa
:040298000803000057
:020000040000fa
:04029c000803000053
:020000040000fa
:0402a000080300004f
:020000040000fa
:0402a400080300004b
:020000040000fa
:0402a8000803000047
:020000040000fa
:0402ac000803000043
:020000040000fa
:0402b000080300003f
:020000040000fa
:0402b400080300003b
:020000040000fa
:0402b8000803000037
:020000040000fa
:0402bc000803000033
:020000040000fa
:0402c000080300002f
:020000040000fa
:0402c400080300002b
:020000040000fa
:0402c8000803000027
:020000040000fa
:0402cc000803000023
:020000040000fa
:0402d000080300001f
:020000040000fa
:0402d400080300001b
:020000040000fa
:0402d8000803000017
:020000040000fa
:0402dc000803000013
:020000040000fa
:0402e000080300000f
:020000040000fa
:0402e400080300000b
:020000040000fa
:0402e8000803000007
:020000040000fa
:0402ec000803000003
:020000040000fa
:0402f00008030000ff
:020000040000fa
:0402f40008030000fb
:020000040000fa
:0402f80008030000f7
:020000040000fa
:0402fc0008030000f3
:020000040000fa
:0403000008030000ee
:020000040000fa
:0403040008030000ea
:020000040000fa
:0403080008030000e6
:020000040000fa
:04030c0008030000e2
:020000040000fa
:0403100008030000de
:020000040000fa
:0403140008030000da
:020000040000fa
:0403180008030000d6
:020000040000fa
:04031c0008030000d2
:020000040000fa
:0403200008030000ce
:020000040000fa
:0403240008030000ca
:020000040000fa
:0403280008030000c6
:020000040000fa
:04032c0008030000c2
:020000040000fa
:0403300008030000be
:020000040000fa
:0403340008030000ba
:020000040000fa
:0403380008030000b6
:020000040000fa
:04033c0008030000b2
:020000040000fa
:0403400008030000ae
:020000040000fa
:0403440008030000aa
:020000040000fa
:0403480008030000a6
:020000040000fa
:04034c0008030000a2
:020000040000fa
:04035000080300009e
:020000040000fa
:04035400080300009a
:020000040000fa
:040358000803000096
:020000040000fa
:04035c000803000092
:020000040000fa
:04036000080300008e
:020000040000fa
:04036400080300008a
:020000040000fa
:040368000803000086
:020000040000fa
:04036c000803000082
:020000040000fa
:04037000080300007e
:020000040000fa
:04037400080300007a
:020000040000fa
:040378000803000076
:020000040000fa
:04037c000803000072
:020000040000fa
:04038000080300006e
:020000040000fa
:04038400080300006a
:020000040000fa
:040388000803000066
:020000040000fa
:04038c000803000062
:020000040000fa
:04039000080300005e
:020000040000fa
:04039400080300005a
:020000040000fa
:040398000803000056
:020000040000fa
:04039c000803000052
:020000040000fa
:0403a000080300004e
:020000040000fa
:0403a400080300004a
:020000040000fa
:0403a8000803000046
:020000040000fa
:0403ac000803000042
:020000040000fa
:0403b000080300003e
:020000040000fa
:0403b400080300003a
:020000040000fa
:0403b8000803000036
:020000040000fa
:0403bc000803000032
:020000040000fa
:0403c000080300002e
:020000040000fa
:0403c400080300002a
:020000040000fa
:0403c8000803000026
:020000040000fa
:0403cc000803000022
:020000040000fa
:0403d000080300001e
:020000040000fa
:0403d400080300001a
:020000040000fa
:0403d8000803000016
:020000040000fa
:0403dc000803000012
:020000040000fa
:0403e000080300000e
:020000040000fa
:0403e400080300000a
:020000040000fa
:0403e8000803000006
:020000040000fa
:0403ec000803000002
:020000040000fa
:0403f00008030000fe
:020000040000fa
:0403f40008030000fa
:020000040000fa
:0403f80008030000f6
:020000040000fa
:0403fc0008030000f2
:020000040000fa
:10040000cfb320000e7f22000e0188000000000004
:10041000000020000000e000020032000001200087
:1004200020028800140007007b0007000000e000a5
:1004300003003a00c0e7210001002000020037005d
:100440000000200001002000810f70000100320038
:1004500014000700000020000000e000020032004d
:1004600000000200000000008e22020000000000d8
:100470000040da000000fe004440a900601c20009b
:100480000000e000030032000020200090018800fe
:100490004440a800000006008a1f78008b1f7800e7
:1004a00000000600a1028800800478000000eb0034
:1004b0001f003700e284440054a0b4009905ba003c
:1004c000e284440054a0b4009906ba00e2844400d7
:1004d00054a0b4000006eb00476fde00fd07b20039
:1004e000ae018800636ce10003003a00eaff0700f8
:1004f0000000eb000e003700606ce10008003a00dd
:10050000004deb000a05e800020039003420ec0041
:100510000af0a0008b05e900f9ff3e000400370057
:100520006168e100010032000086eb000b0007006b
:1005300019c7ba001905ba000e04e00003003a001a
:100540000a00e000dbff3a0000000600fe07b200f0
:10055000ae0288008a047800f5ff37000cd0a300b3
:10056000e20f4d001c00390089027800354dba00b9
:100570000a05e800020039003420ec000af0a0006f
:100580008b05e9000f003200254dba000a05e8008e
:10059000020039003420ec000af0a0008b05e900cd
:1005a000080032000c00e0000600320015cdba0051
:1005b0000a05e800020039003420ec000af0a0002f
:1005c0008b05e9008984e80054a0b4000b00e0002a
:1005d000e2ff3a00000006009902ba00055d7800cb
:1005e0008b05e900f7ff3200c82ade00055d7800c0
:1005f0008b05e900f3ff32000c00e000f1ff320050
:1006000019ddba00eeff3700960504000000000077
:100610000040da000000fe000000050003f0a20028
:10062000889fbe008a9fbe008c1f78008200070052
:10063000890033006450e1004f0032006420e10083
:100640005200320003826c0007003b000905d00015
:100650000306d000820f54000c065d000200390032
:100660000200320089017800030678008582550077
:1006700004003d000003fd008103fd008502ea0047
:100680008b854200840f720002003b006000100066
:10069000e08018006011b8000005eb007a28e10046
:1006a0000a00390006007800c75ddd00f707b200d8
:1006b000878075002d003700828171000a01780063
:1006c000610560008180d1000080d3008502e900cf
:1006d000f9ff3b00060440008784480002003b000d
:1006e00060041400e0841c000988a30007003200a5
:1006f0008a81710082817100610164008904d100e6
:100700000884d3008b05e800170037000978a300a0
:1007100013003a000b00e000130034008b05e900e1
:100720000804440089844c000a4474000978a3003a
:100730000d003a000b00e000070034008b05e900d3
:100740000804440089844c0001003a000b0020009a
:100750000978a300f7ff32000001eb000200370028
:10076000828171000a0178000d0007000cf0a700db
:1007700001f0a000410037006420e10002003a00cf
:10078000838f6c00410033000801be000200be00f0
:100790003a0037004f89de0082017800720037008e
:1007a00081002000618055000b003d000b002000ff
:1007b00061fe2f000100e1001d0034008281710004
:1007c000610164008904d1000884d3000000e800be
:1007d000faff3a007100200061006400030070001d
:1007e000020060000900320061044400e0844c0013
:1007f0000988a500050032008b05e8006808e100c3
:1008000002003a008904d1000884d300f20f2000ce
:100810000258e10005003d00c75ddd00f907b200a8
:100820008980750008007800000006000bf827009a
:100830008b007800000005000004be00890007005e
:100840000003be000405be000200be0085000700d4
:10085000844f7500000006000200be006450e100f5
:10086000050036006420e100020036000968a3009c
:1008700001003a000800be000160a0004f067800a9
:100880004f05be004f04be0000000600f0ff2f0021
:10089000f1ff2700f9ff3700889fbe008a9fbe0046
:1008a0008c1f7800e4ff0700ebff330003866c0029
:1008b0006450e100240032006420e100270032008f
:1008c0006150e100220032006120e100210032008d
:1008d0008b854200eb07b1000134b800003ab80044
:1008e0000804420089844a00013ab8000030b80088
:1008f0008880400009014a000400330000004000e5
:1009000081804800020149008b05e900c909dd002a
:10091000830170000100320013002000c814de00c3
:100920004814dd004709de001200b200c808de00ee
:10093000088470009aff070001f0a1000cf0a700e6
:1009400001f0a000cdff37006120e100cfff3200b1
:100950000801be000200be00f7ff37006150e10051
:10096000fcff3a00c9ff3700881f780003047800b5
:100970000300e00007003d0060001000e080180068
:1009800060011900e081190002003b0001f02d0018
:10099000030037000400070008f0a70001f0a000e2
:1009a0004f04780000000600889fbe008a9fbe00aa
:1009b000008270000402710004827100260032007f
:1009c0000004be000200be006011b8006b092000e8
:1009d000950220000182cf000a0039000541b100d4
:1009e0000082cf00070039000541b1000982cf0025
:1009f000040039000541b1000882cf000100390030
:100a00000541b10005425200120032000a003b00cd
:100a100082817100610164008100d1000080d300f7
:100a20008984d3000884d3008b05e8000442e800e1
:100a3000f7ff3a00070037000804440089844c009f
:100a400000004800818048008b05e9000442e9006d
:100a5000f9ff3a0052ff07004f05be004f04be00e9
:100a600000000600c70ade00f107b200f50fb20071
:100a700008003200e1cf4200020032000170a00005
:100a800024000500810f70000100320004080500f9
:100a900044000500810f700002003a0014000500b8
:100aa0008502e9000000400081c04800fcff3b00d7
:100ab0000170a000240005008001780002003700ca
:100ac000b15978000201e9000200e000fcff3a00a1
:100ad00000000600020037000204e0000b003200b4
:100ae000810178000002780030417800b14f510058
:100af000f9ff32001000200014427800934f52009a
:100b0000030031000080eb00000006000000eb0055
:100b10000000060080007800010178003104e00048
:100b2000fdff3a000000510000000600881f780019
:100b30000204780008017800dfff07000800400089
:100b40004f047800000006000000fa00881f7800bb
:100b500000047800ea8157003fb9970088007800c8
:100b600060592000070007000000e0000200350087
:100b70008040eb00017478004f0478000080fa0098
:100b8000000006006200fa00889fbe008a1f7800fd
:100b90000005780081047800020478008300780062
:100ba00080f92f000f004000380407009a979f003b
:100bb000a9979f000000eb00b09f9f001885fb00e5
:100bc0008a04fb000a05ea004f55de0050022000af
:100bd000808f54000d003200e10f55000b003a00e9
:100be0000a017800880078002f9097009f91970065
:100bf00003000100a0979f000000e0008e0032007b
:100c00003f9897000000e800b09f9f000a0444004e
:100c100050022000808f5400040032000900e000e0
:100c2000e6ff3a003f989700840037000000eb0091
:100c3000909f9f00809f9f00f0979f00e0979f00ec
:100c4000d0979f00c0979f000700370041b1200058
:100c5000010050000000400081b0200061007800d9
:100c6000df98970001007000d09f9f0088047800f3
:100c700009047800384578008a00fb0040b1200064
:100c8000100307000000e000f0ff3a00a1c2b3002b
:100c9000814f55000e003a00cf8897000180e9008f
:100ca000c08f9f0010007800c09f9f000000e000f0
:100cb00005003d000000ea00c09f9f005f9897007c
:100cc0000020a000d09f9f000904e8000f0037001b
:100cd000c09f9f000000eb0005003700f2ff2700d7
:100ce000820f5000020032006a01b9000280400009
:100cf0000904780088047800b900fb000103b10002
:100d0000e98f5000f5ff3600c09f9f00e0c2b3009e
:100d1000984f1000020032000080eb0019003700ed
:100d2000a0c2b300d84f100007003a00cf88970048
:100d30000180e900c08f9f0010007800a09f9f00f5
:100d40000804e800100037000000eb00a09f9f009f
:100d50008800780005003700f3ff2700830f50005c
:100d6000020032006a02b900040041000104780068
:100d7000880078003101fb000203b100e90f510047
:100d8000f5ff3600a09f9f00984478008900fb0083
:100d900000b02000cb0207000000e000020032009b
:100da0000804e800010037008044eb00c97f9f0081
:100db00080c6b30080cf540004003a0098cf1400de
:100dc0000a003a006640500006003700c0c6b30073
:100dd00080cf540005003a0098cf140003003a0079
:100de00065404000c07f9f000804e8001801fb0038
:100df000e3fb2f008f81410081f92f008f8040009d
:100e0000a0f92f000f004000100007000000e000d4
:100e100009003a00e1fb2f008f804000a0f92f006d
:100e20000f004000dd0207000000e0000200350076
:100e30000804e80061ff37000080eb004f057800f0
:100e40004f04be000080fa0000000600889fbe002c
:100e50008a1f780000047800824478000305780037
:100e600070c4b30080cf54000a003c0000c0e90009
:100e700080cf54000f003d0050c2b30080cf54001b
:100e8000350032007c40400080cf540035003a00ed
:100e90000800370010c6b30080cf540005003200b0
:100ea00030003500b0c9b30000c04400e24f50002c
:100eb0002c003e0028619000c0c4b300804f510058
:100ec00006003a001101780068005100800878009f
:100ed0005001be004000be0005003700110178003f
:100ee00064005100800878001000be006d04070007
:100ef000009cbe000294be00b800900078009000f4
:100f00000100e00002003d00d1c2b300080037003c
:100f1000881090000118a30002003200b1c2b30093
:100f2000030037000108a3000400320001c2b3002f
:100f3000017578000000e8007004980078009000c7
:100f4000000545006a0498008900fb00080078004d
:100f5000100007000b00370078009000097578003a
:100f60000600370078009000000545000904e00005
:100f700001003a0059c2b300094d78000000e800b2
:100f8000700498000000eb004f0578004f04be008d
:100f9000000006002f04b000889fbe008a9fbe009c
:100fa0008c9fbe008e1f78000007780081f79f009d
:100fb0003e04be002e05be005e0890000000e0006a
:100fc00002003d0060002000500f98008e00780065
:100fd00020fb2f000f00400046020700e20f5000e8
:100fe0000a003a0030002000100f9800b1c9b30089
:100ff0000ff0970081404000c0a82000e1cf5000d2
:101000000d003e0080a820000b0037000000e0002b
:101010000f00340030002000100f9800b1c9b30059
:101020000ff197008140410040a92000e1cf50001e
:1010300001003e0000a92000ee009000b0487800ba
:10104000b06878001040780090409800f3003700b6
:101050000000e00005003a0022fb2f000f014100d4
:10106000001978008001eb00e70037006022b8002b
:101070006033b8000800be000a01be00510307003b
:101080000000e00001003d000bf0a20070592700b5
:101090009f9897000088b900026a2800130020007a
:1010a000ac030700640650009c9f9f0013003b00a8
:1010b00063061600c0ff2f00000666008c01ea00e0
:1010c000939f9f008da920000800be000a01be006a
:1010d000070037000c08a300030032003d02be00e9
:1010e0002d03be003d0407000c86d100e8864600b3
:1010f0000c00e000f7ff3c00180037000c00e00097
:1011000018003200c0ff2f00000666009c9f9f0061
:101110008da920006000b8000200200003ff23001a
:10112000070037000c08a300030032003d02be0098
:101130002d03be00290407000c86d100e886460076
:101140000c00e000f7ff3c000002be000203be00fe
:101150000800be000a01be00240307000004be0010
:101160000205be00de08900060c6b3000ff29700d3
:10117000804f5200040032006000200062c4b300bf
:10118000824f520002003a009f9a97006a80420004
:1011900081004000f1b79f0001037800f30f530076
:1011a0000200340037012000f7b79f0000c3b300ee
:1011b000c0779f0056fb2f000f0343000e007800fe
:1011c000a0b79f00060778003d0037000800be006a
:1011d0000a01be00d20307000006be007fb19700df
:1011e00068015100f2b79f004240a9000c00340092
:1011f000f70307000002be000203be000800be00a5
:101200000a01be006a0407006022b80046782d007b
:1012100077192400f10307000004be000205be0098
:10122000e80047008e0020000802be000a03be004e
:10123000b4b79f00c5b79f00d6b79f00e7b79f0020
:101240000c01be00010478000c003700a40020004f
:1012500005002000c0fd2f000f00400084010700a2
:101260006fa89700ffa897000fb197009fb1970054
:1012700005c3b300056441000001be00e00f51004a
:10128000e08f5900030034000e07e900e10f47002a
:10129000eeff3a00880078003fb49700cfb4970083
:1012a0005fb59700efb597000200370000c3b300a9
:1012b000806078000e07e900fcff3b006887400073
:1012c0007fb397000600e000070034006022b800fa
:1012d0006033b8000800be000a01be00be0207006d
:1012e0000000e000b9ff3c000e0378002fb7970024
:1012f00051fb2f008f804000010353009f9b9700fc
:1013000067804300909f9f00020037000603e900ba
:101310000000e900010178008200780003c3b300f7
:10132000b1cf1100f9ff3200909f9f00de099000bd
:1013300061c6b3000ff29700814f520003003200e4
:1013400061c4b300814f520002003a000000e8007f
:101350000a0037001000200051c6b3008ff297003a
:1013600081cf5200050032000540780050c4b20021
:101370000080fb000000e9004f00de008301400018
:10138000868f510001003400860178000300e000e0
:101390001d00350000c3b300868f510006003d00dc
:1013a00062c279006940400041c3b300814f5200de
:1013b00001003c00694050008300e90081004100c9
:1013c00001003700840178000302e900010378007e
:1013d000a142780080cf5200faff320091c3b300df
:1013e000814f500001003a00054be8000400e00086
:1013f00005003d000201e9008301e8001f9b970002
:101400000603e800969f9f008ff397008700fb007c
:101410001f9a97000e007800060007004f0778001b
:101420004f06be004f05be004f04be002f04b100a2
:1014300000000600f0874700889fbe008a9fbe001c
:101440008c9fbe008e1f78000004780081447800d5
:101450000205be00040678000b00e00002003c001c
:101460001b002000aab3200060c6b30080cf540048
:101470000e00320060c4b30080cf54000b00320075
:1014800070c6b30080cf54000300320070c4b300b4
:1014900080cf540081003a00e40f46007f00350001
:1014a00058089000800f56007c003d000c06e800b4
:1014b00060c6b30080cf54001000320060c4b30097
:1014c00080cf54000d003200081090000038a300b7
:1014d00004003a0058089000808f550001003d003c
:1014e0005b0c9800580890000c005000500c9800bd
:1014f00002003b000000eb00500c98001808900020
:10150000e80090000c00e00026003c0002c3b3009d
:10151000827078000000e800100c9800d808900055
:101520000100e00003003c00881090000138a30097
:1015300005003200e8009000e2c2b300827078003b
:101540000000e800100c9800580890008c00ea0099
:10155000810f500001003d000006ea008c00ea0007
:10156000210c9800000646005c0c98008b0f56007a
:10157000010034000b0678003c0c9800e800900055
:1015800018089000008040000c0178008a00780064
:1015900049fd0700580890000c0650004c0c9800bc
:1015a000900037008c8f550018003d0000804000ef
:1015b0000b0178008a0078003ffd070018089000b2
:1015c00000804500100c98008b0556002b0c9800ed
:1015d000d80890000100e00003003c008810900053
:1015e0000138a30006003200e8009000e2c2b30018
:1015f00082707800380890000000e800300c9800f5
:1016000058089000400c9800760037000080400099
:101610000c0178008a00780027fd07001808900068
:1016200000004600100c98008c855500d8089000ea
:101630000100e00003003c00881090000138a30086
:1016400005003200e8009000e2c2b300827078002a
:101650000000e800100c980058089000808f55009a
:101660000100340080057800e80090001808900020
:10167000008040008c0045000b0178000efd070043
:10168000180890000b004000100c980058089000bb
:101690008b0550002b0c9800520037001808900062
:1016a000e80090009a7078000000e800100c9800a4
:1016b000d80890000100e00003003c008810900072
:1016c0000138a30005003200e8009000e2c2b30038
:1016d000827078000000e800100c98005808900014
:1016e0000000e000100034008b05e900808f5500f9
:1016f0000100340080057800e80090001808900090
:10170000008040008a00e8000b017800eafc070036
:10171000180890000b004000100c9800580890002a
:101720008b0550002b0c9800e800900018089000e2
:1017300000804000095878000007e8000c00e00035
:1017400004003500b1c2b300014878008e0478006f
:1017500004003700d1c2b300014878008e0478003d
:101760000c06ea007d8557008006eb000900370073
:10177000a20020008c007800728057003100070022
:101780007fb097008fb89700016d78000006780051
:101790008d06e8000c00e000f5ff3c000d00e000c5
:1017a00009003a008e04780000c3b300805c780022
:1017b000050037008d06e900fc80570061c07e00ff
:1017c00002c3b300825c40000d00e000f9ff3c0062
:1017d000e8009000180890000080400080845400c9
:1017e000390c98000810900074006000f00f500051
:1017f0000e003a00980890007800900000804000a9
:10180000a808900001004000b808900001004000c6
:10181000c808900001004000f8089000810f5000b7
:1018200002003d0000805000000c98004f07780037
:101830004f06be004f05be004f04be000f01b100b1
:101840000000060080027800010378001100090002
:101850000203d80080017800830a78000299b90059
:101860000201530092029800050078000000060073
:10187000881f78008a9fbe008c9fbe0000047800fd
:101880000205be000406be000401be000a00be0040
:10189000b0010700008cbe000c01be00d60207009c
:1018a0000005550081855d002a0498003b049800de
:1018b000080078004f06be004f05be004f047800b8
:1018c00000000600020037000304e00006003200ba
:1018d0000001780002007800b041780081cf51000b
:1018e000f9ff3a00010037000001eb000200780028
:1018f00000000600889fbe0000047800e6844000d7
:101900001900d0004500de00f27f2000820f500059
:1019100010003a00000ceb00990478006f8164001d
:10192000200020001b003a00210190000200e0008e
:1019300018003a00110190000200e00015003a0082
:10194000100020001100e0001200320020002000f2
:10195000100037000000e00004003a0001007800a9
:10196000cc0007000000e00008003c00f200280066
:101970001901610001fe2300810c710021c02f00bc
:10198000010c40000080eb0002003700000ceb006f
:101990000000eb004f04be00000006000400fa0047
:1019a000889fbe008a9fbe008c1f780000047800cc
:1019b00001067800f80d90007800900080855500b1
:1019c0000808900080855500180890008085550013
:1019d00028089000808555003808900080855500c3
:1019e00048089000808555000002220090bf9f00ab
:1019f00000032300a0bf9f00081090000028a30050
:101a000015003a000b00e000130034000b057800cd
:101a10008a047800e20f55000100360029002000fa
:101a2000c801900009017800ee805700580090002e
:101a300003000100500498000000e0008c00320018
:101a40006808900009004000600c980009055500e6
:101a50004240a900eeff3c00780190000200e00047
:101a60000c003400c80190008c00780058009000f1
:101a700003000100500498008080eb000000e000ab
:101a80007c003200e8089000780090000080400060
:101a9000600c9800880c90000900e00011003400f0
:101aa00009057800e28f5400010036002a0020006a
:101ab000c80190000a017800ec805700580090009f
:101ac00003000100500498000000e00068003200ac
:101ad000680890000a004000600c98008a84540056
:101ae000edff3700180990000200e0000c00340000
:101af000c8019000e8009000580090000300010029
:101b0000500498008080eb000000e0005900320093
:101b1000e80890001808900000804000600c9800d1
:101b2000a80c90000900e0001100340009057800bd
:101b3000e28f5400010036002a002000c801900006
:101b40000a017800ec805700580090000300010063
:101b5000500498000000e000450032006808900042
:101b60000a004000600c98008a845400edff3700a2
:101b7000380990000200e0000e003400e8009000f8
:101b80001808900080804000c80190005800900024
:101b900003000100500498008080eb000000e0008a
:101ba00034003200e80890003808900000804000bf
:101bb000600c9800c80c90000900e000110034008f
:101bc00009057800e28f5400010036002a00200049
:101bd000c80190000a017800ec805700580090007e
:101be00003000100500498000000e00020003200d3
:101bf000680890000a004000600c98008a84540035
:101c0000edff3700081090008000eb000028a300d3
:101c1000180032000b00e000160034008b0478003e
:101c200009057800e28f5400010036002a002000e8
:101c3000c80190000a017800ee805700580090001b
:101c400003000100500498000000e000080032008a
:101c5000680890000a004000600c98008a845400d4
:101c60004240a900eeff3c008000eb00010037007d
:101c70008080eb00010078004f0678004f05be0021
:101c80004f04be000080fa00000006000108780042
:101c900000000600e6004000110178000500280061
:101ca000850261006f016100820878000200320045
:101cb0001200200011003700a00190001200200047
:101cc0000300e0000d003a00900190000300e000e6
:101cd0000a003a001000e00008003a003600370021
:101ce000640340009608780080017800530b780068
:101cf0009009780004087800700151001102780002
:101d00000400e000f6ff32001300370064024000d8
:101d1000140378004f33de00838141008308730091
:101d200080017800d3037800cf3bde0014037800f5
:101d300006034300068a730013027800040242007f
:101d4000100378004f33de0086097200900178009e
:101d5000038841000201e90091017800ef8f5100f2
:101d6000eaff360010003700800178005303780046
:101d70004f33dd001002d1000408730064024000fc
:101d800094037800cf3bdd001303d10086897300f4
:101d9000110378004f33dd009401d100030a730072
:101da0009108d1000201e80091017800ff8f5100f5
:101db000edff3e00ef88610091887200020078001c
:101dc000000006008f1fd1000e0207008f87e90078
:101dd0000000e00000000600809feb000902070001
:101de0008f87e9000000e000000006002800fa00ec
:101df000889fbe008a9fbe008c9fbe0003866b003a
:101e00008f0007006400e100440032006408e10034
:101e10004a0032006100e100460032006108e10042
:101e200049003200ec0647006000b8003d02be00e9
:101e30003d03be00f48657006011b8003d04be00ab
:101e40003d05be007d0320000b0037000000a00010
:101e50008d06e900130032000402420085824a0028
:101e600006034b0087834b00000040008180480040
:101e700002014900838149000802520089825a0008
:101e80000a035b008b835b00f0ff3b00080242000b
:101e900089824a000a034b008b834b008d06e900c0
:101ea000edff3a008482720086827200f707b2006a
:101eb0008782720001003200150020001e0490008d
:101ec0003e0b900006035400e63fb0000368a300f9
:101ed000070032000000a7000500a0008301d10028
:101ee0000281d3008180d3000080d3000603e80084
:101ef0008301d1000281d3008180d3000080d30010
:101f00000002eb000482d2002100070003f0a100d0
:101f10000cf0a70003f0a0005d003700640247004a
:101f20006408e100570032003400be003401be00f6
:101f3000f6ff37006108e100520032006011b8007e
:101f40006000b800f1ff370003ff27000200200007
:101f5000fbff3700839f68000100e00002003d00a6
:101f600060001000e08018000300e00002003d0067
:101f700060011100e08119000f0107004f00e0002f
:101f800002003b0060001000e08018000000060026
:101f90001800200057002000080453000d003d00e9
:101fa0000600200097fc2f000740e1001e003400cf
:101fb00084827200610260008301d1000281d3003b
:101fc0008180d3000080d3000804e800f8ff3a00c5
:101fd00047002000610460000504740004046400ec
:101fe0000d00320061004000e080480060014900bf
:101ff000e081490003b8a500070032000603e800ad
:102000006538e10004003a008301d1000281d30069
:102010008180d3000080d300f87f20000830e100e9
:1020200003003500080378006000b8006011b800b4
:102030004433dd00f300b2008301730000000600aa
:10204000680447000294be000094be00fc044700f0
:102050008694be008494be0009007800b201070097
:1020600008007800b001070099007800814f7000e7
:102070000b003b000800be008b0107004f00b100c1
:1020800003003700f3ff2700f2ff2f006110b900b3
:102090004f06be004f05be004f04be000080fa0090
:1020a00000000600810378006efa07000001be0000
:1020b0006000b8000478a30013003a006220e10039
:1020c00015003e000d0039008301d1000281d300cc
:1020d0008180d3008301d1000281d3008180d300ad
:1020e0008301d1000281d3008180d3000538b00084
:1020f000c42add00f300b2008381720007f0a7005c
:1021000003f0a00000000600f3ff2700f2ff2f00fd
:102110006110b900fbff370003ff2700f7ff37000e
:102120001400fa00889fbe008a9fbe008c9fbe00ec
:102130000004be000205be00680047000a90be0011
:102140000890be00780107000070a7000bf0a10006
:10215000304320009e02900080825200b0fe2f008b
:102160000028e10011003d00b0fc2f000028e10034
:10217000150034001e0990008e0890007e0090002b
:102180000501b0000201d1008180d3000080d3009e
:102190008502e800fbff3a000b00e000bcff3b00bb
:1021a00060001000e0801800b9ff3700f0ff2f003a
:1021b000f1ff27000b00e000b5ff3b000100280005
:1021c00000002000b2ff37006000b800b0ff370009
:1021d0004f89de00820178007a0137002800fa007a
:1021e000889fbe008a9fbe008c9fbe0003866b0046
:1021f00093ff07000028a30064003a000128a30011
:1022000067003a000008a30062003a000108a3003a
:1022100065003a001e009000be0890008106400054
:10222000ed3fb100f4805700ee019000111ab800a4
:102230008e099000311bb8009e099000311cb80037
:10224000511db800f485570046000700fe019000bc
:102250003a0007008b85e8003e0007008e099000d9
:1022600040000700ee019000340007008b85e80075
:10227000380007008e099000400007009e0990007a
:102280001b18b800890440000a854800fe01900030
:10229000340007008b85e80038000700ee0190004d
:1022a000300007008e0990001b18b8008904400018
:1022b0000a8548000a98a30008003a000402420078
:1022c00085824a0006034b0087834b0008044c00bc
:1022d00089844c000a054d008d06e9008482720055
:1022e000850273004c3add00850272000100320065
:1022f00015002000443ade001400b2004538de002c
:10230000cb45dd000b007000c540de00cb4ddd008d
:102310008b8070004549de00cb55dd000b0171005c
:10232000c551de000d03780019ff070003f0a1007e
:102330000cf0a70003f0a00055ff37001b18b800f1
:102340008502400006834800e0834b0060044c0097
:10235000070037001b18b8000603400087834800b9
:10236000faff37001b18b8008703400008844800b4
:10237000e0844c0060054d00000006001b18b8000a
:102380000804400089844800faff37000108a300d0
:102390003cff3a005800be005801be00e3ff370082
:1023a0000008a30037ff3a0009047800f9ff37005e
:1023b00007f0a200160037006022b80006022000d5
:1023c0000000d0008180d2000482d2008582d20039
:1023d0000000a0000202520083825a000300310074
:1023e0000202420083824a000000a1000603e900c5
:1023f000f3ff3a0000000600020ab900001bb90012
:102400000200b80081004200810043000000060085
:102410002800fa00889fbe008a9fbe008c9fbe00e5
:1024200007067800878669000c003b0003047800eb
:102430008704780008f0a10009f0a100840f500083
:10244000858f5800860f5900890f5c000300330008
:102450000cf0a20001003a000cf0a100f8fe070009
:102460006400e1005f003200780147006408e10089
:10247000610032006c014700748557003200be00d5
:102480001201be003a04be001a05be001e039000f1
:10249000be0a90008503530006003d000004fd00c5
:1024a0008104fd000205fd008305fd008703ea00ad
:1024b000050378000df8a300040032006004140046
:1024c000e0841c0060051d00e0851d006022b8004e
:1024d0007d0320000d38e1008006eb000b00390081
:1024e0004433dd00f300b20083017300390037008c
:1024f000848272000d027800e10664008b85d100b1
:102500000a85d3008984d3000884d3008703e900b7
:10251000f7ff3b0008004000898048000a0149009d
:102520008b81490004003b0060001000e08018002f
:1025300060011900e08119000358a300090032006e
:102540008d82720084827200610260008301d1007a
:102550000281d3008180d3000080d3000603e8000d
:102560001b0037000348a30017003a000600e000f4
:10257000170034000603e9000d00a3000000480026
:102580008180480002014900838149000348a3007b
:102590000f003a000600e000090034000603e900dd
:1025a0000000400081804800020149008381490009
:1025b00001003a000003eb000348a300f5ff3200de
:1025c0006022b800020037008482720061826600d7
:1025d0006ffe070003f0a1000cf0a70003f0a000bd
:1025e000abfe3700640147006408e10002003a00d6
:1025f0000df8a300a3fe3a003200be001201be0097
:10260000a3fe3700889fbe008a9fbe008c9fbe003d
:102610000404be000605be00809fbe00829fbe006f
:102620002f000700040678000800be000a01be0063
:102630002b000700840678004f03be004f02be0047
:102640008d4f76007fb0970013003300f0ff2f000e
:102650008b8f6b0006003b000d0666000c00a70088
:102660000a00370007f0a600100020000a0037001b
:10267000880f5200898f5a008a0f5b008b8f5b0096
:10268000030039001000200001003e00000020007f
:1026900007f0a7000000ea004f06be004f05be008d
:1026a0004f04be0000000600e48240001078a30042
:1026b00007003200640240001178a3003400be001d
:1026c0001401be00040032000330a7000000060021
:1026d0003500be001501be000330a000000006005a
:1026e00005ff270005826100070032000428e10091
:1026f00001003200240005000600070001003a0036
:10270000440005000408050002000700f9ff3a0034
:10271000140005006f826100810270008502710063
:102720008502720000000600800078005002be00a2
:102730005003be004439de00f700b200f37f2000f2
:1027400003016100090032000218e10016003a009e
:1027500085017200830173008381730000082000eb
:1027600015003a0040002000130037008501720078
:10277000830173008381730005003a0004a8be0042
:1027800006a8be00100020000b0037000201e9007f
:102790000402420085824a0006034b0087834b00f7
:1027a0000748a300f9ff32000740a00004a8be00bc
:1027b00006a8be002000200080009800920098002b
:1027c00000000600881f7800030478000300e00082
:1027d00007003d0060001000e08018006001190053
:1027e000e081190002003b0001f02d0003003700da
:1027f0000400070008f0a70003f0a0004f047800d1
:1028000000000600889fbe00008270000402710074
:10281000048271002400320036432000c5002000ed
:102820008383cf000a0039000541b1008283cf00c5
:10283000070039000541b1008183cf000400390051
:102840000541b1008083cf00010039000541b1008e
:1028500085c353006022b800120032000a003b001a
:1028600084827200610260008301d1000281d30082
:102870008180d3000080d3000603e8008743e8008e
:10288000f7ff3a0007003700000040008180480051
:1028900002014900838149000603e9008743e900fa
:1028a000f9ff3a00bafd07004f04be000000060021
:020000040000fa
:1028b00047000000590000006e0000008100000089
:1028c0008f0000009a000000ab000000c000000074
:1028d000d1000000e8000000f8000000070100003f
:1028e000190100002a0100003b0100004b0100001b
:1028f00059010000670100007b0100008f0100000a
:10290000a0010000b0010000ca010000cf010000da
:10291000dd010000eb010000fb0100000c020000e3
:102920001b0200002a0200004002000056020000c4
:10293000640200007302000085020000970200009c
:10294000a5020000b3020000c9020000d502000089
:10295000e6020000f6020000050300001303000079
:10296000270300003b03000047030000540300005e
:10297000660300007403000082030000910300005e
:10298000a3030000b5030000c4030000d20300004d
:10299000e7030000f6030000050400001404000033
:1029a00027040000390400004d040000600400000a
:1029b0006e0400007d0400008b04000099040000f8
:1029c000a7040000b5040000c9040000dc040000f6
:1029d000e8040000f30400000d0500001d050000e0
:1029e00029050000350500004405000052050000df
:1029f00067050000740500008405000099050000cb
:102a0000ac050000be050000c9050000d5050000aa
:102a1000e0050000f00500000006000011060000bf
:102a20002c06000038060000440600005006000096
:102a3000620600007306000086060000990600008a
:102a4000253300002e300000662000000d0a000033
:102a500000000000736500006e7300006f720000dc
:102a600000730000656e0000736f000072200000ac
:102a7000636100006c690000620d00000a00000044
:102a80007379000073740000656d0000007300002e
:102a900079730000746500006d2000006361000020
:102aa0006c690000620d00000a0000006770000001
:102ab000727300000063000068650000636b000033
:102ac0002067000070720000730d00000a00000013
:102ad0006e6f0000726d0000616c000000720000fb
:102ae00065740000757200006e200000746f0000b5
:102af000206e00006f7200006d6100006c0d000020
:102b00000a000000736d000073000000746500008f
:102b100073740000002b00003834000039300000ce
:102b20003331000036350000333000003200000041
:102b300077680000617400000079000065610000a2
:102b4000680000006132000020740000656e000023
:102b500020670000693f0000002000005669000067
:102b6000656e000020420000616300006800000004
:102b7000656d000020740000656e00002067000095
:102b8000693f000000200000517500006520000032
:102b90004c6100006d000000415400000d0a00006f
:102ba00000410000542b000043500000494e00003b
:102bb0003f0d00000a000000415400002b430000bc
:102bc0004d470000463d0000310d00000a000000a6
:102bd000415400002b4300004d470000533d0000ce
:102be0002200000030390000303300003136000090
:102bf0003533000030320000002200000d0a0000d2
:102c0000007400006573000074310000000d0000c6
:102c10000a0000002074000065730000742e00009c
:102c20002e2e00002e2e00002e2e00002e2e000034
:0c2c30002e2e0000200d00000a00000005
:020000040000fa
:102c3c000000fa0080002000002888000225ef0028
:102c4c00f0052000402888000a25ef000c25ef0035
:102c5c000e25ef001025ef001225ef001425ef00d4
:102c6c009560a80001e5a8000345a800e0812000bc
:102c7c00d0408800e0812000c040880040882000bf
:102c8c00b040880040882000a0408800e0408000d0
:102c9c000010a000e0408800e04080000090a00000
:102cac00e0408800e04080000080a100e040880007
:102cbc00e04080000000a100e04088000080fa00a5
:102ccc0000000600809fbe000000fa00e14080007a
:102cdc0000202000008060000000e00002003200b4
:102cec009580a9001f0037008580a90018003700c7
:102cfc00d0408000104078000080fb002028880025
:102d0c00d04080000000e800d0408800d140800016
:102d1c0040882000808f500002003a00e0812000a3
:102d2c00d0408800e04080000080a100e040880096
:102d3c00d1408000c0408000808f500004003a00d9
:102d4c00e04080000090a000e040880005003700c3
:102d5c001128800000202000008060000000e000ae
:102d6c00e3ff32000080fa004f00be000040060076
:102d7c00809fbe000000fa0018003700a0408000c1
:102d8c00312880008140780001487800a040800004
:102d9c000000e800a0408800a1408000a08e200028
:102dac00808f500002003a0040882000a04088002c
:102dbc00e04080000010a100e0408800a1408000ad
:102dcc00b0408000808f500004003a00e04080004a
:102ddc000000a000e04088000400370010288000ac
:102dec00610060000000e000e4ff3a008560a9008b
:102dfc000080fa004f00be0000400600801f7800e3
:102e0c000000fa0010288000620060000000e00062
:102e1c00010032000225a9008c20a9000080fa00d4
:102e2c004f007800004006000200fa000040eb0062
:102e3c00004f7800b0408000104f7800b040800008
:102e4c000000e800b0408800b1408000a08e200057
:102e5c00808f500002003a0040882000b04088006b
:102e6c00b1408000a0408000808f500003003a00e9
:102e7c00e04080000010a000e0408800e0408000ae
:102e8c000000a100e04088001e4078000080fa009d
:102e9c00000006000600fa00881f78001007980052
:102eac00210798000000eb00000f780009003700a4
:102ebc00e0408000620060000000e0000a003a0080
:102ecc001e0090001e044000d7ff0700004c780045
:102edc001e0fe8002e0090009e007800808f50009e
:102eec00f3ff390001003700000000001e007800dd
:102efc004f0478000080fa00000006000200fa007f
:102f0c00004f78009580a900c04080001e487800d2
:102f1c00c04080000000e800c0408800c140800034
:102f2c0040882000808f500002003a00e081200091
:102f3c00c0408800e04080000090a100e040880084
:102f4c00d1408000c0408000808f500003003a00c8
:102f5c00e04080000080a000e04088009580a80040
:102f6c000080fa00000006000600fa001007980026
:102f7c00210798000000eb00000f78000a003700d2
:102f8c00e140800000102000008060000000e000a4
:102f9c000a003a001e0090001e004000104078000d
:102fac001e0fe800d5ff07002e0090009e00780051
:102fbc00808f5000f2ff3900010037000000000044
:102fcc001e0078000080fa00000006000200fa00e3
:102fdc000000eb00000f7800e140800000102000a2
:102fec00008060000000e000010032001e30a000f4
:102ffc00e140800000202000008060000000e00024
:10300c00010032001e40a000e04080006100600022
:10301c000000e000010032001e00a000e040800033
:10302c00620060000000e000020032001e20a000e0
:10303c00010037001e10a0001e0078000080fa006e
:10304c00000006000200fa00000f7800b04080007b
:10305c009e004000a08e2000808f5000080036009b
:10306c00b04080009e004000a08e20000000ea00ce
:10307c000080400041882000614078000300370048
:10308c00b04080001e004000104078000080fa0024
:10309c00000006000000fa00e040800061006000c3
:1030ac000000e0000f003a00b1408000a04080001a
:1030bc00808f500005003600b04080008000780002
:1030cc00a04080000080500007003700b040800016
:1030dc0080007800a0408000008050006006b000a6
:1030ec00010037000000eb000080fa000000060031
:1030fc000000fa00e1408000001020000080600019
:10310c000000e0000f003a00d1408000c040800079
:10311c00808f500005003600d04080008000780081
:10312c00c04080000080500007003700d040800075
:10313c0080007800c0408000008050006006b00025
:10314c00010037000000eb000080fa0000000600d0
:10315c000000fa00e04080000000d10061406000f7
:10316c000080fb0000f0a7000000ea000000ea006d
:10317c004f00de00004078000080fa0000000600de
:10318c000000fa00e04080004800de006140600072
:10319c000080fb0000f0a7000000ea000000ea003d
:1031ac004f00de00004078000080fa0000000600ae
:1031bc000000fa00102880000080fa0000000600d1
:1031cc000000fa0080002000b02888001825ef00cd
:1031dc00f0052000f02888002025ef002225ef00c4
:1031ec002425ef002625ef002825ef002a25ef00e7
:1031fc0097c0a80017e5a8001945a800408f20002b
:10320c0080478800408f200070478800a0952000e0
:10321c0060478800a09520005047880090478000a8
:10322c000010a00090478800904780000090a000fc
:10323c0090478800904780000080a100904788004c
:10324c00904780000000a100904788000080fa00a1
:10325c0000000600809fbe000000fa00914780002d
:10326c0000202000008060000000e000020032001e
:10327c0097e0a9001f00370087e0a900180037006d
:10328c0080478000104078000080fb00d028880028
:10329c00804780000000e80080478800814780005c
:1032ac00a0952000808f500002003a00408f200033
:1032bc0080478800904780000080a10090478800dc
:1032cc008147800070478000808f500004003a00d6
:1032dc00904780000090a0009047880005003700c0
:1032ec00c128800000202000008060000000e00069
:1032fc00e3ff32000080fa004f00be0000400600e1
:10330c00809fbe000000fa00180037005047800074
:10331c00e128800081407800014878005047800007
:10332c000000e8005047880051478000009c2000b6
:10333c00808f500002003a00a09520005047880072
:10334c00904780000010a1009047880051478000f2
:10335c0060478000808f500004003a009047800046
:10336c000000a0009047880004003700c0288000af
:10337c00610060000000e000e4ff3a0087c0a90093
:10338c000080fa004f00be0000400600801f78004d
:10339c000000fa00c0288000620060000000e0001d
:1033ac00010032001825a9008c40a9000080fa0009
:1033bc004f007800004006000200fa000040eb00cd
:1033cc00004f780060478000104f78006047800005
:1033dc000000e8006047880061478000009c2000e6
:1033ec00808f500002003a00a095200060478800b2
:1033fc006147800050478000808f500003003a00e6
:10340c00904780000010a0009047880090478000f3
:10341c000000a100904788001e4078000080fa0050
:10342c00000006000600fa00881f780010079800bc
:10343c00210798000000eb00000f7800090037000e
:10344c0090478000620060000000e0000a003a0033
:10345c001e0090001e044000d7ff0700004c7800af
:10346c001e0fe8002e0090009e007800808f500008
:10347c00f3ff390001003700000000001e00780047
:10348c004f0478000080fa00000006000200fa00e9
:10349c00004f780097e0a900704780001e48780024
:1034ac00704780000000e80070478800714780007a
:1034bc00a0952000808f500002003a00408f200021
:1034cc0070478800904780000090a10090478800ca
:1034dc008147800070478000808f500003003a00c5
:1034ec00904780000080a0009047880097e0a800db
:1034fc000080fa00000006000600fa001007980091
:10350c00210798000000eb00000f78000a0037003c
:10351c009147800000102000008060000000e00057
:10352c000a003a001e0090001e0040001040780077
:10353c001e0fe800d5ff07002e0090009e007800bb
:10354c00808f5000f2ff39000100370000000000ae
:10355c001e0078000080fa00000006000200fa004d
:10356c000000eb00000f7800914780000010200055
:10357c00008060000000e000010032001e30a0005e
:10358c009147800000202000008060000000e000d7
:10359c00010032001e40a0009047800061006000d6
:1035ac000000e000010032001e00a00090478000e7
:1035bc00620060000000e000020032001e20a0004b
:1035cc00010037001e10a0001e0078000080fa00d9
:1035dc00000006000200fa00000f7800604780002f
:1035ec009e004000009c2000808f50000800360098
:1035fc00604780009e004000009c20000000ea0014
:10360c0000804000a1952000614078000300370045
:10361c00604780001e004000104078000080fa00d7
:10362c00000006000000fa00904780006100600076
:10363c000000e0000f003a00614780005047800016
:10364c00808f5000050036006047800080007800b5
:10365c005047800000805000070037006047800012
:10366c008000780050478000008050006006b00059
:10367c00010037000000eb000080fa00000006009b
:10368c000000fa00914780000010200000806000cc
:10369c000000e0000f003a00814780007047800076
:1036ac00808f500005003600804780008000780035
:1036bc007047800000805000070037008047800072
:1036cc008000780070478000008050006006b000d9
:1036dc00010037000000eb000080fa00000006003b
:1036ec000000fa00904780000000d10061406000ab
:1036fc000080fb0000f0a7000000ea000000ea00d8
:10370c004f00de00004078000080fa000000060048
:10371c000000fa00904780004800de006140600025
:10372c000080fb0000f0a7000000ea000000ea00a7
:10373c004f00de00004078000080fa000000060018
:10374c000000fa00c02880000080fa00000006008b
:10375c000200fa00004f78008421a8001e40780077
:10376c00e6fd07000080fa00000006000200fa00e7
:10377c00000f78008421a8001e007800e2f40700f6
:10378c00800078001e007800f7fd07000080fa002a
:10379c00000006000400fa00112880000010200030
:1037ac00008060000000e000010032008421a900cc
:1037bc0067fe07000004a2000004e0001c003200b9
:1037cc0099fd0700204798002e409000ea4f5000ca
:1037dc00030032002e409000ed4f500006003a00de
:1037ec000bc8bf000004e0000300320010c0b3009f
:1037fc000ae8b7000e0037002e409000ff4f500033
:10380c000b003400ae409000f0c7b30080cf5000e6
:10381c00070032000bc8bf008000fb0042a2200052
:10382c00ae41900003f178000040e8000be8b700cf
:10383c000ac8bf000004e000680032000a68ef000c
:10384c00a152290040a220009ff407000000e000d4
:10385c0005003a0020002000604088001053290029
:10386c00c2ff0700500037000154290040a220007d
:10387c0095f407000000e00005003a00200020004d
:10388c006040880070542900b8ff070046003700dc
:10389c006155290040a220008bf407000000e000d5
:1038ac0005003a001000200060408800b055290047
:1038bc00aeff07003c0037008156290040a22000d3
:1038cc0081f407000000e00004003a000c28ef002f
:1038dc00f0562900a5ff07003300370021582900b6
:1038ec0040a2200078f407000000e00004003a0039
:1038fc0061582900b0582900dd0007002a00370064
:10390c0060408000e10f50001d003200e10f5000bc
:10391c00240031008159290040a220006af40700dc
:10392c000000e00003003a00d05929008fff070087
:10393c001d003700215a290040a2200062f4070024
:10394c000000e00003003a00d05a290087ff07006e
:10395c0015003700815b290040a220005af40700b3
:10396c000000e00003003a00305c29007fff0700f4
:10397c000d00370040a220007cff07000a00370032
:10398c000bc8bf008000fb0040a22000dafe07003d
:10399c00d0c0b300bdfe0700a0c0b300bbfe070043
:1039ac0001003700000000000000eb00000f780061
:1039bc000500370040a220001e0040008040eb00b4
:1039cc00014878001e0fe8000bc8bf000000fb0088
:1039dc009e0f5000f7ff3c000b68ef000080fa00d0
:1039ec00000006000000fa00f069280091d82300be
:1039fc00105988002159880000802300c1592c00df
:103a0c003059880041598800a0b2200011c0b30081
:103a1c00014878000080fa00000006000800fa0057
:103a2c00889fbe0020079800310798001859800025
:103a3c00295980002e009000be00900052f3070020
:103a4c000001be000800be0090f307000002be009b
:103a5c0030598000415980000001be000400be00b6
:103a6c00ecf20700008fbe001e00be004f04be002b
:103a7c000080fa00000006001600fa00889fbe00c5
:103a8c00700020008c0107000000eb00000f780094
:103a9c006000b800d0588800e15888005501070034
:103aac000c003700780107000004e0000900320028
:103abc00d8588000e95880006f0107008000eb00a7
:103acc000800400089804800d0588800e1588800e0
:103adc001e0fe800300620009e007800808f5000fa
:103aec00f0ff340047010700d0588000e1588000f7
:103afc00caff0700f058880001598800a0b22000c6
:103b0c00104078000004e0000b003200f0588000f8
:103b1c00015980000e81e800809fbe0000522900f0
:103b2c00801f78000200780004f40700e687570035
:103b3c000e80e8000dff07004f04be000080fa0065
:103b4c00000006000000fa00d0588000e158800008
:103b5c00000078000080fa00000006000000fa0067
:103b6c00f0588000015980000080fa000000060027
:103b7c000200fa000068ef000000eb00000f780074
:103b8c0005003700009c20001e0040008040eb0028
:103b9c00014878001e0fe80001c8bf000000fb00c0
:103bac009e0f5000f7ff3c000168ef000080fa0008
:103bbc00000006000200fa00c9fe07000004a20083
:103bcc000004e0001e003200fbfd0700004f7800ef
:103bdc001e407800defe07001e407800ea4f5000c1
:103bec00030032001e407800ed4f500006003a00f2
:103bfc0001c8bf000004e0000300320010c0b30095
:103c0c0000e8b7000e0037001e407800ff4f500050
:103c1c000b003400f0c7b3009e40780080cf5000fa
:103c2c000700320001c8bf008000fb00029c20008e
:103c3c009e41780003f178000040e80001e8b700ed
:103c4c00000000000080fa00000006000200fa00ec
:103c5c00000f78001e007800abf30700800078009e
:103c6c001e00780024fe07000080fa000000060009
:103c7c000400fa00000f780011079800c05c2900be
:103c8c00f2ff07004006200054010700105d2900d8
:103c9c00eeff07004006200050010700c05d290020
:103cac00eaff0700400620004c010700805e290057
:103cbc00e6ff0700205f2900e4ff0700d05f290022
:103ccc00e2ff0700400620004401070010602900b5
:103cdc00deff0700a0c1b300ecfd070070602900f7
:0c3cec00daff07000080fa00000006006c
:020000040000fa
:103cf80014080000d600000080000000e00a000060
:103d080020000000800000000e08000002000000f3
:103d180082000000ffff0000060800000400000009
:103d280080000000ea080000d600000080000000c3
:103d3800100800000200000080000000c009000018
:103d48006400000080000000000800000600000079
:103d5800800000001208000002000000800000003f
:103d6800240a000064000000800000000a08000027
:103d780004000000800000001a0b00001200000080
:103d8800800000002c0b00000e00000080000000e6
:103d9800000b00001a00000082000000686a6c0036
:103da800747a4c00000001000002000004000800c2
:103db80000100000000020002b2d23003000000020
:103dc800880a000058000000820000006e616e0042
:103dd800004e41004e0069006e660000494e4600e4
:103de8000000000000000000002440000000000067
:103df8000000000059400000000000000088c300d7
:103e08004000000000008400d79741000080e000d7
:103e18003779c300414317006e05b500b5b8930064
:103e280046f5f9003fe903004f384d00321d3000d8
:103e3800f9487700825a3c00bf737f00dd4f1500b8
:103e4800750000003a0b000002000000820000002c
:083e5800300000000000000032
:020000040000fa
:103e60000000fa004c22ef0070e62000701288007b
:103e700000002800801288008460a9009460a800d7
:103e80000668ef000080fa00000006003600f80027
:103e9000809fbe00829fbe00849fbe00869fbe00a2
:103ea0000000fa0023000700404080000000e80006
:103eb0004040880010c0b30006e8b7008460a90045
:103ec0000080fa004f03be004f02be004f01be004b
:103ed0004f00be003600f900004006000200fa0064
:103ee000000f78009e007800711288000668ef00cd
:103ef0000080fa00000006000000fa007012800046
:103f00000080fa00000006000200fa00000f7800ae
:103f10009e007800611288000668ef000080fa00b9
:103f2000000006000000fa00601280000080fa0025
:103f3000000006000000fa000080fa000000060001
:103f40000000fa000668ef009460a80051e2a800a3
:103f50000080fa00000006000000fa0051e2a9000b
:103f60009460a9000080fa00000006000200fa0038
:103f70006180200091407800014f78001e40780059
:103f80000004e000010032000668ef001e407800e7
:103f90000080fa00000006000000fa0040408000a7
:103fa0000080fa00000006000000fa000828ef0078
:103fb0000080fa00000006000000fa0040472800d8
:103fc00000118800004020001011880090a02000ff
:103fd000201188002822ef002a22ef00000820008c
:103fe000601188009e21ef00101180004200de0069
:103ff0007f40600010e8b7000080fa000000060073
:104000000000fa002022a8000080fa00000006004c
:104010000000fa002022a9000080fa00000006003b
:104020000600fa00200798000020200010079800e2
:104030000000eb00000f78000b0037001e00780036
:1040400000004000ae009000008040009e00900004
:1040500091007800010878001e0090000080e800c0
:10406000100798001e0fe80010c8bf000080fb007a
:104070009e0f5000f1ff3d001e0078000080fa0006
:10408000000006000000fa00001080000080fa0026
:10409000000006000000fa000011800000407800d7
:1040a000614060000080fb0000f0a7000000ea0013
:1040b0000000ea004f00de00004078000080fa00b7
:1040c000000006000200fa00000f78009e00780051
:1040d000411188000080fa00000006000000fa008c
:1040e00085a0a9000080fa00000006000000fa0088
:1040f00030002000200c8800000a2000700c88008e
:10410000c0002000000c8800f0f02e00500c880049
:104110005620ef005820ef005a20ef006e20ef00ed
:104120007020ef007220ef008621ef0000022000d7
:10413000800c880080002000400c8800e0202e00c9
:10414000900c880001088000f00b200000816000c6
:1041500060042000710520000310200080497800d1
:104160008149780082497800e11e8000f00f2c0020
:10417000808060000050200001007000e01e880078
:10418000811d800000fc2f0000806000801d8800e1
:10419000d11e8000f00f2c008080600000302000d5
:1041a00001007000d01e8800911d800000fc2f00cf
:1041b000008060000030a000901d88000008800092
:1041c000000178000260a00060042000710520005a
:1041d00003102000804978008149780082497800e6
:1041e0000080fa00000006000400fa0010079800a2
:1041f00069ff0700000f78000000000066ff07005d
:104200009e0090009e804000810f5000fbff350013
:104210000080fa00000006000000fa008ea1a9004c
:104220000080fa00000006000000fa00881f7800f5
:1042300090408000783e20000004440056ff0700b4
:10424000800f54000400350053ff070091408000a8
:10425000810f50000e003d004fff07009040880086
:10426000700c80004600de00614060000004a20087
:10427000614060000080fb00610060004600dd00de
:10428000710c80000160a10001007000700c8800ba
:104290004f0478000080fa0000000600ca00fa000f
:1042a000881f7800dcff0700d1fd07000e80e800c2
:1042b00042012000a1602900fff107000e80e80004
:1042c0002dfd070080bb2000c7ff07000000eb00aa
:1042d000000f780030ff0700f1702200810f5000be
:1042e0000100340030ff0700713e20001e844000b2
:1042f00029ff0700800f54000300350026ff070048
:104300009e0f50000e003d0023ff0700000f7800b5
:10431000700c80004600de00614060000004a200d6
:10432000614060000080fb00610060004600dd002d
:10433000710c80000160a10001007000700c880009
:1043400017fd07001efe0700e2ff37000000fa001d
:1043500021068000f08f2f00008060000080a00008
:104360002006880091058000f0ff28000080600092
:1043700000c0a0009005880091058000f08f2f00fc
:10438000008060000080a000900588002106800069
:10439000f0f82f00008060000040a0002006880098
:1043a0005105800080ff2f00008060000000a00009
:1043b0005005880041058000f0ff28000080600063
:1043c00000c0a0004005880021058000f0ff280003
:1043d0000080600000c0a000200588000080fa0076
:1043e00000000600000f78009e00780071408800f1
:1043f000ffff37000000fa0000ae200080077800c1
:1044000080af2000000188000080fa000000060054
:104410003600f8008020a9000000eb00f1ff070043
:104420003600f800f3ff07008040a90010002000cc
:10443000ecff07003600f8008060a9002000200093
:10444000e8ff07003600f8008080a9003000200057
:10445000e4ff07000000fa0024ff07000700070040
:10446000baff070059fb0700f4f90700d2fe070066
:104470007bfe07000080fa00000006000000fa0042
:10448000220020006004200071052000031020009d
:104490008049780081497800824978000010230023
:1044a0001008880000002800300888006821ef000c
:1044b0006a21ef006c21ef000821ef000080fa0074
:1044c000000006000000fa00a1fd07006059880006
:1044d000a5fd070070598800815988000080fa0006
:1044e000000006000400fa00008fbe001e01be009e
:1044f00092598800a35988000080fa000000060045
:104500000400fa00008fbe001e01be00b2598800f0
:10451000c35988000080fa00000006000000fa007d
:0c452000ccff07005dff0700feff370026
:020000040000fa
:020000040002f8
:04aff000ffff00005f
:020000040000fa
:020000040002f8
:04aff400ffff00005b
:020000040000fa
:020000040002f8
:04aff8003dba00005e
:020000040000fa
:020000040002f8
:04affc003f3e0000d4
:00000001FF
